:100000000C9438010C9469010C9469010C946901F9
:100010000C9469010C9469010C9469010C946901B8
:100020000C9469010C9469010C9469010C946901A8
:100030000C9469010C9469010C9469010C94690198
:100040000C9469010C9489090C9469010C94690160
:100050000C9469010C9469010C9469010C94B50825
:100060000C9469010C9469010C9469010C94690168
:100070000C9469010C9469010C9469010C94690158
:100080000C945B090C9469010C9469010C9469014E
:100090000C9469010C9469010C9469010C94690138
:1000A0000C9469010C9469010C942D090C9469015C
:1000B0000C9469010C9469010C9469010C94FF087B
:1000C0000C9469010C9469010C9469010C94690108
:1000D0000C9469010C9469010C9469010C946901F8
:1000E0000C9469010C94EE020C94C3020C9451031D
:1000F0000C94B4020C94B40C0C94780D0C94C002C3
:100100000C94F3020C94E9020C94AE020C9491034B
:100110000C94B8020C94D3020C946C080C946302F7
:100120000C9402060C94CD020C9420030C94DB0278
:100130000C9403060C94EF020C94C9020C94E10297
:100140000C94BC020C94E5020C94D7020000210030
:10015000240027002A002D00300033000101000098
:10016000040107010A0100002200250028002B00DD
:100170002E003100340002010000050108010B01CE
:10018000000020002300260029002C002F00320050
:100190000001000003010601090105050505070529
:1001A00008080808020202020A0A080804040404F3
:1001B000010101010101010103030303030303031F
:1001C000040707070C0C0C0C0C0C0C0C02020202AE
:1001D00006060606060606060B0B0B0B0B0B0B0B97
:1001E0000102102020080810204010204080020149
:1001F000020108040201010204081020408080402E
:10020000201008040201800402018040201008042C
:1002100002010804020101020408102040800102CA
:1002200004081020408000000A0B02090C0D0E0883
:1002300007030401000000000000000000000000AF
:1002400000000000000000000000000000000000AE
:10025000000012111000000000000000000000006B
:10026000000000000000000000000000B40C780D49
:1002700011241FBECFEFD1E2DEBFCDBF00E00CBF27
:1002800013E0A0E0B2E0E8E0F1E200E00BBF02C062
:1002900007900D92A030B107D9F724E0A0E0B3E0B9
:1002A00001C01D92A733B207E1F711E0C7E3D1E027
:1002B00000E006C021970109802FFE010E94400E38
:1002C000C633D10780E00807A9F70E94B7090C944C
:1002D00072100C9400008F929F92AF92BF92FF9287
:1002E0000F931F93CF93DF93F09012042FE22F15FB
:1002F00008F44CC02091140408E512E0021B110917
:1003000027FD1395000F111F000F111F20911304DB
:10031000C8E8D0E0C21BD10927FDD395CC0FDD1F63
:10032000CC0FDD1F4E010D2E000CAA08BB08980152
:10033000012E000C440B550B281939094A095B0999
:10034000DC010E94E70D24EB30E040E050E00E9429
:10035000BD0D820E931EA41EB51E8C169D062CF09C
:10036000E801801691060CF4E4012297CC0FDD1F02
:100370002FB7F8948F2D90E0FC01EE0FFF1FE80FD0
:10038000F91FEE57FC4FD283C1832FBFDF91CF916E
:100390001F910F91FF90BF90AF909F908F90089505
:1003A00096E0899FD0011124AD5EBC4F90967C935E
:1003B0006E935F9791E091969C939197E091800363
:1003C000F091810390917F03992339F0309751F098
:1003D000811108C080912F031994309719F05C9611
:1003E0008C91FACF0895CF92DF92EF92FF920F9304
:1003F0001F9396E0899FF0011124ED5EFC4F11A23E
:10040000278D30A12130310551F178F022303105AE
:1004100009F451C02330310509F452C01F910F91E6
:10042000FF90EF90DF90CF9008956623B9F361E0DD
:1004300070E00E94D0012FB7F89480910F03909143
:100440001003A0911103B09112032FBF80936B038F
:1004500090936C03A0936D03B0936E03DFCF9FB7AF
:10046000F894C0900F03D0901003E0901103F09027
:1004700012039FBF00916B0310916C0320916D03D9
:1004800030916E03C01AD10AE20AF30A00917D038B
:1004900010917E0330E020E00C151D052E053F0570
:1004A00050F462E070E01F910F91FF90EF90DF90A9
:1004B000CF900C94D0016111B1CF63E070E0F3CF25
:1004C00070E060E0F0CFAF92BF92CF92DF92EF92F8
:1004D000FF920F931F93CF93DF936C017B018B01EE
:1004E000040F151FEB015E01AE18BF08C017D1073E
:1004F00059F06991D601ED91FC910190F081E02DC8
:10050000C6011995892B79F7C501DF91CF911F910C
:100510000F91FF90EF90DF90CF90BF90AF90089534
:100520008150823108F05AC0E82FF0E08827E45665
:10053000FD4F8F4F0C94400EBC02C002AE02B402BD
:10054000B802EE02C302C902CD02D302D702DB0217
:10055000E102E502EE02E902EF02F302809180007F
:100560008F77809380000895809180008F7DF9CFF0
:1005700080918000877FF5CF84B58F7784BD089503
:1005800084B58F7DFBCF8091B0008F778093B000D2
:1005900008958091B0008F7DF9CF809190008F7782
:1005A000809390000895809190008F7DF9CF809185
:1005B0009000877FF5CF8091A0008F778093A00077
:1005C00008958091A0008F7DF9CF8091A000877F52
:1005D000F5CF809120018F7780932001089580913D
:1005E00020018F7DF9CF80912001877FF5CFCF93B8
:1005F000DF93282F30E0F901EA5DFD4F8491F90186
:10060000E052FE4FD491F901E656FE4FC491CC233F
:10061000A1F081110E949002EC2FF0E0EE0FFF1F7D
:10062000E058FE4FA591B491EC91ED2381E090E06C
:1006300009F480E0DF91CF91089580E090E0FACF57
:10064000862F0C94F7021F93CF93DF93282F30E06F
:10065000F901EA5DFD4F8491F901E052FE4FD4911A
:10066000F901E656FE4FC491CC23A9F0162F811153
:100670000E949002EC2FF0E0EE0FFF1FEA59FE4FB0
:10068000A591B4918FB7F894EC91111108C0D09551
:10069000DE23DC938FBFDF91CF911F910895DE2B76
:1006A000F8CF862F642F0C942303CF93DF9390E031
:1006B000FC01E052FE4F249186569E4FFC0184912E
:1006C0008823C9F090E0880F991FFC01E45BFE4F7E
:1006D000A591B491FC01EA59FE4FC591D4916111E5
:1006E0000DC09FB7F8948C91209582238C938881BC
:1006F000282328839FBFDF91CF910895623051F462
:100700009FB7F8943C91822F809583238C93E88146
:100710002E2BEFCF8FB7F894EC912E2B2C938FBF0D
:10072000EACF862F642F0C9455036F927F928F929D
:100730009F92AF92BF92CF92DF92EF92FF920F9370
:100740001F93CF93DF9381E080937F038FB7F8945B
:1007500040910F03509110036091110370911203A7
:100760008FBF80916F0390917003A0917103B0913E
:100770007203481B590B6A0B7B0B80917B03909192
:100780007C03B0E0A0E084179507A607B70708F040
:100790001DC1C0E080917903C81760F4E091750332
:1007A000F0917603EC0FF11D62E080810E94550309
:1007B000CF5FF0CF712C812C912C540183948091C8
:1007C0007A03781608F05FC0072D10E0E0917703F8
:1007D000F0917803E00FF11F61E080810E945503E2
:1007E000E0917703F0917803E00FF11F60E08081E2
:1007F0000E942303D501C401072C04C0880F991F50
:10080000AA1FBB1F0A94D2F76C017C01E094F094FC
:10081000612C809179036816F8F4C62DD0E0E09140
:100820007503F0917603EC0FFD1F80810E94F702A3
:100830002496CC0FDD1FCD5EDC4F892B41F48881DF
:1008400099818C299D29998388836394E2CF88813B
:1008500099818E219F21F7CFE0917703F091780362
:10086000E00FF11F61E080810E94230380917703F4
:1008700090917803080F191F60E0F80180810E94B1
:10088000550373949CCFC3E1D3E0FE018FEF9FEF3C
:10089000278D30A1232B21F4148E968F858F11A2E2
:1008A000369623E0EF34F20799F7F12C96E0D92E33
:1008B00080917903F81608F050C0E12C0F2D10E05C
:1008C000000F111F055E1C4F20917A03E21608F0FD
:1008D00042C0F801608171810E2C02C07695679547
:1008E0000A94E2F7F29E900111242E0D311DE3E1EE
:1008F000F3E080E0458D568D2417350709F46AC072
:100900008F5F36968A30B1F760FF23C0E3E1F3E0F2
:1009100090E080E0448D411117C0E0917303F091A5
:100920007403E20FF31F4081D89EF001D99EF00DB1
:100930001124ED5EFC4F448F368F258F10A2178E49
:1009400061E00E94F30105C0019636968A30910558
:1009500009F7E394B9CFF394ABCF80E099A191115B
:10096000892F2696F3E0CF34DF07C1F79FB7F894BD
:1009700040910F0350911003609111037091120385
:100980009FBF40936F035093700360937103709304
:1009900072038823D9F0809134038823B9F08091C1
:1009A000320390913303019789F480912F03DF91F3
:1009B000CF911F910F91FF90EF90DF90CF90BF905C
:1009C000AF909F908F907F906F90089510927F03CB
:1009D00080E0EDCF6170B5CF0E9495038823E1F3ED
:1009E00008953FB7F8948091060390910703A09172
:1009F0000803B091090326B5A89B05C02F3F19F045
:100A00000196A11DB11D3FBFBA2FA92F982F88278E
:100A1000BC01CD01620F711D811D911D42E0660F69
:100A2000771F881F991F4A95D1F708958F929F923B
:100A3000AF92BF92CF92DF92EF92FF924B015C0197
:100A40000E94F1046B017C010E94F1046C197D0984
:100A50008E099F09683E734081059105A8F321E046
:100A6000821A9108A108B10888EEC80E83E0D81E4A
:100A7000E11CF11C81149104A104B10429F7FF9039
:100A8000EF90DF90CF90BF90AF909F908F900895A0
:100A9000AF92BF92CF92DF92EF92FF920F931F938C
:100AA000CF93DF936B017A01EC01CF5FDC4F28819C
:100AB0003CE0389F8001399F100D1124A090000365
:100AC000B12C27FF1FC0FB011182108288818F5F2C
:100AD000888388819801280F311D87FD3A95F6019A
:100AE0002A153B051CF488818C30C4F180819181EA
:100AF000049680349C4908F473C0F601808191818A
:100B0000049670C088819801280F311D87FD3A95A1
:100B10002A153B05DCF68881A801480F511D87FD89
:100B20005A95FA01EE0FFF1FE40FF51FEE57FC4F29
:100B3000808186FFCBCF8881F801E80FF11D87FD0A
:100B4000FA95CF01EE0FFF1FE80FF91FEE57FC4F8C
:100B5000808160E08F730E942303B8CF80819181F0
:100B60002881A801420F511D27FD5A959A01FA01CB
:100B7000EE0FFF1FE20FF31FEE57FC4F2181328172
:100B8000820F931FF7019183808388819801280F3A
:100B9000311D87FD3A95F901EE0FFF1FE20FF31F9C
:100BA000EE57FC4F808186FF22C08881080F111DFF
:100BB00087FD1A95F801EE0FFF1FE00FF11FEE57AA
:100BC000FC4F808161E08F73DF91CF911F910F9176
:100BD000FF90EF90DF90CF90BF90AF900C942303E5
:100BE00080E49CE9F701918380838FEF8883DF9114
:100BF000CF911F910F91FF90EF90DF90CF90BF901A
:100C0000AF900895089590E080E008950F931F93AA
:100C1000CF93DF938C01D0E0C0E061E08AE00E94D6
:100C2000230364E670E080E090E00E94160560E037
:100C30008AE00E94230364E670E080E090E00E9476
:100C4000160521960C171D0741F7DF91CF911F91D3
:100C50000F910895CF93DF93EC0180912D04909133
:100C60002E04009759F020912F04309130042C1756
:100C70003D0720F081E0DF91CF910895BE016F5FC5
:100C80007F4F0E94810F009789F090932E048093EC
:100C90002D04D0933004C0932F042091310430915F
:100CA0003204232B39F7FC011082E4CF80E0E3CF3C
:100CB0008F929F92AF92BF920F931F93CF93DF9328
:100CC000CDB7DEB7A1970FB6F894DEBF0FBECDBF8C
:100CD00019A2423008F44AE08E010F5D1F4F842EA6
:100CE000912CB12CA12CA50194010E94EF0DE62FAF
:100CF000B901CA01EA3044F5E05DD801EE938D01F7
:100D0000232B242B252B79F790E080E0109769F0B6
:100D1000FD0101900020E9F73197AF014A1B5B0B01
:100D2000BD0185E194E00E946302A1960FB6F8949C
:100D3000DEBF0FBECDBFDF91CF911F910F91BF904E
:100D4000AF909F908F900895E95CD7CFFC01019000
:100D50000020E9F73197AF01481B590BBC0185E131
:100D600094E00C9463020F931F93CF93DF931F9231
:100D70001F92CDB7DEB789831A820091310410919A
:100D800032040F5F1F4FC8010E942A068823A1F07A
:100D900020912D0430912E048091310490913204E1
:100DA000BE016F5F7F4F820F931F0E946B101093E5
:100DB00032040093310481E00F900F90DF91CF91C6
:100DC0001F910F91089590E080E00E942A062091E3
:100DD0002D0430912E04811113C02115310519F015
:100DE000C9010E94F80E10922E0410922D04109248
:100DF0003204109231041092300410922F0408959E
:100E0000109232041092310464EF72E0C9010C9424
:100E10006B10CF93DF93EC0160E08E810E9423037F
:100E200061E08E810E94230360E08E810E94230393
:100E30008BE891E00197F1F7DF91CF910895CF9280
:100E4000DF92EF92FF920F931F93CF93DF936C018A
:100E50007C0187E0E80EF11CD0E0C0E0062F10E036
:100E6000B8010C2E02C0759567950A94E2F761707F
:100E7000F70181917F010E9423032196C430D1059F
:100E800079F7C601DF91CF911F910F91FF90EF90FD
:100E9000DF90CF900C940907CF92DF92EF92FF92F0
:100EA0000F931F93CF93DF93EC01F62E642F8C8169
:100EB0000E9423038D818F3F19F060E00E9423037D
:100EC0000F2D10E08F8584FF25C06E0187E0C80ECE
:100ED000D11CF12CE12CB8010E2C02C07595679540
:100EE0000A94E2F76170F60181916F010E94230379
:100EF000FFEFEF1AFF0A88E0E816F10461F7CE0170
:100F0000DF91CF911F910F91FF90EF90DF90CF90E5
:100F10000C940907B80184E0759567958A95E1F707
:100F2000CE010E941F076F2DCE01DF91CF911F913F
:100F30000F91FF90EF90DF90CF900C941F0740E04F
:100F4000682F85E194E00C944C0781E00E949F0794
:100F50008BE39FE10197F1F70895CF93DF93823000
:100F600029F4909124049860909324048093280499
:100F70001092290480E480932A0480E180932B045A
:100F800080E580932C0461E0809119040E94550350
:100F900080911A048F3F19F061E00E94550361E0CF
:100FA00080911B040E945503C5E1D4E09E012551A8
:100FB00034408091240484FD0BC084E090E02196AD
:100FC0002817390744F461E08E810E945503EECF63
:100FD00088E090E0F4CF8BE39DE00197F1F760E0CB
:100FE000809119040E94230360E080911B040E94F9
:100FF000230380911A048F3F19F060E00E942303BD
:101000008091240484FD34C063E085E194E00E9473
:101010001F07CBE4D6E4CE010197F1F763E085E149
:1010200094E00E941F072197F1F763E085E194E0C7
:101030000E941F0783E592E00197F1F762E085E1E6
:1010400094E00E941F078091240480620E949F0701
:1010500084E0809325048CE00E949F070E94A507EE
:1010600082E08093260486E0DF91CF910C949F0765
:1010700080620E949F078BE496E40197F1F78091CC
:10108000240480620E949F0783E592E00197F1F7B4
:101090008091240480620E949F07D5CF90912804FC
:1010A000691710F06FEF690FE62FF0E0EB5EFB4F72
:1010B0009489890F80680C949F0761E080E00E940A
:1010C0004E0880910E03882321F088E392E00C946F
:1010D000A60680E492E0FBCF41E00E944C0781E04D
:1010E00090E00895CF92DF92EF92FF926C01990FFA
:1010F000EE08FF08F7FE16C041E06DE285E194E0DE
:101100000E944C0766277727CB016C197D098E0951
:101110009F094AE00E9458060196FF90EF90DF90E9
:10112000CF9008954AE0C701B601FF90EF90DF909D
:10113000CF900C94580661E08BE00E94230390E06E
:1011400080E00E946B0110920B0310920A030C9432
:10115000E30680912D0490912E04009711F00C94D9
:10116000810D60E070E0CB0108951F920F920FB6E1
:101170000F9211242F933F938F939F93AF93BF931D
:1011800080910F0390911003A0911103B09112036D
:101190003091050323E0230F2D3758F50196A11D4B
:1011A000B11D2093050380930F0390931003A09328
:1011B0001103B09312038091060390910703A0914D
:1011C0000803B09109030196A11DB11D8093060388
:1011D00090930703A0930803B0930903BF91AF91C5
:1011E0009F918F913F912F910F900FBE0F901F9065
:1011F000189526E8230F0296A11DB11DD2CF1F928C
:101200000F920FB60F9211240BB60F922F933F93AC
:101210004F935F936F937F938F939F93AF93BF93FE
:10122000EF93FF9348E251E064E271E090E080E0E8
:101230000E944805FF91EF91BF91AF919F918F91CF
:101240007F916F915F914F913F912F910F900BBEC6
:101250000F900FBE0F901F9018951F920F920FB610
:101260000F9211240BB60F922F933F934F935F93DE
:101270006F937F938F939F93AF93BF93EF93FF935E
:1012800048EA50E064EA70E083E090E00E9448059C
:10129000FF91EF91BF91AF919F918F917F916F914E
:1012A0005F914F913F912F910F900BBE0F900FBE0A
:1012B0000F901F9018951F920F920FB60F92112446
:1012C0000BB60F922F933F934F935F936F937F9340
:1012D0008F939F93AF93BF93EF93FF9348E950E0B1
:1012E00064E970E082E090E00E944805FF91EF9190
:1012F000BF91AF919F918F917F916F915F914F912E
:101300003F912F910F900BBE0F900FBE0F901F902B
:1013100018951F920F920FB60F9211240BB60F92D1
:101320002F933F934F935F936F937F938F939F93ED
:10133000AF93BF93EF93FF9348E850E064E870E009
:1013400081E090E00E944805FF91EF91BF91AF913D
:101350009F918F917F916F915F914F913F912F91CD
:101360000F900BBE0F900FBE0F901F9018957894A2
:1013700084B5826084BD84B5816084BD85B582609A
:1013800085BD85B5816085BD80916E00816080934B
:101390006E001092810080918100826080938100B4
:1013A00080918100816080938100809180008160C4
:1013B000809380008091B10084608093B10080911F
:1013C000B00081608093B000809191008260809332
:1013D00091008091910081608093910080919000B4
:1013E0008160809390008091A10082608093A10031
:1013F0008091A10081608093A1008091A000816014
:101400008093A000809121018260809321018091CE
:10141000210181608093210180912001816080936E
:10142000200180917A00846080937A0080917A0014
:10143000826080937A0080917A00816080937A0044
:1014400080917A00806880937A001092C100809128
:101450001204803308F054C061E089E00E94550313
:1014600080911204282F30E0F901EE0FFF1FE20FE8
:10147000F31FEE57FC4F9081907C996090839EE81B
:101480009093130494E6909314042CE0622F0E942E
:10149000200E829FB001112430E020E0AB01420F0A
:1014A000531FFA01EE0FFF1FE40FF51FEE57FC4F1D
:1014B000908196FD17C02F5F3F4F2C30310571F79B
:1014C000813009F08EC01092800082E0809381000C
:1014D0001092850010928400B19A80916F00826012
:1014E00080936F00E09112048E2F90E0FC01EE0FCC
:1014F000FF1FE80FF91FEE57FC4F80818064808347
:1015000090E080E00E946B010E94E30682E00E946E
:10151000AD0788E492E00E94A60661E080E00E94A8
:101520004E0889E592E00E94A60668EE73E080E02E
:1015300090E00E9416050E94A50760E080E00E94EE
:101540004E0861E08AE00E94550361E08BE00E9452
:10155000550361E08BE00E9423030E945D088AE04E
:10156000E82EF12C00E010E0D1E060E080E00E9485
:101570004E088AE692E00E94A6060E949503882300
:1015800009F4BEC08D3309F4B0C18B3209F031C10A
:101590000E949B0881E090E00E94060610920E03D4
:1015A0000E94A50760E080E00E944E088DE692E070
:1015B0000E94A60661E080E00E944E088AE692E062
:1015C0000E94A6060E94E3060E94EC04C82F8D33F9
:1015D000A1F18BE792E00E94A6068C2F0E94B30631
:1015E000F3CF823061F410929000809391001092BA
:1015F00095001092940088BB8093710073CF833064
:1016000069F41092A00082E08093A1001092A500DE
:101610001092A40089BB8093720064CF811162CFC5
:101620001092200182E080932101109225011092F6
:1016300024018ABB8093730055CF0E94A908209192
:101640001A0230911B0226173707C1F50E94A50721
:1016500060E080E00E944E088DE792E00E94A606BE
:1016600061E080E00E944E088AE692E00E94A606B1
:101670000E94E3060E94EC04C82F8D3341F08BE7F3
:1016800092E00E94A6068C2F0E94B306F3CF0E9420
:10169000A90870931B0260931A020E94A50760E0DC
:1016A00080E00E944E0887E892E00E94A60661E072
:1016B00080E00E944E0888E992E010C00E94A507D1
:1016C00060E080E00E944E0889EA92E00E94A6064F
:1016D00061E080E00E944E088AEB92E00E94A6063C
:1016E0000E94E30660ED77E080E090E00E9416053E
:1016F0000E94A5070E945D0860E080E00E944E08FD
:1017000080910E03882309F46DC064E670E080E0E8
:1017100090E00E94160580910C0390910D030196B4
:1017200090930D0380930C03B7010E942C0E892B1C
:10173000F9F480910A0390910B03019790930B03A6
:1017400080930A0361E087E00E944E088DEE92E0EC
:101750000E94A60661E087E00E944E0880910A037D
:1017600090910B030E94720885EF92E00E94A606FA
:1017700061E087E00E944E088DEE92E00E94A6068E
:1017800061E087E00E944E0880910A0390910B036C
:101790000E94720885EF92E00E94A60680910A03DB
:1017A00090910B0397FF1AC061E087E00E944E08FA
:1017B00087EF92E00E94A6060E949B0883E090E0DB
:1017C0000E94060610920E0364EF71E080E090E044
:1017D0000E9416050E94A5070E945D0860E080E057
:1017E0000E944E080115110509F4BFCE0E940000A9
:1017F000BCCE8D3209F065C00E949B0881E090E06C
:101800000E94060610920E030E94A50760E080E089
:101810000E944E088DE692E00E94A60661E080E0FC
:101820000E944E088AE692E00E94A6060E94E30605
:101830000E94EC04C82F8D3341F08BE792E00E94A8
:10184000A6068C2F0E94B306F3CF0E94A908209110
:101850001A0230911B022617370709F02FCF0E947A
:10186000A50760E080E00E944E088BEC92E00E94A9
:10187000A60661E080E00E944E088AE692E00E949F
:10188000A6060E94E3060E94EC04C82F8D3351F097
:1018900041E0682F85E194E00E944C078C2F0E9464
:1018A000B306F1CF0E94A908709319026093180241
:1018B0000E94A50760E080E00E944E088CED92E057
:1018C000F4CE0E94B306D12CC12C809131049091AA
:1018D0003204C816D90608F013CF8BE792E00E94B5
:1018E000A6068FEFC81AD80AF0CF0E94A908C091A7
:1018F0000E0320911A0230911B022617370749F573
:1019000060E08BE00E9423038AE590E00E946B0177
:1019100080910A0390910B032091180230911902D3
:10192000820F931F90930B0380930A0310920D0371
:1019300010920C03C11104C082E090E00E940606E0
:10194000D0930E030E94E3060E94A5070E945D0843
:10195000D7CE0E949B08CC2321F083E090E00E9428
:10196000060610920E03EECFCF931092150310923D
:1019700019031092180310921A0382E392E09093D5
:10198000140380931303EFE2F3E0108214821382B6
:101990001582369683E0EB36F807B9F784E092E0DB
:1019A000909376038093750380E092E090937803A0
:1019B0008093770384E08093790380937A0388E0AF
:1019C00092E090937403809373038AE090E0909385
:1019D0007C0380937B0384EF91E090937E0380935C
:1019E0007D03109281031092800310926F03109276
:1019F0007003109271031092720310927F03109281
:101A000018041092170486E292E0909316048093D3
:101A1000150480E180931904CFEFC0931A0481E18B
:101A200080931B0482E180931C0483E180931D0456
:101A300084E180931E0485E180931F0410922004AA
:101A40001092210410922204109223041092240474
:101A500081E00E94AD07809100038033E0F591E0C2
:101A6000980F909300038093120490E0FC01EE0F16
:101A7000FF1FE80FF91FEE57FC4F88EB9BE09283A6
:101A8000818310922E0410922D0410923004109233
:101A90002F04109232041092310490E080E00E94F2
:101AA0002A0620912D0430912E04811117C0211592
:101AB000310519F0C9010E94F80E10922E041092FF
:101AC0002D041092320410923104109230041092BE
:101AD0002F04CF910895C0931204D3CF10923204F3
:101AE0001092310464EF72E0C901CF910C946B1035
:101AF00080912D0490912E04009711F00C94F80E13
:101B000008951F93FC0199278827BC01E89411913F
:101B10001032E9F3193010F01E30C8F31B3251F0C7
:101B20001D3249F4689406C00E94A80D610F711D12
:101B3000811D911D119110531A30B0F33EF4909510
:101B40008095709561957F4F8F4F9F4F1F9108959E
:101B5000592F482F372F262F660F771F881F991F61
:101B6000660F771F881F991F620F731F841F951FB1
:101B7000660F771F881F991F0895052E97FB1EF487
:101B800000940E94D40D57FD07D00E94EF0D07FC72
:101B900003D04EF40C94D40D50954095309521957A
:101BA0003F4F4F4F5F4F0895909580957095619589
:101BB0007F4F8F4F9F4F08950E94110EA59F900D4C
:101BC000B49F900DA49F800D911D11240895B7FF1F
:101BD0000C94DC0D0E94DC0D821B930B0895A1E296
:101BE0001A2EAA1BBB1BFD010DC0AA1FBB1FEE1F97
:101BF000FF1FA217B307E407F50720F0A21BB30BE2
:101C0000E40BF50B661F771F881F991F1A9469F75D
:101C100060957095809590959B01AC01BD01CF01B9
:101C20000895A29FB001B39FC001A39F700D811DB5
:101C30001124911DB29F700D811D1124911D0895D5
:101C4000991B79E004C0991F961708F0961B881F0E
:101C50007A95C9F78095089597FB072E16F400949E
:101C600007D077FD09D00E94480E07FC05D03EF44E
:101C7000909581959F4F0895709561957F4F089538
:101C8000EE0FFF1F881F8BBF0790F691E02D199470
:101C9000AA1BBB1B51E107C0AA1FBB1FA617B70792
:101CA00010F0A61BB70B881F991F5A95A9F78095AE
:101CB0009095BC01CD0108950F931F93CF93DF93AF
:101CC0008230910510F482E090E0E0913504F091CB
:101CD000360430E020E0B0E0A0E0309799F4211520
:101CE000310509F44AC0281B390B24303105D8F5D9
:101CF0008A819B816115710589F1FB019383828340
:101D0000FE0111C04081518102811381481759079A
:101D1000E0F04817590799F4109761F012960C9368
:101D2000129713961C933296CF01DF91CF911F919A
:101D30000F9108950093350410933604F4CF2115C4
:101D4000310551F04217530738F0A901DB019A0120
:101D5000BD01DF01F801C1CFEF01F9CF9093360447
:101D600080933504CDCFFE01E20FF31F8193919351
:101D70002250310939832883D7CF20913304309101
:101D80003404232B41F420911E0230911F02309322
:101D900034042093330420911C0230911D0221153C
:101DA000310541F42DB73EB74091200250912102F8
:101DB000241B350BE0913304F0913404E217F30750
:101DC000A0F42E1B3F0B2817390778F0AC014E5FAB
:101DD0005F4F2417350748F04E0F5F1F50933404B0
:101DE00040933304819391939FCFF0E0E0E09CCF48
:101DF000CF93DF930097E9F0FC01329713821282B0
:101E0000A0913504B0913604ED0130E020E0109748
:101E1000A1F420813181820F931F209133043091EE
:101E200034042817390709F061C0F0933404E093B3
:101E30003304DF91CF910895EA01CE17DF07E8F56B
:101E40004A815B819E0141155105B1F7E901FB8390
:101E5000EA8349915991C40FD51FEC17FD0761F42E
:101E6000808191810296840F951FE901998388836F
:101E7000828193819B838A83F0E0E0E012968D91CA
:101E80009C9113970097B9F52D913C911197CD0135
:101E90000296820F931F2091330430913404281747
:101EA000390739F6309751F51092360410923504FF
:101EB000B0933404A0933304BCCFD383C283408156
:101EC0005181840F951FC817D90761F44E5F5F4F8A
:101ED00088819981480F591F518340838A819B8152
:101EE000938382832115310509F0B0CFF093360436
:101EF000E09335049ECFFD01DC01C0CF1382128236
:101F0000D7CF4F925F926F927F928F929F92AF92B4
:101F1000BF92CF92DF92EF92FF920F931F93CF93D6
:101F2000DF938C01009799F4CB01DF91CF911F9142
:101F30000F91FF90EF90DF90CF90BF90AF909F9068
:101F40008F907F906F905F904F900C945C0EFC018F
:101F5000E60FF71F9C0122503109E217F30708F43E
:101F6000AEC0D901CD91DC911197C617D70720F1EA
:101F7000C530D10578F0CE0104978617970750F049
:101F8000C61BD70B2297C193D1936D937C93CF013E
:101F90000E94F80EC801DF91CF911F910F91FF9021
:101FA000EF90DF90CF90BF90AF909F908F907F90F9
:101FB0006F905F904F9008955B01AC1ABD0A4C0181
:101FC0008C0E9D1EA0913504B0913604512C412CED
:101FD000F12CE12C109731F5809133049091340469
:101FE0008815990509F05CC04616570608F058C0D8
:101FF00080911C0290911D02009741F48DB79EB70D
:102000004091200250912102841B950BE817F9079B
:1020100008F055C0F0933404E0933304F901718360
:102020006083B8CF8D919C91119712966C90129706
:1020300013967C901397A815B90559F56C0142E0E9
:10204000C40ED11CCA14DB0420F1AC014A195B098F
:10205000DA011296159780F0628273825183408371
:10206000D9016D937C93E114F10471F0D7011396BB
:10207000FC93EE9312978ECF22968C0F9D1FF90141
:1020800091838083F301EFCFF0933604E09335041E
:1020900081CF4816590608F42C017D01D3019ACF4F
:1020A000CB010E945C0E7C01009749F0AE01B801A3
:1020B0000E946210C8010E94F80E87016BCF10E0E9
:1020C00000E068CFFB01DC0102C001900D9241509D
:1020D0005040D8F70895FB01DC0101900D920020DB
:1020E000E1F7089511E0C7E3D1E000E006C0802FDA
:1020F000FE010E94400E2196011DC833D10780E0E9
:082100000807A9F7F894FFCFCE
:1021080003020100070605043738392F3435362A0B
:102118003132332D52303D2B0F00D20400003704EA
:102128008000000000006C0863020306020600003D
:1021380000009103510320034F50454E45442000B1
:10214800434C4F53454420002020412E416C696286
:10215800616B687368692020002020205341464540
:10216800545920424F58202020003E200043555209
:1021780052454E5420504153533A002A004E455779
:1021880020504153533A0020205041535320434894
:10219800414E474544202000202053554343455392
:1021A8005346554C4C5920200020202057524F4E62
:1021B80047205041535320202000202020545259BA
:1021C80020414741494E21202020004E45572054A8
:1021D800494D4520504552494F443A002054494DF5
:1021E8004552204348414E474544202000202020A6
:1021F8002020202000730054494D4573205550007D
:00000001FF
