:100000000C9441010C9472010C9472010C947201D5
:100010000C9472010C9472010C9472010C94720194
:100020000C9472010C9472010C9472010C94720184
:100030000C9472010C9472010C9472010C94720174
:100040000C9472010C9472010C9472010C94720164
:100050000C9472010C9472010C9472010C94DE06E3
:100060000C9472010C94A8060C947E060C947201F8
:100070000C9472010C9472010C9472010C94720134
:100080000C9472010C9472010C9472010C94720124
:100090000C9472010C9472010C9472010C94720114
:1000A0000C9472010C9472010C9472010C94720104
:1000B0000C9472010C9472010C9472010C947201F4
:1000C0000C9472010C9472010C9472010C947201E4
:1000D0000C9472010C9472010C9472010C947201D4
:1000E0000C9472010C943C040C9497040C946B03D4
:1000F0000C94CB030C9490030C949E030C949804E2
:100100000C9459030C9486030C947E030C9467039F
:100110000C94E0050C9466020C94B3020C946E03EC
:100120000C9474030C948C030C940E030C945F03D6
:100130000C942A020C9428070C949A030C949403B0
:100140000C94FC030C9407020C9463030C941602A9
:100150000C9478030C9499030C9482030C94380249
:1001600000002100240027002A002D003000330069
:1001700001010000040107010A010000220025001E
:1001800028002B002E003100340002010000050180
:1001900008010B01000020002300260029002C008C
:1001A0002F003200000100000301060109010505CE
:1001B0000505070508080808020202020A0A0808DD
:1001C000040404040101010101010101030303030B
:1001D00003030303040707070C0C0C0C0C0C0C0C9A
:1001E0000202020206060606060606060B0B0B0BAB
:1001F0000B0B0B0B010210202008081020401020D0
:1002000040800201020108040201010204081020DA
:1002100040808040201008040201800402018040D8
:100220002010080402010804020101020408102041
:100230004080010204081020408000000A0B0209DF
:100240000C0D0E0807030401000000000000000070
:10025000000000000000000000000000000000009E
:10026000000000000000121110000000000000005B
:10027000000000000000000000000000000000007E
:10028000280711241FBECFEFD1E2DEBFCDBF00E0B3
:100290000CBF12E0A0E0B2E0E6ECFAE100E00BBF38
:1002A00002C007900D92A83FB107D9F724E0A8EF4C
:1002B000B2E001C01D92A433B207E1F711E0C1E43E
:1002C000D1E000E006C021970109802FFE010E94C5
:1002D0003F0DC034D10780E00807A9F70E94E0076E
:1002E0000C94610D0C94000096E0899FD0011124BC
:1002F000AB53BC4F90967C936E935F9791E0919631
:100300009C939197E0913204F091330490913104E1
:10031000992339F0309751F0811108C08091E103A1
:100320001994309719F05C968C91FACF0895CF927A
:10033000DF92EF92FF920F931F9396E0899FF00157
:100340001124EB53FC4F11A2278D30A12130310530
:1003500051F178F02230310509F451C023303105D4
:1003600009F452C01F910F91FF90EF90DF90CF9052
:1003700008956623B9F361E070E00E9474012FB71D
:10038000F89480910C0390910D03A0910E03B0910D
:100390000F032FBF80931D0490931E04A0931F048E
:1003A000B0932004DFCF9FB7F894C0900C03D09097
:1003B0000D03E0900E03F0900F039FBF00911D040A
:1003C00010911E0420911F0430912004C01AD10AFC
:1003D000E20AF30A00912F041091300430E020E08B
:1003E0000C151D052E053F0550F462E070E01F91CD
:1003F0000F91FF90EF90DF90CF900C9474016111FA
:10040000B1CF63E070E0F3CF70E060E0F0CFFC01CB
:10041000538D448D252F30E0842F90E0821B930B69
:10042000541710F0CF96089501970895FC01918D0F
:10043000828D981761F0A28DAE0FBF2FB11D5D9612
:100440008C91928D9F5F9F73928F90E008958FEFB4
:100450009FEF0895FC01918D828D981731F0828D68
:10046000E80FF11D858D90E008958FEF9FEF0895BF
:10047000FC01918D228D892F90E0805C9F4F821B23
:1004800091098F7399270895FC01A48DA80FB92FA6
:10049000B11DA35ABF4F2C91848D90E001968F73AC
:1004A0009927848FA689B7892C93A089B1898C91CB
:1004B000837080648C93938D848D981306C002881A
:1004C000F389E02D80818F7D80830895EF92FF92E4
:1004D0000F931F93CF93DF93EC0181E0888F9B8D67
:1004E0008C8D98131AC0E889F989808185FF15C021
:1004F0009FB7F894EE89FF896083E889F989808144
:100500008370806480839FBF81E090E0DF91CF9112
:100510001F910F91FF90EF900895F62E0B8D10E034
:100520000F5F1F4F0F731127E02E8C8D8E110CC0A3
:100530000FB607FCFACFE889F989808185FFF5CFEE
:10054000CE010E944402F1CFEB8DEC0FFD2FF11D87
:10055000E35AFF4FF0829FB7F8940B8FEA89FB892B
:1005600080818062CFCFCF93DF93EC01888D882389
:10057000B9F0AA89BB89E889F9898C9185FD03C006
:10058000808186FD0DC00FB607FCF7CF8C9185FFEB
:10059000F2CF808185FFEDCFCE010E944402E9CFEA
:1005A000DF91CF91089580E193E00E94380221E02D
:1005B000892B09F420E0822F089580E090E0892BB8
:1005C00029F00E94D30281110E94000080E090E097
:1005D000892B49F080E090E0892B29F00E940000EF
:1005E00081110E94000080E090E0892B49F080E0BA
:1005F00090E0892B29F00E94000081110E940000E8
:1006000080E090E0892B49F080E090E0892B29F090
:100610000E94000081110C9400000895AF92BF92D7
:10062000CF92DF92EF92FF920F931F93CF93DF93BE
:100630006C017B018B01040F151FEB015E01AE18ED
:10064000BF08C017D10759F06991D601ED91FC910F
:100650000190F081E02DC6011995892B79F7C5012C
:10066000DF91CF911F910F91FF90EF90DF90CF908E
:10067000BF90AF9008958150823108F05AC0E82FA2
:10068000F0E08827E95BFC4F8F4F0C943F0D670328
:100690006B0359035F03630399036E0374037803C9
:1006A0007E03820386038C039003990394039A03C9
:1006B0009E03809180008F778093800008958091C1
:1006C00080008F7DF9CF80918000877FF5CF84B542
:1006D0008F7784BD089584B58F7DFBCF8091B00066
:1006E0008F778093B00008958091B0008F7DF9CF0F
:1006F000809190008F778093900008958091900072
:100700008F7DF9CF80919000877FF5CF8091A000F9
:100710008F778093A00008958091A0008F7DF9CFFE
:100720008091A000877FF5CF809120018F77809303
:1007300020010895809120018F7DF9CF80912001C3
:10074000877FF5CFCF93DF93282F30E0F901E65C68
:10075000FD4F8491F901EC50FE4FD491F901E2551F
:10076000FE4FC491CC23A1F081110E943B03EC2FDA
:10077000F0E0EE0FFF1FEC56FE4FA591B491EC9107
:10078000ED2381E090E009F480E0DF91CF910895BE
:1007900080E090E0FACF862F0C94A2031F93CF93B2
:1007A000DF93282F30E0F901E65CFD4F8491F901D9
:1007B000EC50FE4FD491F901E255FE4FC491CC2389
:1007C000A9F0162F81110E943B03EC2FF0E0EE0FF1
:1007D000FF1FE658FE4FA591B4918FB7F894EC91A6
:1007E000111108C0D095DE23DC938FBFDF91CF912C
:1007F0001F910895DE2BF8CF862F642F0C94CE0323
:10080000CF93DF9390E0FC01EC50FE4F2491825592
:100810009E4FFC0184918823C9F090E0880F991FB6
:10082000FC01E05AFE4FA591B491FC01E658FE4F41
:10083000C591D49161110DC09FB7F8948C9120950A
:1008400082238C938881282328839FBFDF91CF91B7
:100850000895623051F49FB7F8943C91822F8095AF
:1008600083238C93E8812E2BEFCF8FB7F894EC91F4
:100870002E2B2C938FBFEACF862F642F0C9400046D
:100880003FB7F8948091F9029091FA02A091FB028F
:10089000B091FC0226B5A89B05C02F3F19F0019628
:1008A000A11DB11D3FBFBA2FA92F982F8827BC01CA
:1008B000CD01620F711D811D911D42E0660F771FF2
:1008C000881F991F4A95D1F708958F929F92AF92F2
:1008D000BF92CF92DF92EF92FF924B015C010E9498
:1008E00040046B017C010E9440046C197D098E0953
:1008F0009F09683E734081059105A8F321E0821AA3
:100900009108A108B10888EEC80E83E0D81EE11C4A
:10091000F11C81149104A104B10429F7FF90EF9018
:10092000DF90CF90BF90AF909F908F9008950895E3
:1009300090E080E00895CF93DF93EC0160E08E813A
:100940000E94CE0361E08E810E94CE0360E08E8122
:100950000E94CE038BE891E00197F1F7DF91CF91F0
:100960000895CF92DF92EF92FF920F931F93CF9350
:10097000DF936C017C0187E0E80EF11CD0E0C0E061
:10098000062F10E0B8010C2E02C0759567950A94E9
:10099000E2F76170F70181917F010E94CE032196F9
:1009A000C430D10579F7C601DF91CF911F910F9126
:1009B000FF90EF90DF90CF900C949B04CF92DF924A
:1009C000EF92FF920F931F93CF93DF93EC01F62EDC
:1009D000642F8C810E94CE038D818F3F19F060E0DF
:1009E0000E94CE030F2D10E08F8584FF25C06E017D
:1009F00087E0C80ED11CF12CE12CB8010E2C02C0EE
:100A0000759567950A94E2F76170F60181916F011F
:100A10000E94CE03FFEFEF1AFF0A88E0E816F10408
:100A200061F7CE01DF91CF911F910F91FF90EF9071
:100A3000DF90CF900C949B04B80184E07595679586
:100A40008A95E1F7CE010E94B1046F2DCE01DF91AE
:100A5000CF911F910F91FF90EF90DF90CF900C946A
:100A6000B10440E0682F8DEA93E00C94DE0481E04D
:100A70000E9431058BE39FE10197F1F70895CF9331
:100A8000DF93823029F49091BC0398609093BC036B
:100A90008093C0031092C10380E48093C20380E17D
:100AA0008093C30380E58093C40361E08091B10328
:100AB0000E9400048091B2038F3F19F061E00E9410
:100AC000000461E08091B3030E940004CDEAD3E00A
:100AD0009E012D5A33408091BC0384FD0BC084E0FD
:100AE00090E021962817390744F461E08E810E9436
:100AF0000004EECF88E090E0F4CF8BE39DE0019717
:100B0000F1F760E08091B1030E94CE0360E0809134
:100B1000B3030E94CE038091B2038F3F19F060E0CF
:100B20000E94CE038091BC0384FD34C063E08DEA53
:100B300093E00E94B104CBE4D6E4CE010197F1F733
:100B400063E08DEA93E00E94B1042197F1F763E03E
:100B50008DEA93E00E94B10483E592E00197F1F7FA
:100B600062E08DEA93E00E94B1048091BC03806250
:100B70000E94310584E08093BD038CE00E94310522
:100B80000E94370582E08093BE0386E0DF91CF911B
:100B90000C94310580620E9431058BE496E4019744
:100BA000F1F78091BC0380620E94310583E592E0F9
:100BB0000197F1F78091BC0380620E943105D5CF87
:100BC00041E00E94DE0481E090E00895FB01019085
:100BD0000020E9F73197AF01461B570BDC01ED917F
:100BE000FC910280F381E02D1994CF93DF93BC0137
:100BF00080E193E00E94E605EC0160E472E080E1B0
:100C000093E00E94E6058C0F9D1FDF91CF91089520
:100C1000CF92DF92EF92FF920F931F93CF93DF93C8
:100C2000CDB7DEB7A1970FB6F894DEBF0FBECDBF2C
:100C30006B017C01F7FE3EC041E06DE28DEA93E07E
:100C40000E94DE0422273327A9012C193D094E09F1
:100C50005F0919A28E010F5D1F4F9AE0C92ED12C9A
:100C6000E12CF12CCA01B901A70196010E94FE0CEA
:100C7000605DF80162938F01211531054105510531
:100C800089F790E080E0309729F0BF018DEA93E08A
:100C90000E94E6050196A1960FB6F894DEBF0FBE3E
:100CA000CDBFDF91CF911F910F91FF90EF90DF901B
:100CB000CF900895AC019B0119A28E010F5D1F4FCB
:100CC0008AE0C82ED12CE12CF12CCA01B901A70170
:100CD00096010E94FE0C605DF80162938F01211560
:100CE00031054105510589F790E080E0309799F290
:100CF000BF018DEA93E00E94E605CDCF1F920F92CF
:100D00000FB60F9211240BB60F922F933F934F9370
:100D10005F936F937F938F939F93AF93BF93EF9363
:100D2000FF9380E193E00E944402FF91EF91BF9115
:100D3000AF919F918F917F916F915F914F913F9173
:100D40002F910F900BBE0F900FBE0F901F90189514
:100D50001F920F920FB60F9211240BB60F922F9382
:100D60008F939F93EF93FF93E0912003F0912103E2
:100D70008081E0912603F091270382FD1DC09081C0
:100D8000809129038F5F8F7320912A03821741F08E
:100D9000E0912903F0E0E05FFC4F958F80932903F9
:100DA000FF91EF919F918F912F910F900BBE0F901C
:100DB0000FBE0F901F9018958081F2CF1F920F9257
:100DC0000FB60F9211242F933F938F939F93AF935E
:100DD000BF9380910C0390910D03A0910E03B091ED
:100DE0000F033091F80223E0230F2D3758F50196B9
:100DF000A11DB11D2093F80280930C0390930D0365
:100E0000A0930E03B0930F038091F9029091FA0220
:100E1000A091FB02B091FC020196A11DB11D80932F
:100E2000F9029093FA02A093FB02B093FC02BF91E7
:100E3000AF919F918F913F912F910F900FBE0F9087
:100E40001F90189526E8230F0296A11DB11DD2CF41
:100E5000109213031092120388EE93E0A0E0B0E02A
:100E60008093140390931503A0931603B093170374
:100E70008CE192E0909311038093100385EC90E055
:100E800090931D0380931C0384EC90E090931F03C8
:100E900080931E0380EC90E09093210380932003C5
:100EA00081EC90E0909323038093220382EC90E006
:100EB000909325038093240386EC90E0909327037E
:100EC000809326031092290310922A0310922B0379
:100ED00010922C031092C7031092CB031092CA03F6
:100EE0001092CC038AE392E09093C6038093C503EB
:100EF000E1EEF3E01082148213821582369684E0CC
:100F0000ED31F807B9F784E092E0909328048093DC
:100F1000270480E092E090932A048093290484E0DF
:100F200080932B0480932C0488E092E09093260415
:100F3000809325048AE090E090932E0480932D0402
:100F400084EF91E09093300480932F041092330447
:100F50001092320410922104109222041092230461
:100F600010922404109231041092B0031092AF0337
:100F70008EE292E09093AE038093AD0380E1809384
:100F8000B1038FEF8093B20381E18093B30382E1D9
:100F90008093B40383E18093B50384E18093B60327
:100FA00085E18093B7031092B8031092B9031092B1
:100FB000BA031092BB031092BC0381E00C943F056E
:100FC000789484B5826084BD84B5816084BD85B524
:100FD000826085BD85B5816085BD80916E00816030
:100FE00080936E00109281008091810082608093D6
:100FF00081008091810081608093810080918000D8
:101000008160809380008091B10084608093B10002
:101010008091B00081608093B000809191008260E7
:1010200080939100809191008160809391008091E4
:1010300090008160809390008091A10082608093F5
:10104000A1008091A10081608093A1008091A00007
:1010500081608093A00080912101826080932101B2
:101060008091210181608093210180912001816024
:101070008093200180917A00846080937A0080912F
:101080007A00826080937A0080917A0081608093F8
:101090007A0080917A00806880937A001092C10073
:1010A00082E00E943F0563E472E08DEA93E00E94D3
:1010B000E605E091C003E23008F055C0E150F0E0F1
:1010C000E355FC4F848980680E9431056EE472E02C
:1010D0008DEA93E00E94E60560ED77E080E090E025
:1010E0000E9465040E943705AA24A394412C512C28
:1010F0003201439422242A94322CA09231048FB7D7
:10110000F89440910C0350910D0360910E0370917F
:101110000F038FBF8091210490912204A09123049A
:10112000B0912404481B590B6A0B7B0B80912D0452
:1011300090912E04B0E0A0E084179507A607B707AA
:1011400008F08DC1C0E080912B04C81770F4E091C5
:101150002704F0912804EC0FF11D62E080810E94C9
:101160000004CF5FF0CFE1E0AACFB12C80912C0436
:10117000B81608F05FC00B2D10E0E0912904F09143
:101180002A04E00FF11F61E080810E940004E091D9
:101190002904F0912A04E00FF11F60E080810E9491
:1011A000CE03D301C2010B2C04C0880F991FAA1FC4
:1011B000BB1F0A94D2F76C017C01E094F094912C4F
:1011C00080912B049816F8F4C92DD0E0E091270403
:1011D000F0912804EC0FFD1F80810E94A203249649
:1011E000CC0FDD1FCB53DC4F892B41F488819981D3
:1011F0008C299D29998388839394E2CF8881998152
:101200008E219F21F7CFE0912904F0912A04E00F6D
:10121000F11F61E080810E94CE03809129049091AA
:101220002A04080F191F60E0D8018C910E94000465
:10123000B3949CCF25ECC22E23E0D22EE6018F8DF5
:1012400098A1892B21F41C8E3E8E2D8E19A22696F4
:10125000E1E0F4E0EC17FD0791F710E096E0B92E1D
:1012600080912B04181708F052C000E0E12EF12CF9
:10127000EE0CFF1C970123533C4F790120912C0465
:10128000021708F042C0D7016D917C91002E02C078
:10129000769567950A94E2F7129F90011124200F2A
:1012A000311DE5ECF3E080E0458D568D24173507C0
:1012B00009F492C38F5F36968A30B1F760FF23C07E
:1012C000E5ECF3E090E080E0448D411117C0E0913F
:1012D0002504F0912604E20FF31F6081B89EF0010F
:1012E000B99EF00D1124EB53FC4F648F368F258F80
:1012F00010A2178E61E00E94970105C001963696F4
:101300008A30910509F70F5FB9CF1F5FA9CF80E041
:10131000F60191A19111892FF6E0CF0ED11CCC15C9
:10132000DD05B1F79FB7F89440910C0350910D0380
:1013300060910E0370910F039FBF4093210450935F
:1013400022046093230470932404882309F487C043
:101350008091E603882309F482C08091E403909190
:10136000E503019709F07BC0C091E103C0930B0333
:10137000C1117AC0C0900603D0900703E090080323
:10138000F090090380910A038823C9F08091050336
:101390008B3209F0DDC28091010390910203A0918C
:1013A0000303B09104038C0D9D1DAE1DBF1D8093E2
:1013B000FD029093FE02A093FF02B0930003E1E0D0
:1013C0008091C0038111E0E0E195F0E0E355FC4F2E
:1013D000848980680E943105C701B6010E94080611
:1013E00041E0609105038DEA93E00E94DE04609184
:1013F00001037091020380910303909104030E9402
:10140000080680910A03882381F065EF72E08DEA77
:1014100093E00E94E6056091FD027091FE028091CA
:10142000FF02909100030E940806E091C003E230A1
:1014300008F0D0C2E150F0E0E355FC4F84898068A9
:101440000E9431056091FD027091FE028091FF02C1
:10145000909100030E9408060E94DD024ECE109279
:10146000310410920B0386CF0E943705C235F1F488
:1014700083E592E00E94F5051092010310920203A9
:1014800010920303109204031092060310920703B4
:1014900010920803109209031092FD021092FE02AE
:1014A0001092FF021092000310920A0380910B0326
:1014B0008133D1F481E692E00E94F5052091FD028E
:1014C0003091FE024091FF02509100032115310539
:1014D0004105510509F0A3C14092FD025092FE0260
:1014E0006092FF027092000380910B038433F1F449
:1014F0008AE692E00E94F5052091FD023091FE02FD
:101500004091FF025091000321153105410551051D
:1015100009F096C124E030E040E050E02093FD0265
:101520003093FE024093FF025093000380910B031F
:101530008733F1F483E792E00E94F5052091FD02E4
:101540003091FE024091FF025091000321153105B8
:101550004105510509F085C187E090E0A0E0B0E0C9
:101560008093FD029093FE02A093FF02B0930003CC
:1015700080910B038033E9F48CE792E00E94F5053B
:101580002091FD023091FE024091FF025091000334
:10159000211531054105510561F0AAE0B0E00E9436
:1015A000470D6093FD027093FE028093FF029093BB
:1015B000000380910B038233F1F485E892E00E94EE
:1015C000F5052091FD023091FE024091FF025091FD
:1015D0000003211531054105510509F053C122E0F1
:1015E00030E040E050E02093FD023093FE02409353
:1015F000FF025093000380910B038533F1F48EE8D2
:1016000092E00E94F5052091FD023091FE0240918A
:10161000FF0250910003211531054105510509F0E4
:1016200042C185E090E0A0E0B0E08093FD0290939D
:10163000FE02A093FF02B093000380910B03883356
:10164000F1F487E992E00E94F5052091FD023091C6
:10165000FE024091FF025091000321153105410522
:10166000510509F031C128E030E040E050E020931E
:10167000FD023093FE024093FF02509300038091DD
:101680000B038D33B1F480EA92E00E94F50580915E
:10169000FD029091FE02A091FF02B09100038093A1
:1016A000010390930203A0930303B0930403A09259
:1016B0000A0380910B038333F1F48DEA92E00E94D8
:1016C000F5052091FD023091FE024091FF025091FC
:1016D0000003211531054105510509F006C183E0DC
:1016E00090E0A0E0B0E08093FD029093FE02A09312
:1016F000FF02B093000380910B038633F1F486EB75
:1017000092E00E94F5052091FD023091FE02409189
:10171000FF0250910003211531054105510509F0E3
:10172000F5C026E030E040E050E02093FD02309329
:10173000FE024093FF025093000380910B03893314
:10174000F1F48FEB92E00E94F5052091FD023091BB
:10175000FE024091FF025091000321153105410521
:10176000510509F0E4C089E090E0A0E0B0E080938A
:10177000FD029093FE02A093FF02B09300038091BC
:101780000B039FEB980F943008F0F4CD4091FD02CD
:101790005091FE026091FF02709100034093060396
:1017A0005093070360930803709309031092FD029E
:1017B0001092FE021092FF0210920003813439F45D
:1017C00088EC92E00E94F5058BE2809305038091FE
:1017D0000B03823439F481ED92E00E94F5058DE22D
:1017E0008093050380910B03833439F48DED92E0EF
:1017F0000E94F5058AE28093050380910B038434EF
:1018000039F48CEE92E00E94F5058FE28093050397
:1018100064E670E080E090E00E946504ABCDAAE051
:10182000B0E00E94470D6F5F7F4F8F4F9F4F6093D7
:10183000FD027093FE028093FF029093000354CE4A
:10184000AAE0B0E00E94470D6C5F7F4F8F4F9F4F23
:101850006093FD027093FE028093FF029093000359
:1018600065CEAAE0B0E00E94470D695F7F4F8F4FC1
:101870009F4F6093FD027093FE028093FF0290934E
:10188000000376CEAAE0B0E00E94470D6E5F7F4F66
:101890008F4F9F4F6093FD027093FE028093FF0273
:1018A00090930003A8CEAAE0B0E00E94470D6B5FC2
:1018B0007F4F8F4F9F4F6093FD027093FE02809386
:1018C000FF0290930003B9CEAAE0B0E00E94470D5A
:1018D000685F7F4F8F4F9F4F6093FD027093FE02B2
:1018E0008093FF0290930003CACEAAE0B0E00E946A
:1018F000470D6D5F7F4F8F4F9F4F6093FD02709339
:10190000FE028093FF0290930003F5CEAAE0B0E0C0
:101910000E94470D6A5F7F4F8F4F9F4F6093FD027C
:101920007093FE028093FF029093000306CFAAE01B
:10193000B0E00E94470D675F7F4F8F4F9F4F6093CE
:10194000FD027093FE028093FF029093000317CF75
:101950008D3289F48091010390910203A0910303D9
:10196000B0910403A7019601281B390B4A0B5B0BAE
:10197000DA01C9011CCD8A32A9F42091010330910A
:1019800002034091030350910403C701B6010E9472
:10199000EE0C6093FD027093FE028093FF02909321
:1019A00000030DCD8F3209F00ACD20910103309153
:1019B00002034091030350910403C701B6010E9442
:1019C000200D2093FD023093FE024093FF025093BE
:1019D0000003F5CCE1E02FCD61708DCCDB018F935E
:1019E0009F930E94470DBF91AF91A29F800D911DC3
:1019F000A39F900DB29F900D11240895A1E21A2E7D
:101A0000AA1BBB1BFD010DC0AA1FBB1FEE1FFF1FA2
:101A1000A217B307E407F50720F0A21BB30BE40BF2
:101A2000F50B661F771F881F991F1A9469F7609539
:101A30007095809590959B01AC01BD01CF010895F3
:101A4000052E97FB1EF400940E94370D57FD07D01A
:101A50000E94FE0C07FC03D04EF40C94370D5095F9
:101A60004095309521953F4F4F4F5F4F089590958A
:101A70008095709561957F4F8F4F9F4F0895EE0F22
:101A8000FF1F881F8BBF0790F691E02D19940E94CD
:101A9000520DA59F900DB49F900DA49F800D911D98
:101AA00011240895A29FB001B39FC001A39F700DA0
:101AB000811D1124911DB29F700D811D1124911D56
:061AC0000895F894FFCF29
:101AC6000302010007060504373839443435364326
:101AD6003132334252303D410000000066020E03AF
:101AE6000702B302380216022A0200000000E005CF
:101AF6000E0398049704000000003C04FC03CB038B
:101B06000D0A0043616C63756C61746F72004C6101
:101B1600623300427574746F6E2043616E63656C48
:101B260000427574746F6E203100427574746F6E66
:101B3600203400427574746F6E20370042757474D9
:101B46006F6E203000427574746F6E2032004275DD
:101B560074746F6E203500427574746F6E20380091
:101B6600427574746F6E20457175616C00427574B0
:101B7600746F6E203300427574746F6E20360042A7
:101B86007574746F6E2039004164646974696F6E90
:101B9600005375627472616374696F6E004D756C83
:101BA6007469706C69636174696F6E00446576650B
:081BB60073696F6E00203D0011
:00000001FF
