:100000000C942B010C945C010C945C010C945C012D
:100010000C945C010C945C010C945C010C945C01EC
:100020000C945C010C945C010C945C010C945C01DC
:100030000C945C010C945C010C945C010C945C01CC
:100040000C945C010C945C010C945C010C945C01BC
:100050000C945C010C945C010C945C010C940A05FA
:100060000C945C010C94D4040C94AA040C945C01D0
:100070000C945C010C945C010C945C010C945C018C
:100080000C945C010C945C010C945C010C945C017C
:100090000C945C010C945C010C945C010C945C016C
:1000A0000C945C010C945C010C945C010C945C015C
:1000B0000C945C010C945C010C945C010C945C014C
:1000C0000C945C010C945C010C945C010C945C013C
:1000D0000C945C010C945C010C945C010C945C012C
:1000E0000C945C010C946A030C94AB010C945C03BB
:1000F0000C9454050C944E030C941C020C9478033D
:100100000C9452030C94A1020C94C5070C94220386
:100110000C9460030C9427030C9474030C9439031F
:100120000C9454020C9441030C94BA010C946E0389
:100130000C9458030C9448030C9466030C940E0220
:100140000C9445030C943D030C947E0100000A0BB3
:1001500002090C0D0E080703040100000000000056
:10016000000000000000000000000000000000008F
:10017000000000000000000012111000000000004C
:10018000000000000000000000000000000000006F
:10019000000000002200250028002B002E00310066
:1001A000340002010000050108010B0100002100DC
:1001B000240027002A002D00300033000101000038
:1001C000040107010A0105050505070508080808D7
:1001D000020202020A0A08080404040401010101DF
:1001E00001010101030303030303030304070707DA
:1001F0000C0C0C0C0C0C0C0C02020202060606067F
:10020000060606060B0B0B0B0B0B0B0B010210204B
:10021000200808102040102040800201020108043C
:1002200002010102040810204080804020100804D0
:100230000201800402018040201008040201080429
:10024000020101020408102040800102040810206D
:1002500040805405C50711241FBECFEFD1E2DEBF99
:10026000CDBF00E00CBF2EE1A2E4BEE101C01D92B3
:10027000A33FB207E1F71EE1A0E0B2E0ECE5F4E154
:1002800000E00BBF02C007900D92A234B107D9F76E
:1002900011E0CAE2D1E000E006C021970109802FF9
:1002A000FE010E94FE07C932D10780E00807A9F7C6
:1002B0000E948F050C941C0A0C94000090E0FC0135
:1002C000E45FFD4F24918A539E4FFC018491882363
:1002D00099F090E0880F991FFC01E455FE4FA5911D
:1002E000B491FC01EE56FE4F859194918FB7F8942E
:1002F000EC91E22BEC938FBF08950895AF92BF92DB
:10030000CF92DF92EF92FF920F931F93CF93DF93E1
:100310006C017B018B01040F151FEB015E01AE1810
:10032000BF08C017D10759F06991D601ED91FC9132
:100330000190F081E02DC6011995892B79F7C5014F
:10034000DF91CF911F910F91FF90EF90DF90CF90B1
:10035000BF90AF900895FC01538D448D252F30E060
:10036000842F90E0821B930B541710F0CF960895C2
:1003700001970895FC01918D828D981761F0A28DEF
:10038000AE0FBF2FB11D5D968C91928D9F5F9F73B5
:10039000928F90E008958FEF9FEF08952FB7F89414
:1003A0008091481E9091491EA0914A1EB0914B1E0B
:1003B0002FBF8093541E9093551EA093561EB0934A
:1003C000571E8CE49EE10E94BA0197FF26C02FB70A
:1003D000F8948091481E9091491EA0914A1EB091B8
:1003E0004B1E2FBF4091541E5091551E6091561EBA
:1003F0007091571E841B950BA60BB70B4091501E96
:100400005091511E6091521E7091531E8417950792
:10041000A607B707B0F28FEF9FEF0895FC01918D0B
:10042000828D981731F0828DE80FF11D858D90E057
:1004300008958FEF9FEF0895FC01918D228D892FF4
:1004400090E0805C9F4F821B91098F7399270895DC
:100450008CE49EE10E941C0221E0892B09F420E03B
:10046000822F0895FC01A48DA80FB92FB11DA35AA6
:10047000BF4F2C91848D90E001968F739927848FC4
:10048000A689B7892C93A089B1898C9183708064E7
:100490008C93938D848D981306C00288F389E02D88
:1004A00080818F7D80830895EF92FF920F931F9339
:1004B000CF93DF93EC0181E0888F9B8D8C8D981317
:1004C0001AC0E889F989808185FF15C09FB7F89423
:1004D000EE89FF896083E889F9898081837080646F
:1004E00080839FBF81E090E0DF91CF911F910F91BA
:1004F000FF90EF900895F62E0B8D10E00F5F1F4FC9
:100500000F731127E02E8C8D8E110CC00FB607FCD7
:10051000FACFE889F989808185FFF5CFCE010E9465
:100520003202F1CFEB8DEC0FFD2FF11DE35AFF4F9F
:10053000F0829FB7F8940B8FEA89FB8980818062F3
:10054000CFCFCF93DF93EC01888D8823B9F0AA89B0
:10055000BB89E889F9898C9185FD03C0808186FD7E
:100560000DC00FB607FCF7CF8C9185FFF2CF8081CD
:1005700085FFEDCFCE010E943202E9CFDF91CF910E
:10058000089580E090E0892B29F00E9428028111D3
:100590000E94000080E090E0892B49F080E090E02C
:1005A000892B29F00E94000081110E94000080E048
:1005B00090E0892B49F080E090E0892B29F00E949F
:1005C000000081110E94000080E090E0892B49F03A
:1005D00080E090E0892B29F00E94000081110C94AA
:1005E00000000895282F30E0F901E45BFE4F94915C
:1005F000F901E45FFD4F44912A533E4FF9012491E4
:10060000222309F435C0992311F191509231F8F465
:10061000E92FF0E08827E05FFC4F8F4F0C94FE0736
:1006200041034503220339033D03270348034E03D7
:10063000520358035C03600366036A0327036E03D7
:1006400074037803809180008F7780938000E22F7D
:10065000F0E0EE0FFF1FEE56FE4FA591B4918FB75D
:10066000F894EC91611148C040954E234C938FBF94
:100670000895809180008F7DE8CF80918000877FF2
:10068000E4CF84B58F7784BDE2CF84B58F7DFBCF77
:100690008091B0008F778093B000D9CF8091B00067
:1006A0008F7DF9CF809190008F7780939000CFCF8E
:1006B000809190008F7DF9CF80919000877FF5CF5A
:1006C0008091A0008F778093A000C1CF8091A0007F
:1006D0008F7DF9CF8091A000877FF5CF8091200199
:1006E0008F7780932001B3CF809120018F7DF9CF48
:1006F00080912001877FF5CF4E2BB8CF3FB7F8947C
:100700008091431E9091441EA091451EB091461EBB
:1007100026B5A89B05C02F3F19F00196A11DB11D5C
:100720003FBFBA2FA92F982F8827BC01CD01620F98
:10073000711D811D911D42E0660F771F881F991F53
:100740004A95D1F708958F929F92AF92BF92CF9220
:10075000DF92EF92FF924B015C010E947E036B01DE
:100760007C010E947E036C197D098E099F09683EF9
:10077000734081059105A8F321E0821A9108A10830
:10078000B10888EEC80E83E0D81EE11CF11C81146C
:100790009104A104B10429F7FF90EF90DF90CF906E
:1007A000BF90AF909F908F9008950F931F93CF931A
:1007B000DF938C01D0E0C0E061E08EE00E94F202A5
:1007C00064E670E080E090E00E94A30360E08EE0C9
:1007D0000E94F20264E670E080E090E00E94A303D1
:1007E00021960C171D0741F7DF91CF911F910F91B3
:1007F0000895FC0101900020E9F73197AF01481BF3
:10080000590BBC018CE49EE10C947E01CF93DF93E5
:10081000FC0144815581608171818CE49EE10E94DC
:100820007E01EC018FE19EE10E94F9038C0F9D1F78
:10083000DF91CF910895CF93DF93EC018881998167
:10084000009711F00E94A208198218821D821C8252
:100850001B821A82DF91CF910895FC0180819181E2
:10086000009711F00C94A20808950F931F93CF9353
:10087000DF93EC0188819981009759F02A813B81AF
:100880002617370730F081E0DF91CF911F910F914C
:1008900008958B016F5F7F4F0E942B09009759F0DD
:1008A000998388831B830A832C813D81232B59F7ED
:1008B000FC011082E8CF80E0E7CFEF92FF920F9328
:1008C0001F93CF93DF936115710541F480E0DF91B1
:1008D000CF911F910F91FF90EF9008954115510511
:1008E000B1F07B01EC010C811D81040F151FB801D3
:1008F0000E943504882351F3288139818C819D81A0
:10090000B701820F931F0E94150A1D830C8381E09B
:10091000DECFEF92FF920F931F93CF93DF93EC0103
:100920007B018A01BA010E94350481110BC0CE01FE
:100930000E941B04CE01DF91CF911F910F91FF9078
:10094000EF9008951D830C83B701888199810E94DF
:10095000150AF0CF1F920F920FB60F9211240BB60B
:100960000F922F933F934F935F936F937F938F9348
:100970009F93AF93BF93EF93FF938CE49EE10E940C
:100980003202FF91EF91BF91AF919F918F917F9133
:100990006F915F914F913F912F910F900BBE0F90F0
:1009A0000FBE0F901F9018951F920F920FB60F92C7
:1009B00011240BB60F922F938F939F93EF93FF9376
:1009C000E0915C1EF0915D1E8081E091621EF091CD
:1009D000631E82FD1DC090818091651E8F5F8F73A5
:1009E0002091661E821741F0E091651EF0E0E45B05
:1009F000F14E958F8093651EFF91EF919F918F919E
:100A00002F910F900BBE0F900FBE0F901F90189557
:100A10008081F2CF1F920F920FB60F9211242F9365
:100A20003F938F939F93AF93BF938091481E909174
:100A3000491EA0914A1EB0914B1E3091421E23E0E8
:100A4000230F2D3758F50196A11DB11D2093421E8D
:100A50008093481E9093491EA0934A1EB0934B1E4C
:100A60008091431E9091441EA091451EB091461E58
:100A70000196A11DB11D8093431E9093441EA09327
:100A8000451EB093461EBF91AF919F918F913F91AC
:100A90002F910F900FBE0F901F90189526E8230FEF
:100AA0000296A11DB11DD2CFECE4FEE113821282A9
:100AB00088EE93E0A0E0B0E084839583A683B783BB
:100AC00081E19EE19183808385EC90E09587848726
:100AD00084EC90E09787868780EC90E0918B808B08
:100AE00081EC90E0938B828B82EC90E0958B848BF1
:100AF00086EC90E0978B868B118E128E138E148E5F
:100B0000E9EEFEE1118210821382128215821482B4
:100B100050E040E061E27EE1CF010C948904CF9384
:100B2000DF93CDB7DEB768970FB6F894DEBF0FBE80
:100B3000CDBF789484B5826084BD84B5816084BD66
:100B400085B5826085BD85B5816085BD80916E006B
:100B5000816080936E00109281008091810082609C
:100B600080938100809181008160809381008091D9
:100B700080008160809380008091B10084608093C8
:100B8000B1008091B00081608093B00080919100AD
:100B900082608093910080919100816080939100A8
:100BA000809190008160809390008091A10082608C
:100BB0008093A1008091A10081608093A100809129
:100BC000A00081608093A0008091210182608093C9
:100BD0002101809121018160809321018091200178
:100BE00081608093200180917A00846080937A00F4
:100BF00080917A00826080937A0080917A0081608F
:100C000080937A0080917A00806880937A001092B5
:100C1000C100E0915C1EF0915D1E82E08083E09156
:100C2000581EF091591E1082E0915A1EF0915B1EE1
:100C30008FEC80831092641EE091601EF091611E23
:100C400086E08083E0915E1EF0915F1E808180616E
:100C50008083E0915E1EF0915F1E808188608083BA
:100C6000E0915E1EF0915F1E808180688083E0913C
:100C70005E1EF0915F1E80818F7D80834FEF442E3A
:100C80004DE1542E5DE0E52E5EE1F52E8201F80186
:100C900080810E5F1F4F0E945E01E016F106B9F7DA
:100CA0008EE00E945E0180ED97E0A0E0B0E08093CE
:100CB000501E9093511EA093521EB093531E8E014E
:100CC0000F5F1F4F3DE4332E8CE49EE10E941C0217
:100CD000181619060CF056C11A8219821C821B8242
:100CE0001E821D8250E040E061E27EE1C8010E9468
:100CF00089040E94CE0197FD0EC08A30910559F0FB
:100D00008B8B1C8A41E050E0BE016D5E7F4FC801B5
:100D10000E945D04EECF8091E91E9091EA1E00973B
:100D200009F4FDC069817A816115710509F4F5C086
:100D30004091EB1E5091EC1E2D813E8142175307CE
:100D400008F4EBC00E94150A8D819E819093EE1EDF
:100D50008093ED1E1E821D82C8010E942D041A82FE
:100D600019821C821B821E821D824EE050E062E2CC
:100D70007EE1C8010E9489044091ED1E5091EE1E53
:100D80006091E91E7091EA1EC8010E945D04811104
:100D900003C0C8010E941B04C8010E940604C801C8
:100DA0000E942D0482E090E00E94D503D12CC12C3A
:100DB0008091ED1E9091EE1EC816D90608F0CFC0A6
:100DC000E091E91EF091EA1E309709F0BFC0109241
:100DD000471EE7E4FEE16081E62E062E000CFF08C8
:100DE000F1E2EF16F1040CF494C08CE49EE10E9451
:100DF00054021C8A1B8A1E8A1D8A188E1F8A4AE08A
:100E0000B801C7010E94C907F80101900020E9F765
:100E10003197AF01401B510BB801CE0143960E94A0
:100E200089041A8219821C821B821E821D8242E062
:100E300050E061E37EE1C8010E9489044F89588D2A
:100E40006B897C89C8010E945D04811103C0C801BF
:100E50000E941B0443E050E064E37EE1C8010E946D
:100E60005D04811103C0C8010E941B04C8010E94D7
:100E70000604C8010E942D04CE0143960E942D0451
:100E800081E2E81AF1083E9C90013F9C300D11244C
:100E9000F901E45BFD4F7F012BE0822E912C9FEF47
:100EA000692E9DE1792EB12CA12CF3018081F2E015
:100EB0006F0E711CF701EA0DFB1D9081911149C065
:100EC00060E00E94F2028FE29EE10E94F9038FEF40
:100ED000A81AB80A97E0A916B10439F78FE19EE184
:100EE0000E94F90364EF71E080E090E00E94A303A8
:100EF000E1E08E1A9108F7E0EF1AF10881149104ED
:100F000071F68AE39EE10E94F9038FE19EE10E945F
:100F1000F9038FEFC81AD80A4BCF0E94A208898123
:100F20009A819093EA1E8093E91E8B819C81909315
:100F3000EC1E8093EB1E8D819E819093EE1E80931C
:100F4000ED1E1A8219821C821B8204CFEC0DFD1D3E
:100F500042CF61E00E94F20288E39EE1B6CF83E0D7
:100F600090E00E94D5038DE0E82E8EE1F82E92E00D
:100F7000E91AF10860E0F70180810E94F2024E1444
:100F80005F04A9F70E94C1029FCE89EE9EE10C94F6
:100F90002D04BB274A3031F4992322F4BDE2909509
:100FA00081959F4F0C94D507BB27FB015527AA2796
:100FB000880F991FAA1FA41710F0A41B83955051E6
:100FC000B9F7A05DAA3308F0A95DA193009779F75E
:100FD000B111B1931192CB010C94EE07DC01FC012D
:100FE000672F71917723E1F7329704C07C916D935D
:100FF00070836291AE17BF07C8F30895EE0FFF1F0D
:10100000881F8BBF0790F691E02D19940F931F93C3
:10101000CF93DF938230910510F482E090E0E0916D
:10102000F11EF091F21E30E020E0B0E0A0E0309739
:1010300099F42115310509F44AC0281B390B2430D5
:101040003105D8F58A819B816115710589F1FB0114
:1010500093838283FE0111C04081518102811381FB
:1010600048175907E0F04817590799F4109761F0AD
:1010700012960C93129713961C933296CF01DF9120
:10108000CF911F910F9108950093F11E1093F21EBE
:10109000F4CF2115310551F04217530738F0A9015B
:1010A000DB019A01BD01DF01F801C1CFEF01F9CFEA
:1010B0009093F21E8093F11ECDCFFE01E20FF31F3D
:1010C000819391932250310939832883D7CF20917E
:1010D000EF1E3091F01E232B41F42091020230913B
:1010E00003023093F01E2093EF1E209100023091F6
:1010F00001022115310541F42DB73EB7409104029C
:1011000050910502241B350BE091EF1EF091F01E6B
:10111000E217F307A0F42E1B3F0B2817390778F0CE
:10112000AC014E5F5F4F2417350748F04E0F5F1F2D
:101130005093F01E4093EF1E819391939FCFF0E068
:10114000E0E09CCFCF93DF930097E9F0FC0132976A
:1011500013821282A091F11EB091F21EED0130E0D7
:1011600020E01097A1F420813181820F931F2091FC
:10117000EF1E3091F01E2817390709F061C0F09377
:10118000F01EE093EF1EDF91CF910895EA01CE1794
:10119000DF07E8F54A815B819E0141155105B1F7F2
:1011A000E901FB83EA8349915991C40FD51FEC17DC
:1011B000FD0761F4808191810296840F951FE901FA
:1011C00099838883828193819B838A83F0E0E0E026
:1011D00012968D919C9113970097B9F52D913C91A2
:1011E0001197CD010296820F931F2091EF1E30912F
:1011F000F01E2817390739F6309751F51092F21E74
:101200001092F11EB093F01EA093EF1EBCCFD383BB
:10121000C28340815181840F951FC817D90761F49B
:101220004E5F5F4F88819981480F591F51834083DA
:101230008A819B81938382832115310509F0B0CF88
:10124000F093F21EE093F11E9ECFFD01DC01C0CFB2
:1012500013821282D7CF4F925F926F927F928F92BA
:101260009F92AF92BF92CF92DF92EF92FF920F9335
:101270001F93CF93DF938C01009799F4CB01DF91FB
:10128000CF911F910F91FF90EF90DF90CF90BF9083
:10129000AF909F908F907F906F905F904F900C9445
:1012A0000608FC01E60FF71F9C0122503109E217E6
:1012B000F30708F4AEC0D901CD91DC911197C617A0
:1012C000D70720F1C530D10578F0CE0104978617F5
:1012D000970750F0C61BD70B2297C193D1936D93FC
:1012E0007C93CF010E94A208C801DF91CF911F918A
:1012F0000F91FF90EF90DF90CF90BF90AF909F90B5
:101300008F907F906F905F904F9008955B01AC1A23
:10131000BD0A4C018C0E9D1EA091F11EB091F21ED3
:10132000512C412CF12CE12C109731F58091EF1EBE
:101330009091F01E8815990509F05CC04616570675
:1013400008F058C08091000290910102009741F48A
:101350008DB79EB74091040250910502841B950BF6
:10136000E817F90708F055C0F093F01EE093EF1E60
:10137000F90171836083B8CF8D919C91119712967A
:101380006C90129713967C901397A815B90559F590
:101390006C0142E0C40ED11CCA14DB0420F1AC0184
:1013A0004A195B09DA011296159780F062827382FE
:1013B00051834083D9016D937C93E114F10471F062
:1013C000D7011396FC93EE9312978ECF22968C0F33
:1013D0009D1FF90191838083F301EFCFF093F21EFB
:1013E000E093F11E81CF4816590608F42C017D01C7
:1013F000D3019ACFCB010E9406087C01009749F0E7
:10140000AE01B8010E940C0AC8010E94A20887011F
:101410006BCF10E000E068CFFB01DC0102C001905F
:101420000D9241505040D8F70895FB01DC01019026
:101430000D920020E1F7089511E0CAE2D1E000E04A
:1014400006C0802FFE010E94FE072196011DCB32AF
:0C145000D10780E00807A9F7F894FFCF4F
:10145C000000F31E800000000000000000000000EF
:10146C00010000000000000100000000000001006D
:10147C00000000000001000000000000010000005E
:10148C00000000000000000000000101000000004E
:10149C00000101000000000000000000000000003E
:1014AC00000000000000000000000000010001002E
:1014BC00000000010001000000000100010000001C
:1014CC000000000000000000000000000000000010
:1014DC000000000000000000000000000000000000
:1014EC0000000000000000000000000000000000F0
:1014FC0000000000000000000001000100000000DE
:10150C0001000100000101010101010000000100C6
:10151C0001000000010001000000010101010101B6
:10152C0000000100010000000001000100000000AB
:10153C00000000000000000000000000000000009F
:10154C000100000000000101010000000100010089
:10155C00000000010001000000000001010000007B
:10156C00000000010100000000000100010000006B
:10157C000001000100000101010100000000000158
:10158C00000000000000000000000000000000004F
:10159C000001010100000001010001000001000137
:1015AC000001000100000101010100000000000029
:1015BC000101010000000101000100000100010017
:1015CC00010001000001010100000000000000000A
:1015DC0000000000000000000000000000000000FF
:1015EC0001010100000001000001000000010000E9
:1015FC0001000000000101000000000100010001D9
:10160C0000010000010001000100000001000000C9
:10161C0001010100010100000000000000000000B9
:10162C0000000000000000000000000000000100AD
:10163C00000000000001000000000000010000009C
:10164C00000000000000000000000000000000008E
:10165C00000000000000000000000000000000007E
:10166C00000000000000000000000000000000006E
:10167C00000000000001000000000001000000005C
:10168C00000001000000000001000000000000014B
:10169C00000000000000010000000000000100003C
:1016AC00000000000100000000000000010000002C
:1016BC00000000010000000000000001000000001C
:1016CC00010000000000000001000000000000010B
:1016DC0000000000000000010000000000000100FC
:1016EC0000000000000100000000000001000000EC
:1016FC0000000001000000000001000000000000DC
:10170C0001000000000001000000000000000000CB
:10171C0000000000000100000000010001000100B9
:10172C0000000101010000000100010001000000A7
:10173C00000100000000000000000000000000009C
:10174C00000000000000000000000000000000008D
:10175C00000000000000000000000000000000007D
:10176C00000000000000000000000000000000006D
:10177C000100000000000001000000000101010157
:10178C00010000000001000000000000010000004A
:10179C00000000000000000000000000000000003D
:1017AC00000000000000000000000000000000002D
:1017BC00000000000000000000000000000000001D
:1017CC00000000000000000000000000000000000D
:1017DC0000000000000000000101000000000001FA
:1017EC0001000000000001010000000001010000E8
:1017FC0000000000000000000000000000000000DD
:10180C0000000000000000000000000000000000CC
:10181C0000000000000000010101010000000000B8
:10182C0000000000000000000000000000000000AC
:10183C00000000000000000000000000000000009C
:10184C00000000000000000000000000000000008C
:10185C00000000000000000000000000000000007C
:10186C00000000000000000000000000000000006C
:10187C000000010100000000000101000000000058
:10188C00000000000000000000000000000000004C
:10189C00000000000000000001000000000001003A
:1018AC00000000000001000000000001000000002A
:1018BC000000010000000000000100000000000119
:1018CC00000000000000010000000000010000000A
:1018DC0000000000000000000000000000000000FC
:1018EC0000000101010100000001000001010001E4
:1018FC0000000001010001000001000100010001D5
:10190C0000000100010100000001000101000001C4
:10191C0000000001010101000000000000000000B7
:10192C0000000000000000000000000000000001AA
:10193C000100000000010001000000000000010097
:10194C000000000000010000000000000100000089
:10195C000000000100000000000001000000000178
:10196C000101010100000000000000000000000067
:10197C000000000000000000000000000101010058
:10198C000000010000000100000000000001000048
:10199C000000000001000000000001000000000039
:1019AC000100000000000100000000000101010125
:1019BC00010000000000000000000000000000001A
:1019CC000000000000000000010101010000000007
:1019DC0000000001000000000000010000000101F7
:1019EC0001000000000000000100000000000001E8
:1019FC0000000000000001000001010101000000D6
:101A0C0000000000000000000000000000000000CA
:101A1C0000000000000000010100000000000101B6
:101A2C0000000000010001000000010000010000A6
:101A3C000100000001000001010101010100000092
:101A4C000000010000000000000100000000000088
:101A5C00000000000000000000000000000000007A
:101A6C000000010101010100000100000000000064
:101A7C000100000000000001010101000000000055
:101A8C000000010000000000000100000000000147
:101A9C000100000101010100000000000000000035
:101AAC00000000000000000000000000000000002A
:101ABC000101010000000001000000000001000015
:101ACC000000000001010101000000010000000104
:101ADC0000000100000001000001000000010000F6
:101AEC0000010101000000000000000000000000E7
:101AFC0000000000000000000000000001010101D6
:101B0C0001000000000000010000000000010000C6
:101B1C0000000000010000000000010000000000B7
:101B2C0000010000000000010100000000000100A5
:101B3C000000000000000000000000000000000099
:101B4C000000000000000000000001010100000086
:101B5C000100000001000001010000010000000173
:101B6C000101000000010100010100000100000062
:101B7C000100000100000001000000010101000053
:101B8C000000000000000000000000000000000049
:101B9C000000000000000001010100000001000035
:101BAC000001000001000000010000010000000124
:101BBC000000000101010100000000000001000014
:101BCC000000000100000001010100000000000005
:101BDC0000000000000000000000000000000000F9
:101BEC0000000000000000000000000000000000E9
:101BFC0000000101000000000001010000000000D5
:101C0C0000000000000000000000000000000101C6
:101C1C0000000000000101000000000000000000B6
:101C2C0000000000000000000000000000000000A8
:101C3C000000000000000000000000000000000197
:101C4C000100000000000101000000000000000085
:101C5C000000000000000000000000010100000076
:101C6C000000010100000000000101000000000163
:101C7C000100000000000000000000000000000057
:101C8C000000000000000000010000000001010045
:101C9C000000000100000000000100000000000036
:101CAC000001000000000000000101000000000025
:101CBC000000010000000000000000000000000017
:101CCC000000000000000000000000000000000008
:101CDC0000000000000000000000000000000001F7
:101CEC0001010101000000000000000000010101E1
:101CFC0001010000000000000000000000000000D6
:101D0C0000000000000000000000000000000000C7
:101D1C0000000000000000000000000000000100B6
:101D2C0000000000000001010000000000000001A4
:101D3C000000000000000001000000000001000095
:101D4C000000010100000000010000000000000084
:101D5C000000000000000000000000000000000077
:101D6C000000000000010100000000000000010163
:101D7C000000000000000100000000000001000055
:101D8C000001010100000000000000000000000143
:101D9C000100000000000101000000000000000034
:101DAC000000000000000000000000000000000027
:101DBC000000000101010100000101000001000010
:101DCC000100000000000100000101000001000101
:101DDC0000010000010001000100000100010101EF
:101DEC0001000100000000000000010000000000E4
:101DFC0000010101010000000000000000000000D3
:101E0C0001000000000001000100000000010001C1
:101E1C0000000000010001000000010000000100B2
:101E2C00000101010101000001000000010000019E
:101E3C000000000100000000000000000000000095
:101E4C000000000000000000000000010101010082
:101E5C000000010000000100000100000001000072
:101E6C00010101010000000100000001000001005F
:101E7C00000001000001000000010000010101014F
:101E8C000000000000000000000000000000000046
:101E9C000000000000000000000001010100000033
:101EAC000100000000000100000000000001000023
:101EBC000000000001000000000000010000000014
:101ECC000000010000000000000001010101000001
:101EDC0000000000000000000000000000000000F6
:101EEC0000000000000101010100000001000000E1
:101EFC0001000001000000010000010000000100D1
:101F0C0000010000000100000100000001000001C0
:101F1C0000000000000001010101000000000000B1
:101F2C0000000000000000000000000000000000A5
:101F3C000000010101010000000100000000000090
:101F4C00010000000000000101010100000001007F
:101F5C000000000000010000000000000100000073
:101F6C000000000101010100000000000000000061
:101F7C000000000000000000000000000000000154
:101F8C000101010000000100000000000001000040
:101F9C000000000001010101000000010000000030
:101FAC000000010000000000000100000000000023
:101FBC000100000000000000000000000000000014
:101FCC000000000000000000000000000001010102
:101FDC0001000001000000000001000000000000F2
:101FEC0001000001010100010000000001000100DE
:101FFC0000000001000001000000010000000101D0
:10200C0001010000000000000000000000000000C2
:10201C0000000000000000000001000000010000B2
:10202C00010000000100000100000001000001019E
:10203C00010101000001000000010000010000008E
:10204C00010000010000000100000100000001007F
:10205C000000000000000000000000000000000074
:10206C00000000000000010101010100000000015E
:10207C000000000000000100000000000001000052
:10208C000000000001000000000000010000000042
:10209C00000001000000000101010101000000002E
:1020AC000000000000000000000000000000000024
:1020BC00000000010101010000000000000100000F
:1020CC000000000001000000000000010000000002
:1020DC0000000100000000000001000000000000F2
:1020EC0001000000010101000000000000000000E0
:1020FC0000000000000000000000000000000000D4
:10210C0001000000010000010000010000000100BE
:10211C0001000000000101000000000001010000AE
:10212C00000000010001000000000100000100009F
:10213C000001000000010000000000000000000091
:10214C000000000000000000000000000001000082
:10215C000000000001000000000000010000000071
:10216C000000010000000000000100000000000061
:10217C00010000000000000100000000000001014F
:10218C000101000000000000000000000000000041
:10219C000000000000000000000001000000010031
:1021AC00000100000001000001010001010000011C
:1021BC00010001010000010001000100000100000C
:1021CC0000010000010000000100000100000001FE
:1021DC0000000000000000000000000000000000F3
:1021EC0000000000000000010100000100000101DE
:1021FC0000000100000101000001000001000100CD
:10220C0001000001000100010000010000010100BB
:10221C0000010000010100000100000101000000AC
:10222C0000000000000000000000000000000000A2
:10223C00000000000101010100000100000000018C
:10224C00000100000000010001000000000100017D
:10225C00000000000100010000000001000100006E
:10226C00000001000001010101000000000000005D
:10227C000000000000000000000000000000000052
:10228C00000101010100000001000000010000013B
:10229C00000000010000010000000100000101012C
:1022AC00010000000100000000000001000000001F
:1022BC000000010000000000000000000000000011
:1022CC000000000000000000000000000000010100
:1022DC0001010000000100000101000100000000EC
:1022EC0001000100000000010001000000000100DD
:1022FC0001000000000100010100000100000001CC
:10230C0001010100000000010000000000000001BC
:10231C0001010000000000000000000101010100AB
:10232C00000001000000010000010000000100009D
:10233C00010000000100000101010100000001008A
:10234C00000100000001000000010000010000007D
:10235C00010100000000000000000000000000006F
:10236C00000000000000000000010101000000015D
:10237C00000000000000010000000000000001014E
:10238C00000000000000000100000000000000013F
:10239C00000000000000010000010101010000002C
:1023AC000000000000000000000000000000000021
:1023BC00000000000001010101010000000001000B
:1023CC0000000000000100000000000001000000FF
:1023DC0000000001000000000000010000000000EF
:1023EC0000010000000000000100000000000000DF
:1023FC0000000000000000000000000000000000D1
:10240C0000000100000001000001000000010000BC
:10241C0001000000010000010000000100000100AB
:10242C00000001000001000000010000010000009C
:10243C00010000000101010000000000000000008C
:10244C00000000000000000000000000000000017F
:10245C00000000010000010000000100000100006C
:10246C00000100000101000100000000010001005A
:10247C00000000010001000000000100010000004C
:10248C00000001000000000000000000000000003F
:10249C00000000000000000000000000010000002F
:1024AC00010000010000000100000100000001001B
:1024BC000001000100010000010100010100000108
:1024CC0001000101000001010001010000010000F8
:1024DC0000010000000000000000000000000000EF
:1024EC0000000000000000000101000001010000DC
:1024FC0001000001000000000101010000000001CA
:10250C0001000000000001010000000000010001BA
:10251C0000000001000000010001010000000101A9
:10252C00000000000000000000000000000000009F
:10253C00000000000001000000000001000100008C
:10254C000001000001010001010000000100010078
:10255C00000000000100000000000001000000006D
:10256C00000001000000000000010000000000005D
:10257C00000000000000000000000000000000004F
:10258C000000000101010101000000000001000039
:10259C00000000000100000000000100000000002D
:1025AC00000100000000000100000000000001001C
:1025BC00000000000101010101000000000000000A
:1025CC0000000000000000000000000000000000FF
:1025DC0000010101000000000100000000000001EA
:1025EC0000000000000001000000000000010000DD
:1025FC0000000000010000000000000100000000CD
:10260C0000000100000000000001000000000000BC
:10261C0001010100000000000000000000010000AA
:10262C00000000000001000000000000010000009C
:10263C00000000000100000000000001000000008C
:10264C00000001000000000000000100000000007C
:10265C00000100000000000000010000000000006C
:10266C00000000000000000000000001010100005B
:10267C00000000000100000000000001000000004C
:10268C00000001000000000000010000000000003C
:10269C00010000000000000100000000000001002B
:1026AC00000000000001000000000101010000001A
:1026BC00000000000000000000010000000000010C
:1026CC0000010000000100000001000001000000FA
:1026DC0001000000000000000000000000000000ED
:1026EC0000000000000000000000000000000000DE
:1026FC0000000000000000000000000000000000CE
:10270C0000000000000000000000000000000000BD
:10271C0000000000000000000000000000000000AD
:10272C00000000000000000000000000000000009D
:10273C00000000000000000000000000000000008D
:10274C000000010101010101010001010000000074
:10275C00000001010000000000000000000000006B
:10276C00000000000000000000000000000000005D
:10277C00000000000000000000000000000000004D
:10278C00000000000000000000000000000000003D
:10279C00000000000000000000000000000000002D
:1027AC00000000000000000000000000000101011A
:1027BC000000000000000001000000010101010008
:1027CC0000010000000100000100000001000000F9
:1027DC0001010101000000000000000000000000E9
:1027EC0000000000000000000000000100000000DC
:1027FC0000000100000000000001010101000000C8
:10280C0001000000010000010000000100000100B7
:10281C0000000100000100000001000001010101A5
:10282C00000000000000000000000000000000009C
:10283C00000000000000000000000000000000008C
:10284C000000000000000001010101000001000077
:10285C00000000000100000000000001000000006A
:10286C000000010000000000000001010101000057
:10287C00000000000000000000000000000000004C
:10288C00000000000000000000010000000000003B
:10289C000100000001010101000001000000010025
:1028AC000001000000010000010000000100000117
:1028BC000000000100000001010101000000000007
:1028CC0000000000000000000000000000000000FC
:1028DC0000000000000000000000000000000000EC
:1028EC0000010101000000010000000100000101D5
:1028FC0001010100000100000000000001000000C7
:10290C0000000000010101010000000000000000B7
:10291C0000000000000000000000000000000000AB
:10292C000001010100000001000000000000010096
:10293C000000000101010101000000000100000085
:10294C000000000100000000000001000000000079
:10295C00000100000000000000000000000000006A
:10296C00000000000000000000000000000000005B
:10297C000000000000000000000000010101010146
:10298C000001000000010000010000000100000136
:10299C000101010000000001000000000001010124
:1029AC000101000001000000010000010101010013
:1029BC00000000000000000000010000000000000A
:1029CC0001000000000000010001010000000101F5
:1029DC0000000100000100000001000001000000E7
:1029EC0001000001000000010000010000000100D6
:1029FC0000000000000000000000000000000000CB
:102A0C0000010100000000000101000000000000B6
:102A1C0000000000010101000000000000010000A6
:102A2C000000000001000000000000010000000098
:102A3C000000010000000001010101010000000084
:102A4C000000000000000000000000000000010178
:102A5C000000000000010100000000000000000068
:102A6C000001010101000000000000010000000055
:102A7C000000010000000000000100000000000048
:102A8C000100000000000001000000000000010037
:102A9C000000010101000000000000000000000027
:102AAC000100000000000001000000000000010017
:102ABC000001000000010001000000000101000005
:102ACC0000000001000100000000010000010000F6
:102ADC0000010000000100000000000000000000E8
:102AEC0000000000000000000000000000010101D7
:102AFC0000000000000001000000000000010000C8
:102B0C0000000000010000000000000100000000B7
:102B1C0000000100000000000001000000000101A5
:102B2C000101010000000000000000000000000096
:102B3C000000000000000000000000000000000089
:102B4C000000000000000000010101010100000173
:102B5C000001000100000100010001000001000162
:102B6C000001000001000100010000010001000152
:102B7C000000000000000000000000000000000049
:102B8C000000000000000000000000000000000039
:102B9C000000000000010001010000000101000024
:102BAC000100000100000001000001000000010014
:102BBC000001000000010000010000000100000005
:102BCC0000000000000000000000000000000000F9
:102BDC0000000000000000000000000000000000E9
:102BEC0000000001010100000001000000010000D4
:102BFC0001000000010000010000000100000100C4
:102C0C0000000100000001010100000000000000B4
:102C1C0000000000000000000000000000000000A8
:102C2C000000000000000000000000000000000197
:102C3C000001010000000101000001000001000082
:102C4C000001000001000000010000010000000173
:102C5C000000010101010000000100000000000063
:102C6C000100000000000000000000000000000057
:102C7C000000000000000000000000000001010145
:102C8C000100000100000001000001000000010033
:102C9C000001000000010000010000010100000023
:102CAC000101000100000000000001000000000014
:102CBC000001000000000000000000000000000007
:102CCC0000000000000000000001000101010000F4
:102CDC0001010000010000010000000000000100E3
:102CEC0000000000000100000000000001000000D6
:102CFC0000000000000000000000000000000000C8
:102D0C0000000000000000000000000000000000B7
:102D1C0000000000000000010101000000010000A3
:102D2C000000000001010000000000000001010093
:102D3C000000000000010000000101010000000083
:102D4C000000000000000000000000000000000077
:102D5C000000000000000100000000000001000065
:102D6C000000010101010100000000010000000051
:102D7C000000010000000000000100000000000045
:102D8C000100000000000001010100000000000033
:102D9C000000000000000000000000000000000027
:102DAC000000000000000000000000000000000017
:102DBC000100000001000001000000010000010002
:102DCC0000000100000100000001000001000001F2
:102DDC0001000000010100010000000000000000E3
:102DEC0000000000000000000000000000000000D7
:102DFC0000000000000000000000000000010000C6
:102E0C0000010000010000000100000100000001B1
:102E1C0000000001000100000000010001000000A2
:102E2C000000010000000000000000000000000095
:102E3C000000000000000000000000000000000086
:102E4C000000000000000000000001000000010074
:102E5C00000100010001000001000100010000015F
:102E6C00000100010000010100010100000001004F
:102E7C000100000000000000000000000000000045
:102E8C000000000000000000000000000000000036
:102E9C000000000000000001010001010000000121
:102EAC000001000000000001000000000001000112
:102EBC000000000100000001000001000000010002
:102ECC0000000000000000000000000000000000F6
:102EDC0000000000000000000000000000000000E6
:102EEC0000000000010000000100000100000001D2
:102EFC0000000001000100000000010001000000C2
:102F0C0000010100000000000001000000000001B1
:102F1C0000000000010101000000000000000000A2
:102F2C000000000000000000000000000000000095
:102F3C00000101010101000000000001000000007F
:102F4C000001000000000000010000000000010072
:102F5C000000000001010101010000000000000060
:102F6C000000000000000000000000000000000055
:102F7C000000000101000000000100000000000042
:102F8C000100000000000001000000000101000031
:102F9C000000000000010000000000000100000023
:102FAC000000000100000000000001000000000013
:102FBC000000010100000000010000000000000101
:102FCC0000000000000001000000000000010000F3
:102FDC0000000000010000000000000100000000E3
:102FEC0000000100000000000001000000000000D3
:102FFC0001000000000000010000000000000100C2
:10300C0000000000000000000000010100000000B2
:10301C0000000001000000000000010000000000A2
:10302C000001000000000000000101000000000190
:10303C000000000000000100000000000001000082
:10304C00000000000100000000010100000000155C
:10305C0000140013001200110010000F00000000FB
:10306C000054027E01AB01A1021C02BA010E020D3A
:10307C000A003E205553455220494E5055543A2093
:10308C000020280029203A002A002D2D2D2D2D2D31
:02309C002D0005
:00000001FF
