:100000000C9438010C9469010C9469010C946901F9
:100010000C9469010C9469010C9469010C946901B8
:100020000C9469010C9469010C9469010C946901A8
:100030000C9469010C9469010C9469010C94690198
:100040000C9469010C948B080C9469010C9469015F
:100050000C9469010C9469010C9469010C94B70724
:100060000C9469010C9469010C9469010C94690168
:100070000C9469010C9469010C9469010C94690158
:100080000C945D080C9469010C9469010C9469014D
:100090000C9469010C9469010C9469010C94690138
:1000A0000C9469010C9469010C942F080C9469015B
:1000B0000C9469010C9469010C9469010C94010879
:1000C0000C9469010C9469010C9469010C94690108
:1000D0000C9469010C9469010C9469010C946901F8
:1000E0000C9469010C944F020C94B1070C944902D2
:1000F0000C947C020C946E020C9480020C94A60565
:100100000C9476020C9457020C9472020C948D0B92
:100110000C9453020C94EC0A0C94A5050C942C033B
:100120000C948E020C94BB020C945B020C948A0219
:100130000C94FE010C9484020C94EC020C945E026C
:100140000C9489020C9464020C9468020000210053
:10015000240027002A002D00300033000101000098
:10016000040107010A0100002200250028002B00DD
:100170002E003100340002010000050108010B01CE
:10018000000020002300260029002C002F00320050
:100190000001000003010601090105050505070529
:1001A00008080808020202020A0A080804040404F3
:1001B000010101010101010103030303030303031F
:1001C000040707070C0C0C0C0C0C0C0C02020202AE
:1001D00006060606060606060B0B0B0B0B0B0B0B97
:1001E0000102102020080810204010204080020149
:1001F000020108040201010204081020408080402E
:10020000201008040201800402018040201008042C
:1002100002010804020101020408102040800102CA
:1002200004081020408000000A0B02090C0D0E0883
:1002300007030401000000000000000000000000AF
:1002400000000000000000000000000000000000AE
:10025000000012111000000000000000000000006B
:10026000000000000000000000000000EC0A8D0B00
:1002700011241FBECFEFD1E2DEBFCDBF00E00CBF27
:1002800012E0A0E0B2E0E0E4FDE100E00BBF02C05C
:1002900007900D92A835B107D9F723E0A8E5B2E0A1
:1002A00001C01D92AC38B207E1F711E0C7E3D1E01D
:1002B00000E006C021970109802FFE010E94550C25
:1002C000C633D10780E00807A9F70E94B9080C944B
:1002D0008E0E0C94000096E0899FD0011124A55049
:1002E000BD4F90967C936E935F9791E091969C930F
:1002F0009197E0916803F0916903909167039923C6
:1003000039F0309751F0811108C08091170319948A
:10031000309719F05C968C91FACF0895CF92DF92C6
:10032000EF92FF920F931F9396E0899FF0011124A3
:10033000E550FD4F11A2278D30A12130310551F13B
:1003400078F02230310509F451C02330310509F429
:1003500052C01F910F91FF90EF90DF90CF900895C2
:100360006623B9F361E070E00E946B012FB7F89447
:100370008091F7029091F802A091F902B091FA02EF
:100380002FBF8093530390935403A0935503B093CE
:100390005603DFCF9FB7F894C090F702D090F802D1
:1003A000E090F902F090FA029FBF00915303109180
:1003B00054032091550330915603C01AD10AE20A22
:1003C000F30A009165031091660330E020E00C15FC
:1003D0001D052E053F0550F462E070E01F910F915E
:1003E000FF90EF90DF90CF900C946B016111B1CF33
:1003F00063E070E0F3CF70E060E0F0CFAF92BF92C7
:10040000CF92DF92EF92FF920F931F93CF93DF93E0
:100410006C017B018B01040F151FEB015E01AE180F
:10042000BF08C017D10759F06991D601ED91FC9131
:100430000190F081E02DC6011995892B79F7C5014E
:10044000DF91CF911F910F91FF90EF90DF90CF90B0
:10045000BF90AF9008958150823108F05AC0E82FC4
:10046000F0E08827E95CFD4F8F4F0C94550C570244
:100470005B0249024F02530289025E026402680273
:100480006E02720276027C028002890284028A0273
:100490008E02809180008F778093800008958091F4
:1004A00080008F7DF9CF80918000877FF5CF84B564
:1004B0008F7784BD089584B58F7DFBCF8091B00088
:1004C0008F778093B00008958091B0008F7DF9CF31
:1004D000809190008F778093900008958091900094
:1004E0008F7DF9CF80919000877FF5CF8091A0001C
:1004F0008F778093A00008958091A0008F7DF9CF21
:100500008091A000877FF5CF809120018F77809325
:1005100020010895809120018F7DF9CF80912001E5
:10052000877FF5CFCF93DF93282F30E0F901EA5D85
:10053000FD4F8491F901E052FE4FD491F901E65646
:10054000FE4FC491CC23A1F081110E942B02EC2F0D
:10055000F0E0EE0FFF1FE058FE4FA591B491EC9133
:10056000ED2381E090E009F480E0DF91CF910895E0
:1005700080E090E0FACF862F0C9492021F93CF93E5
:10058000DF93282F30E0F901EA5DFD4F8491F901F6
:10059000E052FE4FD491F901E656FE4FC491CC23B0
:1005A000A9F0162F81110E942B02EC2FF0E0EE0F24
:1005B000FF1FEA59FE4FA591B4918FB7F894EC91C3
:1005C000111108C0D095DE23DC938FBFDF91CF914E
:1005D0001F910895DE2BF8CF862F642F0C94BE0256
:1005E000CF93DF9390E0FC01E052FE4F24918656BA
:1005F0009E4FFC0184918823C9F090E0880F991FD9
:10060000FC01E45BFE4FA591B491FC01EA59FE4F59
:10061000C591D49161110DC09FB7F8948C9120952C
:1006200082238C938881282328839FBFDF91CF91D9
:100630000895623051F49FB7F8943C91822F8095D1
:1006400083238C93E8812E2BEFCF8FB7F894EC9116
:100650002E2B2C938FBFEACF862F642F0C94F002A1
:100660002F923F924F925F926F927F928F929F92C2
:10067000AF92BF92CF92DF92EF92FF920F931F93B0
:10068000CF93DF9322242394812C912C54018394C3
:1006900066246A94762C56E0352E209267038FB735
:1006A000F8944091F7025091F8026091F90270912C
:1006B000FA028FBF8091570390915803A09159037C
:1006C000B0915A03481B590B6A0B7B0B8091630353
:1006D00090916403B0E0A0E084179507A607B707E0
:1006E000E0F6C0E080916103C81760F4E0915D031B
:1006F000F0915E03EC0FF11D62E080810E94F00238
:10070000CF5FF0CF512C80916203581608F05FC084
:10071000052D10E0E0915F03F0916003E00FF11F01
:1007200061E080810E94F002E0915F03F09160033C
:10073000E00FF11F60E080810E94BE02D501C4017C
:10074000052C04C0880F991FAA1FBB1F0A94D2F75B
:100750006C017C01E094F094412C80916103481677
:10076000F8F4C42DD0E0E0915D03F0915E03EC0F4E
:10077000FD1F80810E9492022496CC0FDD1FC55080
:10078000DD4F892B41F4888199818C299D2999839A
:1007900088834394E2CF888199818E219F21F7CF6E
:1007A000E0915F03F0916003E00FF11F61E0808151
:1007B0000E94BE0280915F0390916003080F191F91
:1007C00060E0F80180810E94F00253949CCFCBEF4F
:1007D000D2E0FE01878D90A1892B21F4148E768EB4
:1007E000658E11A2369683E0E733F80799F710E09B
:1007F00080916103181708F052C000E0E12EF12C3F
:10080000EE0CFF1CF701ED5FFC4F7F0120916203AE
:10081000021708F042C0F70160817181002E02C00A
:10082000769567950A94E2F7129F90011124200FA4
:10083000311DEBEFF2E080E0458D568D2417350732
:1008400009F470C08F5F36968A30B1F760FF23C01D
:10085000EBEFF2E090E080E0448D411117C0E091B1
:100860005B03F0915C03E20FF31F6081389EF0019F
:10087000399EF00D1124E550FD4F648F368F258F82
:1008800010A2178E61E00E948E0105C00196369677
:100890008A30910509F70F5FB9CF1F5FA9CF80E0BC
:1008A00099A19111892F2696F3E0C733DF07C1F78D
:1008B0009FB7F8944091F7025091F8026091F902C5
:1008C0007091FA029FBF409357035093580360936F
:1008D000590370935A03882309F4DFCE80911C03D7
:1008E000882309F4DACE80911A0390911B030197B3
:1008F00009F0D3CE80911703882309F4CECEDF917F
:10090000CF911F910F91FF90EF90DF90CF90BF900C
:10091000AF909F908F907F906F905F904F903F909F
:100920002F9008956170AFCF3FB7F89480915E0229
:1009300090915F02A0916002B091610226B5A89BE0
:1009400005C02F3F19F00196A11DB11D3FBFBA2F61
:10095000A92F982F8827BC01CD01620F711D811D21
:10096000911D42E0660F771F881F991F4A95D1F7A6
:1009700008958F929F92AF92BF92CF92DF92EF92A3
:10098000FF924B015C010E9494046B017C010E9468
:1009900094046C197D098E099F09683E7340810596
:1009A0009105A8F321E0821A9108A108B10888EE08
:1009B000C80E83E0D81EE11CF11C81149104A1042F
:1009C000B10429F7FF90EF90DF90CF90BF90AF90E8
:1009D0009F908F900895AF92BF92CF92DF92EF9247
:1009E000FF920F931F93CF93DF936B017A01EC017A
:1009F000C75ADD4F28813CE0389F8001399F100D98
:100A00001124A0905802B12C27FF1FC0FB011182B6
:100A1000108288818F5F888388819801280F311D1B
:100A200087FD3A95F6012A153B051CF488818C3028
:100A3000C4F180819181049680349C4908F473C08C
:100A4000F60180819181049670C088819801280FF9
:100A5000311D87FD3A952A153B05DCF68881A801F2
:100A6000480F511D87FD5A95FA01EE0FFF1FE40F45
:100A7000F51FEE59FD4F808186FFCBCF8881F801AD
:100A8000E80FF11D87FDFA95CF01EE0FFF1FE80F6C
:100A9000F91FEE59FD4F808160E08F730E94BE0206
:100AA000B8CF808191812881A801420F511D27FD77
:100AB0005A959A01FA01EE0FFF1FE20FF31FEE594C
:100AC000FD4F21813281820F931FF7019183808333
:100AD00088819801280F311D87FD3A95F901EE0FA5
:100AE000FF1FE20FF31FEE59FD4F808186FF22C0EA
:100AF0008881080F111D87FD1A95F801EE0FFF1F61
:100B0000E00FF11FEE59FD4F808161E08F73DF919F
:100B1000CF911F910F91FF90EF90DF90CF90BF90FA
:100B2000AF900C94BE0280E49CE9F701918380832E
:100B30008FEF8883DF91CF911F910F91FF90EF90FE
:100B4000DF90CF90BF90AF900895089590E080E03F
:100B50000895CF93DF93EC018091820390918303FA
:100B6000009759F020918403309185032C173D079D
:100B700020F081E0DF91CF910895BE016F5F7F4F3C
:100B80000E949D0D009789F09093830380938203C8
:100B9000D0938503C093840320918603309187030B
:100BA000232B39F7FC011082E4CF80E0E3CFCF9311
:100BB000DF93EC010E94A905209182033091830309
:100BC000811117C02115310519F0C9010E94140DBA
:100BD000109283031092820310928703109286036F
:100BE000109285031092840382E893E0DF91CF9105
:100BF0000895D0938703C093860366E572E0C90128
:100C00000E94870EF1CF8F929F92AF92BF920F9367
:100C10001F93CF93DF93CDB7DEB7A1970FB6F894AC
:100C2000DEBF0FBECDBF19A2423008F44AE08E01EC
:100C30000F5D1F4F842E912CB12CA12CA501940186
:100C40000E94040CE62FB901CA01EA3044F5E05DC8
:100C5000D801EE938D01232B242B252B79F790E0DF
:100C600080E0109769F0FD0101900020E9F73197CD
:100C7000AF014A1B5B0BBD018AE693E00E94FE01B7
:100C8000A1960FB6F894DEBF0FBECDBFDF91CF9116
:100C90001F910F91BF90AF909F908F900895E95C46
:100CA000D7CFFC0101900020E9F73197AF01481B35
:100CB000590BBC018AE693E00C94FE01CF93DF93BD
:100CC000EC0160E08E810E94BE0261E08E810E9494
:100CD000BE0260E08E810E94BE028BE891E0019727
:100CE000F1F7DF91CF910895CF92DF92EF92FF92CB
:100CF0000F931F93CF93DF936C017C0187E0E80E85
:100D0000F11CD0E0C0E0062F10E0B8010C2E02C0AC
:100D1000759567950A94E2F76170F70181917F01FB
:100D20000E94BE022196C430D10579F7C601DF9139
:100D3000CF911F910F91FF90EF90DF90CF900C9487
:100D40005E06CF92DF92EF92FF920F931F93CF93A5
:100D5000DF93EC01F62E642F8C810E94BE028D8100
:100D60008F3F19F060E00E94BE020F2D10E08F85CA
:100D700084FF25C06E0187E0C80ED11CF12CE12C48
:100D8000B8010E2C02C0759567950A94E2F7617060
:100D9000F60181916F010E94BE02FFEFEF1AFF0A78
:100DA00088E0E816F10461F7CE01DF91CF911F9141
:100DB0000F91FF90EF90DF90CF900C945E06B801FA
:100DC00084E0759567958A95E1F7CE010E947406D7
:100DD0006F2DCE01DF91CF911F910F91FF90EF907A
:100DE000DF90CF900C94740640E0682F8AE693E081
:100DF0000C94A10681E00E94F4068BE39FE1019729
:100E0000F1F70895CF93DF93823029F4909179031D
:100E100098609093790380937D0310927E0380E421
:100E200080937F0380E18093800380E5809381033A
:100E300061E080916E030E94F00280916F038F3F0A
:100E400019F061E00E94F00261E0809170030E945D
:100E5000F002CAE6D3E09E012A563340809179031E
:100E600084FD0BC084E090E021962817390744F4F4
:100E700061E08E810E94F002EECF88E090E0F4CF36
:100E80008BE39DE00197F1F760E080916E030E9493
:100E9000BE0260E0809170030E94BE0280916F03E9
:100EA0008F3F19F060E00E94BE028091790384FDBB
:100EB00034C063E08AE693E00E947406CBE4D6E493
:100EC000CE010197F1F763E08AE693E00E94740691
:100ED0002197F1F763E08AE693E00E94740683E5C8
:100EE00092E00197F1F762E08AE693E00E947406CF
:100EF0008091790380620E94F40684E080937A03F3
:100F00008CE00E94F4060E94FA0682E080937B0344
:100F100086E0DF91CF910C94F40680620E94F40683
:100F20008BE496E40197F1F78091790380620E9447
:100F3000F40683E592E00197F1F7809179038062EE
:100F40000E94F406D5CF90917D03891710F08FEFA2
:100F5000890FE82FF0E0E659FC4F848980680C94F3
:100F6000F40641E00E94A10681E090E008951F92FE
:100F70000F920FB60F9211242F933F938F939F934D
:100F8000AF93BF938091F7029091F802A091F9027C
:100F9000B091FA0230915D0223E0230F2D3758F50E
:100FA0000196A11DB11D20935D028093F7029093DD
:100FB000F802A093F902B093FA0280915E02909138
:100FC0005F02A0916002B09161020196A11DB11D66
:100FD00080935E0290935F02A0936002B0936102DF
:100FE000BF91AF919F918F913F912F910F900FBE25
:100FF0000F901F90189526E8230F0296A11DB11D92
:10100000D2CF1F920F920FB60F9211240BB60F92F0
:101010002F933F934F935F936F937F938F939F9300
:10102000AF93BF93EF93FF9348E251E064E271E026
:1010300090E080E00E94EB04FF91EF91BF91AF91AF
:101040009F918F917F916F915F914F913F912F91E0
:101050000F900BBE0F900FBE0F901F9018951F9210
:101060000F920FB60F9211240BB60F922F933F934E
:101070004F935F936F937F938F939F93AF93BF93A0
:10108000EF93FF9348EA50E064EA70E083E090E079
:101090000E94EB04FF91EF91BF91AF919F918F91CF
:1010A0007F916F915F914F913F912F910F900BBE68
:1010B0000F900FBE0F901F9018951F920F920FB6B2
:1010C0000F9211240BB60F922F933F934F935F9380
:1010D0006F937F938F939F93AF93BF93EF93FF9300
:1010E00048E950E064E970E082E090E00E94EB049F
:1010F000FF91EF91BF91AF919F918F917F916F91F0
:101100005F914F913F912F910F900BBE0F900FBEAB
:101110000F901F9018951F920F920FB60F921124E7
:101120000BB60F922F933F934F935F936F937F93E1
:101130008F939F93AF93BF93EF93FF9348E850E053
:1011400064E870E081E090E00E94EB04FF91EF9191
:10115000BF91AF919F918F917F916F915F914F91CF
:101160003F912F910F900BBE0F900FBE0F901F90CD
:101170001895CF93DF931F921F92CDB7DEB7789467
:1011800084B5826084BD84B5816084BD85B582608C
:1011900085BD85B5816085BD80916E00816080933D
:1011A0006E001092810080918100826080938100A6
:1011B00080918100816080938100809180008160B6
:1011C000809380008091B10084608093B100809111
:1011D000B00081608093B000809191008260809324
:1011E00091008091910081608093910080919000A6
:1011F0008160809390008091A10082608093A10023
:101200008091A10081608093A1008091A000816005
:101210008093A000809121018260809321018091C0
:101220002101816080932101809120018160809360
:10123000200180917A00846080937A0080917A0006
:10124000826080937A0080917A00816080937A0036
:1012500080917A00806880937A001092C10080911A
:10126000F202803308F054C061E089E00E94F0028D
:101270008091F202282F30E0F901EE0FFF1FE20FFC
:10128000F31FEE59FD4F9081907C996090839EE80A
:101290009093F30294E69093F4022CE0622F0E9464
:1012A000350C829FB001112430E020E0AB01420FE9
:1012B000531FFA01EE0FFF1FE40FF51FEE59FD4F0C
:1012C000908196FD17C02F5F3F4F2C30310571F78D
:1012D000813009F07EC01092800082E0809381000E
:1012E0001092850010928400B19A80916F00826004
:1012F00080936F00E091F2028E2F90E0FC01EE0FE0
:10130000FF1FE80FF91FEE59FD4F80818064808335
:101310001092F6021092F50290E080E00E94D7054C
:1013200082E00E94020784E392E00E94510681E07D
:101330000E94A30781E492E00E94510668EE73E0E8
:1013400080E090E00E94B9040E94FA0680E00E94CA
:10135000A307A8E68A2E99249394A12CB12CB4EB70
:101360004B2E512C612C712C10E0212E10E0312ECF
:1013700086E492E00E9451060E943003182F8D33BC
:1013800009F453C041E0682F8AE693E00E94A10669
:1013900019831A8200918603109187030F5F1F4FF4
:1013A000C8010E94A905882339F320918203309156
:1013B00083038091860390918703BE016F5F7F4F07
:1013C000820F931F0E94870E10938703009386035A
:1013D000D3CF823061F410929000809391001092EC
:1013E00095001092940088BB8093710083CF833066
:1013F00069F41092A00082E08093A1001092A500F1
:101400001092A40089BB8093720074CF811172CFB7
:101410001092200182E08093210110922501109208
:1014200024018ABB8093730065CF809182039091E1
:101430008303009709F4CCC00E94960BCB0168E6A9
:1014400071E00E94410C9093F6028093F5020E9495
:10145000FA0681E00E94A30789E492E00E94510607
:10146000C090F502D090F6020D2C000CEE08FF089B
:101470004AE0C701B601F7FE0EC041E06DE28AE620
:1014800093E00E94A10666277727CB016C197D099E
:101490008E099F094AE00E94030690E080E00E94C6
:1014A000D705A091F502B091F60224EB30E00E943E
:1014B0005D0CA50194010E94D20BC901A901909372
:1014C000F6028093F502403222E05207E4F52091C3
:1014D000F30248E850E0421B510927FD53959A0159
:1014E000220F331F220F331F7901330F000B110B13
:1014F0002091F40268E572E0621B710927FD739583
:101500009B01220F331F220F331F032E000C440BAD
:10151000550B2E193F09400B510BDC01853B910502
:1015200014F0A4EBB0E0B7FF02C0B0E0A0E00E946E
:10153000FC0BA30192010E94D20BBA01A9014E0D2E
:101540005F1D601F711F2091F202203388F580918A
:10155000F30268E870E0681B710987FD7395CB01A1
:10156000880F991F880F991F481759078CF0809191
:10157000F40268E572E0681B710987FD7395CB0181
:10158000880F991F880F991F481759070CF4CA0133
:101590000297880F991F4FB7F89430E0F901EE0FCA
:1015A000FF1FE20FF31FEE59FD4F928381834FBF60
:1015B00080E00E94A30764EF71E080E090E00E9469
:1015C000B9042114310409F4D3CE0E940000D0CE16
:1015D00060E070E0CB0132CFCF931092FD02109209
:1015E000010310920003109202038EE292E09093A6
:1015F000FC028093FB02E7E1F3E010821482138285
:101600001582369683E0E335F807B9F784E092E077
:1016100090935E0380935D0380E092E0909360037B
:1016200080935F0384E0809361038093620388E08A
:1016300092E090935C0380935B038AE090E0909348
:1016400064038093630384EF91E090936603809337
:101650006503109269031092680310925703109269
:1016600058031092590310925A0310926703109274
:101670006D0310926C0382E292E090936B0380936F
:101680006A0380E180936E03CFEFC0936F0381E123
:101690008093700382E18093710383E180937203EE
:1016A00084E18093730385E1809374031092750342
:1016B00010927603109277031092780310927903B8
:1016C00081E00E94020780915802803318F591E072
:1016D000980F909358028093F20290E0FC01EE0F75
:1016E000FF1FE80FF91FEE59FD4F88EB9BE0928337
:1016F00081831092830310928203109285031092CB
:101700008403109287031092860390E080E0CF91CB
:101710000C94D705C093F202ECCF80918203909194
:101720008303009711F00C94140D08951F93FC018E
:1017300099278827BC01E89411911032E9F31930F8
:1017400010F01E30C8F31B3251F01D3249F468947A
:1017500006C00E94BD0B610F711D811D911D11916D
:1017600010531A30B0F33EF49095809570956195C2
:101770007F4F8F4F9F4F1F910895592F482F372F1D
:10178000262F660F771F881F991F660F771F881FE8
:10179000991F620F731F841F951F660F771F881F85
:1017A000991F0895052E97FB1EF400940E94E90BE3
:1017B00057FD07D00E94040C07FC03D04EF40C9494
:1017C000E90B50954095309521953F4F4F4F5F4F16
:1017D000089590958095709561957F4F8F4F9F4F9D
:1017E00008950E94260CA59F900DB49F900DA49F74
:1017F000800D911D11240895B7FF0C94F10B0E94E8
:10180000F10B821B930B0895A1E21A2EAA1BBB1B9E
:10181000FD010DC0AA1FBB1FEE1FFF1FA217B307BC
:10182000E407F50720F0A21BB30BE40BF50B661FD2
:10183000771F881F991F1A9469F760957095809596
:1018400090959B01AC01BD01CF010895A29FB0010D
:10185000B39FC001A39F700D811D1124911DB29FE4
:10186000700D811D1124911D0895991B79E004C00C
:10187000991F961708F0961B881F7A95C9F78095CF
:10188000089597FB072E16F4009407D077FD09D032
:101890000E94640C07FC05D03EF4909581959F4F03
:1018A0000895709561957F4F0895EE0FFF1F881F73
:1018B0008BBF0790F691E02D19940E94260CB7FF7C
:1018C0000895821B930B0895AA1BBB1B51E107C00F
:1018D000AA1FBB1FA617B70710F0A61BB70B881FC0
:1018E000991F5A95A9F780959095BC01CD0108954F
:1018F0000F931F93CF93DF938230910510F482E012
:1019000090E0E0918A03F0918B0330E020E0B0E0BA
:10191000A0E0309799F42115310509F44AC0281B3D
:10192000390B24303105D8F58A819B816115710509
:1019300089F1FB0193838283FE0111C040815181B3
:101940000281138148175907E0F04817590799F4A5
:10195000109761F012960C93129713961C9332967F
:10196000CF01DF91CF911F910F91089500938A03CA
:1019700010938B03F4CF2115310551F04217530713
:1019800038F0A901DB019A01BD01DF01F801C1CFE7
:10199000EF01F9CF90938B0380938A03CDCFFE01A3
:1019A000E20FF31F819391932250310939832883E9
:1019B000D7CF2091880330918903232B41F42091C4
:1019C0001A0230911B0230938903209388032091DF
:1019D0001802309119022115310541F42DB73EB797
:1019E00040911C0250911D02241B350BE09188038D
:1019F000F0918903E217F307A0F42E1B3F0B281781
:101A0000390778F0AC014E5F5F4F2417350748F077
:101A10004E0F5F1F509389034093880381939193E6
:101A20009FCFF0E0E0E09CCFCF93DF930097E9F009
:101A3000FC01329713821282A0918A03B0918B032A
:101A4000ED0130E020E01097A1F420813181820F78
:101A5000931F20918803309189032817390709F0D3
:101A600061C0F0938903E0938803DF91CF910895DB
:101A7000EA01CE17DF07E8F54A815B819E01411537
:101A80005105B1F7E901FB83EA8349915991C40FEC
:101A9000D51FEC17FD0761F4808191810296840FB8
:101AA000951FE90199838883828193819B838A832F
:101AB000F0E0E0E012968D919C9113970097B9F5B4
:101AC0002D913C911197CD010296820F931F209189
:101AD0008803309189032817390739F6309751F573
:101AE00010928B0310928A03B0938903A09388030A
:101AF000BCCFD383C28340815181840F951FC81707
:101B0000D90761F44E5F5F4F88819981480F591F53
:101B1000518340838A819B81938382832115310580
:101B200009F0B0CFF0938B03E0938A039ECFFD01C1
:101B3000DC01C0CF13821282D7CF4F925F926F9297
:101B40007F928F929F92AF92BF92CF92DF92EF924D
:101B5000FF920F931F93CF93DF938C01009799F41B
:101B6000CB01DF91CF911F910F91FF90EF90DF900C
:101B7000CF90BF90AF909F908F907F906F905F902D
:101B80004F900C94780CFC01E60FF71F9C0122503B
:101B90003109E217F30708F4AEC0D901CD91DC9109
:101BA0001197C617D70720F1C530D10578F0CE01BF
:101BB00004978617970750F0C61BD70B2297C1933F
:101BC000D1936D937C93CF010E94140DC801DF91D6
:101BD000CF911F910F91FF90EF90DF90CF90BF902A
:101BE000AF909F908F907F906F905F904F900895EF
:101BF0005B01AC1ABD0A4C018C0E9D1EA0918A039C
:101C0000B0918B03512C412CF12CE12C109731F524
:101C100080918803909189038815990509F05CC02B
:101C20004616570608F058C0809118029091190284
:101C3000009741F48DB79EB740911C0250911D0250
:101C4000841B950BE817F90708F055C0F09389033A
:101C5000E0938803F90171836083B8CF8D919C91E3
:101C6000119712966C90129713967C901397A81563
:101C7000B90559F56C0142E0C40ED11CCA14DB044D
:101C800020F1AC014A195B09DA011296159780F030
:101C90006282738251834083D9016D937C93E114F6
:101CA000F10471F0D7011396FC93EE9312978ECF47
:101CB00022968C0F9D1FF90191838083F301EFCF52
:101CC000F0938B03E0938A0381CF4816590608F4FA
:101CD0002C017D01D3019ACFCB010E94780C7C01AD
:101CE000009749F0AE01B8010E947E0EC8010E9423
:101CF000140D87016BCF10E000E068CFFB01DC0121
:101D000002C001900D9241505040D8F70895FB0158
:101D1000DC0101900D920020E1F7089511E0C7E386
:101D2000D1E000E006C0802FFE010E94550C2196F4
:101D3000011DC833D10780E00807A9F7F894FFCF49
:101D400003020100070605043738394434353643A9
:101D50003132334252303D4100008C03800000009C
:101D60000000B107FE01A605A505000000002C0338
:101D7000EC02BB02412E416C6962616B6873686959
:101D8000004C616234003E200063757272656E74AF
:081D90004465672E3A200000B3
:00000001FF
