:100000000C9424010C9445010C9445010C94450179
:100010000C9445010C9445010C9445010C94450148
:100020000C9445010C9445010C9445010C94450138
:100030000C9445010C9445010C9445010C94450128
:100040000C9445010C9445010C9445010C94450118
:100050000C9445010C9445010C9445010C948E02BE
:100060000C9445010C9445010C9445010C944501F8
:100070000C9445010C9445010C9445010C944501E8
:100080000C9445010C9445010C9445010C944501D8
:100090000C9445010C9445010C9445010C944501C8
:1000A0000C9445010C9445010C9445010C944501B8
:1000B0000C9445010C9445010C9445010C944501A8
:1000C0000C9445010C9445010C9445010C94450198
:1000D0000C9445010C9445010C9445010C94450188
:1000E0000C9445010C947A010C946B010C94A001C2
:1000F0000C9465010C9480010C948E010C94730196
:100100000C94AA010C94A5010C9484010C94920106
:100110000C949C010C948A010C9498010C946F012E
:100120000C94A6010C947701000021002400270004
:100130002A002D00300033000101000004010701F6
:100140000A0100002200250028002B002E003100AB
:10015000340002010000050108010B01000020002D
:100160002300260029002C002F003200000100008F
:10017000030106010901050505050705080808082A
:10018000020202020A0A080804040404010101012F
:10019000010101010303030303030303040707072A
:1001A0000C0C0C0C0C0C0C0C0202020206060606CF
:1001B000060606060B0B0B0B0B0B0B0B010210209C
:1001C000200808102040102040800201020108048D
:1001D0000201010204081020408080402010080421
:1001E000020180040201804020100804020108047A
:1001F00002010102040810204080010204081020BE
:10020000408000000A0B02090C0D0E0807030401D0
:1002100000000000000000000000000000000000DE
:1002200000000000000000000000000000001211AB
:1002300010000000000000000000000000000000AE
:10024000000000000000000011241FBECFEFD1E22B
:10025000DEBFCDBF00E00CBF12E0A0E0B2E0E2E8FC
:10026000F8E000E00BBF02C007900D92A430B10788
:10027000D9F722E0A4E0B2E001C01D92AD30B20790
:10028000E1F70E94D8020C943F040C9400008150C6
:10029000823108F05AC0E82FF0E08827ED5AFE4F6F
:1002A0008F4F0C9437047301770165016B016F0167
:1002B000A5017A01800184018A018E0192019801D1
:1002C0009C01A501A001A601AA01809180008F7761
:1002D000809380000895809180008F7DF9CF809178
:1002E0008000877FF5CF84B58F7784BD089584B56E
:1002F0008F7DFBCF8091B0008F778093B000089501
:100300008091B0008F7DF9CF809190008F7780939E
:1003100090000895809190008F7DF9CF809190009A
:10032000877FF5CF8091A0008F778093A0000895FC
:100330008091A0008F7DF9CF8091A000877FF5CFBD
:10034000809120018F778093200108958091200172
:100350008F7DF9CF80912001877FF5CFCF93DF93F9
:10036000282F30E0F901EE5FFD4F8491F901E4544C
:10037000FE4FD491F901EA58FE4FC491CC23A1F06D
:1003800081110E944701EC2FF0E0EE0FFF1FE45AAD
:10039000FE4FA591B491EC91ED2381E090E009F43A
:1003A00080E0DF91CF91089580E090E0FACF1F9335
:1003B000CF93DF93282F30E0F901EE5FFD4F84915A
:1003C000F901E454FE4FD491F901EA58FE4FC4916B
:1003D000CC23A9F0162F81110E944701EC2FF0E0E9
:1003E000EE0FFF1FEE5BFE4FA591B4918FB7F8940F
:1003F000EC91111108C0D095DE23DC938FBFDF9103
:10040000CF911F910895DE2BF8CFCF93DF9390E02B
:10041000FC01E454FE4F24918A589E4FFC018491C4
:100420008823D1F090E0880F991FFC01E85DFE4F12
:10043000A591B491FC01EE5BFE4FC591D491611181
:100440000EC09FB7F8948C91E22FE0958E238C9389
:100450002881E223E8839FBFDF91CF9108958FB772
:10046000F894EC91E22BEC938FBFF6CF3FB7F89462
:100470008091090290910A02A0910B02B0910C02A6
:1004800026B5A89B05C02F3F19F00196A11DB11DEF
:100490003FBFBA2FA92F982F8827BC01CD01620F2B
:1004A000711D811D911D42E0660F771F881F991FE6
:1004B0004A95D1F708958F929F92AF92BF92CF92B3
:1004C000DF92EF92FF926B017C010E9436024B019A
:1004D0005C01C114D104E104F104B9F00E943602B8
:1004E000681979098A099B09683E7340810591055D
:1004F00080F321E0C21AD108E108F10888EE880EE5
:1005000083E0981EA11CB11CE4CFFF90EF90DF9018
:10051000CF90BF90AF909F908F9008951F920F92B1
:100520000FB60F9211242F933F938F939F93AF9306
:10053000BF938091050290910602A0910702B091AD
:1005400008023091040223E0230F2D3758F501965D
:10055000A11DB11D20930402809305029093060211
:10056000A0930702B09308028091090290910A02B9
:10057000A0910B02B0910C020196A11DB11D8093B8
:10058000090290930A02A0930B02B0930C02BF9150
:10059000AF919F918F913F912F910F900FBE0F9030
:1005A0001F90189526E8230F0296A11DB11DD2CFEA
:1005B000789484B5826084BD84B5816084BD85B53E
:1005C000826085BD85B5816085BD80916E0081604A
:1005D00080936E00109281008091810082608093F0
:1005E00081008091810081608093810080918000F2
:1005F0008160809380008091B10084608093B1001D
:100600008091B00081608093B00080919100826001
:1006100080939100809191008160809391008091FE
:1006200090008160809390008091A100826080930F
:10063000A1008091A10081608093A1008091A00021
:1006400081608093A00080912101826080932101CC
:10065000809121018160809321018091200181603E
:100660008093200180917A00846080937A00809149
:100670007A00826080937A0080917A008160809312
:100680007A0080917A00806880937A001092C1008D
:1006900061E080E00E94050261E081E00E940502C5
:1006A00061E082E00E94050261E083E00E940502B1
:1006B00061E084E00E94050261E085E00E9405029D
:1006C00061E086E00E94050260E088E00E94050289
:1006D00060E089E00E94050260E08AE00E94050275
:1006E00080E0E82E80E0F82E88E00E94AE01EC0168
:1006F000909303028093020289E00E94AE018C0174
:1007000090930102809300028AE00E94AE01892B3F
:1007100011F560E080E00E94D70160E081E00E9476
:10072000D70160E082E00E94D70160E083E00E9490
:10073000D70160E084E00E94D70160E085E00E947C
:10074000D70160E086E00E94D701E114F10461F274
:100750000E940000C9CF012B09F047C061E080E092
:100760000E94D70164E670E080E090E00E945B02A6
:1007700061E081E00E94D70164E670E080E090E0F3
:100780000E945B0261E082E00E94D70164E670E0B3
:1007900080E090E00E945B0261E083E00E94D7016C
:1007A00064E670E080E090E00E945B0261E084E03B
:1007B0000E94D70164E670E080E090E00E945B0256
:1007C00061E085E00E94D70164E670E080E090E09F
:1007D0000E945B0261E086E00E94D70164E670E05F
:1007E00080E090E00E945B02B0CFCD2B09F0ADCF4E
:1007F00061E086E00E94D70164E670E080E090E06E
:100800000E945B0261E085E00E94D70164E670E02F
:1008100080E090E00E945B0261E084E00E94D701EA
:1008200064E670E080E090E00E945B0261E083E0BB
:100830000E94D70164E670E080E090E00E945B02D5
:1008400061E082E00E94D70164E670E080E090E021
:100850000E945B0261E081E00E94D70164E670E0E3
:1008600080E090E00E945B0261E080E0B5CFEE0F97
:10087000FF1F881F8BBF0790F691E02D1994F89405
:02088000FFCFA8
:040882000100010070
:00000001FF
