:100000000C9454010C9485010C9485010C94850189
:100010000C9485010C9485010C9485010C94850148
:100020000C9485010C9485010C9485010C94850138
:100030000C9485010C9485010C9485010C94850128
:100040000C9485010C9485010C9485010C94850118
:100050000C9485010C9485010C9485010C941D0D64
:100060000C9485010C94E70C0C94BD0C0C94850148
:100070000C9485010C9485010C9485010C948501E8
:100080000C9485010C9485010C9485010C948501D8
:100090000C9485010C9485010C9485010C94670DDA
:1000A0000C9485010C9485010C9485010C948501B8
:1000B0000C9485010C9485010C9485010C948501A8
:1000C0000C9485010C9485010C9485010C94850198
:1000D0000C9485010C9485010C9485010C94850188
:1000E0000C9485010C9439030C9427030C94E801BB
:1000F0000C942B030C9423030C940D080C940A020B
:100100000C941D030C9436080C943E030C940803C5
:100110000C94AA010C9463080C9470030C94641161
:100120000C943F030C94A1030C94D9010C94C608C1
:100130000C94C7080C94AC010C9419030C940403A0
:100140000C9413030C948F020C94FE020C94430342
:100150000C948B0E0C942F080C940C030C94E1035C
:100160000C9431030C9435030C94FC010C941C0882
:100170000C940C080C94900A0C9442020C94AB0161
:100180000C94100300002100240027002A002D00F9
:100190003000330001010000040107010A010000E2
:1001A0002200250028002B002E003100340002011F
:1001B0000000050108010B010000200023002600BB
:1001C00029002C002F00320000010000030106016D
:1001D00009010505050507050808080802020202CD
:1001E0000A0A0808040404040101010101010101D3
:1001F0000303030303030303040707070C0C0C0C9E
:100200000C0C0C0C02020202060606060606060686
:100210000B0B0B0B0B0B0B0B010210202008081013
:100220002040102040800201020108040201010266
:10023000040810204080804020100804020180043F
:10024000020180402010080402010804020101029A
:1002500004081020408001020408102040800000A3
:100260000A0B02090C0D0E08070304010000000030
:10027000000000000000000000000000000000007E
:10028000000000000000000000001211100000003B
:10029000000000000000000000000000000000005E
:1002A000000000008B0E641111241FBECFEFD1E2BD
:1002B000DEBFCDBF00E00CBF25E0AEEDB3E001C076
:1002C0001D92A33FB207E1F713E0A0E0B2E0E0E93E
:1002D000F7E200E00BBF02C007900D92AE3DB10700
:1002E000D9F711E0C3E5D1E000E006C0219701098C
:1002F000802FFE010E949811C235D10780E00807C7
:10030000A9F70E94730F0C94B6130C94000096E0AA
:10031000899FD0011124A058BA4F90967C936E9378
:100320005F9791E091969C939197E091ED05F09104
:10033000EE059091EC05992339F0309751F0811139
:1003400008C080919C051994309719F05C968C91A7
:10035000FACF089508950895AF92BF92CF92DF9299
:10036000EF92FF920F931F93CF93DF936C017B016A
:100370008B01040F151FEB015E01AE18BF08C017FB
:10038000D10759F06991D601ED91FC910190F0816E
:10039000E02DC6011995892B79F7C501DF91CF9121
:1003A0001F910F91FF90EF90DF90CF90BF90AF9093
:1003B0000895FC01538D448D252F30E0842F90E06B
:1003C000821B930B541710F0CF9608950197089550
:1003D000FC01918D828D981761F0A28DAE0FBF2F19
:1003E000B11D5D968C91928D9F5F9F73928F90E06F
:1003F00008958FEF9FEF0895FC01918D828D9817DE
:1004000031F0828DE80FF11D858D90E008958FEF1A
:100410009FEF0895FC01918D228D892F90E0805CE3
:100420009F4F821B91098F739927089581EA94E069
:100430000E940A0221E0892B09F420E0822F08950E
:10044000FC01A48DA80FB92FB11DA35ABF4F2C9149
:10045000848D90E001968F739927848FA689B78940
:100460002C93A089B1898C91837080648C93938D37
:10047000848D981306C00288F389E02D80818F7DDA
:1004800080830895EF92FF920F931F93CF93DF9392
:10049000EC0181E0888F9B8D8C8D98131AC0E889C0
:1004A000F989808185FF15C09FB7F894EE89FF898F
:1004B0006083E889F98980818370806480839FBF2D
:1004C00081E090E0DF91CF911F910F91FF90EF902D
:1004D0000895F62E0B8D10E00F5F1F4F0F7311273D
:1004E000E02E8C8D8E110CC00FB607FCFACFE88978
:1004F000F989808185FFF5CFCE010E942002F1CFDE
:10050000EB8DEC0FFD2FF11DE35AFF4FF0829FB7EB
:10051000F8940B8FEA89FB8980818062CFCFCF93DB
:10052000DF93EC01888D8823B9F0AA89BB89E8891B
:10053000F9898C9185FD03C0808186FD0DC00FB6C1
:1005400007FCF7CF8C9185FFF2CF808185FFEDCF3F
:10055000CE010E942002E9CFDF91CF91089580E083
:1005600090E0892B29F00E94160281110E94000060
:1005700080E090E0892B49F080E090E0892B29F021
:100580000E94000081110E94000080E090E0892B11
:1005900049F080E090E0892B29F00E940000811151
:1005A0000E94000080E090E0892B49F080E090E01C
:1005B000892B29F00E94000081110C9400000895FD
:1005C0008150823108F05AC0E82FF0E08827E451CA
:1005D000FD4F8F4F0C9498110C031003FE0204037F
:1005E00008033E03130319031D03230327032B03EF
:1005F000310335033E0339033F03430380918000F9
:100600008F77809380000895809180008F7DF9CF4F
:1006100080918000877FF5CF84B58F7784BD089562
:1006200084B58F7DFBCF8091B0008F778093B00031
:1006300008958091B0008F7DF9CF809190008F77E1
:10064000809390000895809190008F7DF9CF8091E4
:100650009000877FF5CF8091A0008F778093A000D6
:1006600008958091A0008F7DF9CF8091A000877FB1
:10067000F5CF809120018F7780932001089580919C
:1006800020018F7DF9CF80912001877FF5CFCF9317
:10069000DF93282F30E0F901E25AFD4F8491F901F0
:1006A000E85EFD4FD491F901EE52FE4FC491CC2388
:1006B000A1F081110E94E002EC2FF0E0EE0FFF1F8D
:1006C000E854FE4FA591B491EC91ED2381E090E0C8
:1006D00009F480E0DF91CF91089580E090E0FACFB7
:1006E000862F0C9447031F93CF93DF93282F30E07E
:1006F000F901E25AFD4F8491F901E85EFD4FD49172
:10070000F901EE52FE4FC491CC23A9F0162F8111AE
:100710000E94E002EC2FF0E0EE0FFF1FE256FE4FCA
:10072000A591B4918FB7F894EC91111108C0D095B0
:10073000DE23DC938FBFDF91CF911F910895DE2BD5
:10074000F8CF862F642F0C947303CF93DF9390E040
:10075000FC01E85EFD4F24918E529E4FFC01849176
:100760008823C9F090E0880F991FFC01EC57FE4FD9
:10077000A591B491FC01E256FE4FC591D49161114F
:100780000DC09FB7F8948C91209582238C9388811B
:10079000282328839FBFDF91CF910895623051F4C1
:1007A0009FB7F8943C91822F809583238C93E881A6
:1007B0002E2BEFCF8FB7F894EC912E2B2C938FBF6D
:1007C000EACF862F642F0C94A5033FB7F89480914D
:1007D000270490912804A0912904B0912A0426B5F9
:1007E000A89B05C02F3F19F00196A11DB11D3FBF69
:1007F000BA2FA92F982F8827BC01CD01620F711D38
:10080000811D911D42E0660F771F881F991F4A9531
:10081000D1F708958F929F92AF92BF92CF92DF92BD
:10082000EF92FF924B015C010E94E5036B017C019A
:100830000E94E5036C197D098E099F09683E73408B
:1008400081059105A8F321E0821A9108A108B10859
:1008500088EEC80E83E0D81EE11CF11C81149104BF
:10086000A104B10429F7FF90EF90DF90CF90BF90E3
:10087000AF909F908F9008952FB7F89460912304C4
:100880007091240480912504909126042FBF08952F
:100890000F931F93CF93DF93C82FD62F86E0C89F67
:1008A000F0011124E058FA4F11A2878D90A18130F8
:1008B0009105F1F058F082309105F1F1039709F4B8
:1008C00040C0DF91CF911F910F9108956623C9F326
:1008D00061E070E08C2F0E9487010E943C046093CD
:1008E000D8057093D9058093DA059093DB05E9CF9D
:1008F0000E943C040091D8051091D9052091DA0599
:100900003091DB05AB01BC01401B510B620B730B3B
:100910008091EA059091EB05B0E0A0E0841795077F
:10092000A607B70748F462E070E08C2FDF91CF9103
:100930001F910F910C94870163E070E0D111C1CF3A
:10094000F4CF70E060E0F1CF6F927F928F929F9230
:10095000AF92BF92CF92DF92EF92FF920F931F93CD
:10096000CF93DF9381E08093EC050E943C040091DB
:10097000DC051091DD052091DE053091DF05AB012E
:10098000BC01401B510B620B730B8091E8059091E9
:10099000E905B0E0A0E084179507A607B70708F0BF
:1009A00014C1C0E08091E605C81760F4E091E2054B
:1009B000F091E305EC0FF11D62E080810E94A50338
:1009C000CF5FF0CF712C812C912C540183948091B6
:1009D000E705781608F05FC0072D10E0E091E40508
:1009E000F091E505E00FF11F61E080810E94A50311
:1009F000E091E405F091E505E00FF11F60E08081F2
:100A00000E947303D501C401072C04C0880F991FED
:100A1000AA1FBB1F0A94D2F76C017C01E094F094EA
:100A2000612C8091E6056816F8F4C62DD0E0E091BF
:100A3000E205F091E305EC0FFD1F80810E94470362
:100A40002496CC0FDD1FC058DA4F892B41F48881E2
:100A500099818C299D29998388836394E2CF888129
:100A600099818E219F21F7CFE091E405F091E50572
:100A7000E00FF11F61E080810E9473038091E40523
:100A80009091E505080F191F60E0F80180810E9430
:100A9000A50373949CCFC0E8D5E0FE018FEF9FEFD4
:100AA000278D30A1232B21F4148E968F858F11A2D0
:100AB000369625E0EC3BF20799F7F12C96E0D92E1B
:100AC0008091E605F81608F050C0E12C0F2D10E0DB
:100AD000000F111F08571A4F2091E705E21608F082
:100AE00042C0F801608171810E2C02C07695679535
:100AF0000A94E2F7F29E900111242E0D311DE0E8D8
:100B0000F5E080E0458D568D2417350709F461C066
:100B10008F5F36968A30B1F760FF23C0E0E8F5E0DA
:100B200090E080E0448D411117C0E091E005F09124
:100B3000E105E20FF31F4081D89EF001D99EF00D30
:100B40001124E058FA4F448F368F258F10A2178E4C
:100B500061E00E94480405C0019636968A309105EE
:100B600009F7E394B9CFF394ABCF10E089A18111D9
:100B7000182F2696F5E0CC3BDF07C1F70E943C0416
:100B80006093DC057093DD058093DE059093DF05AF
:100B90001123D9F08091A1058823B9F080919F0598
:100BA0009091A005019789F480919C05DF91CF91E8
:100BB0001F910F91FF90EF90DF90CF90BF90AF907B
:100BC0009F908F907F906F9008951092EC0580E039
:100BD000EDCF6170BECF0E94A4048823E1F3089595
:100BE0002091FF03260F3327331F21323105ECF408
:100BF00020917704FC0190E080E0243069F082E0ED
:100C00000895A091FF032191AC0141525C4FA40FC4
:100C1000B52FB11D2C930196861798F38091FF0391
:100C2000680F6093FF0380E0089581E008951092BB
:100C3000770481E0809376041092510461E084E1AE
:100C40000E94730361E085E10E947303E9EBF0E029
:100C500080818E7F808380818D7F808388E48093F4
:100C6000B80085E48093BC000895CF93DF9391E0B2
:100C70009093DE038823B9F0C091B800D091BA00F8
:100C80008091BC008A7B8093BC0060E084E10E947C
:100C9000730360E085E10E9473030E941706D093FE
:100CA000BA00C093B800DF91CF910895CF92DF9240
:100CB000EF92FF920F931F93CF93DF93D091A004F5
:100CC00081E0D13208F09CC0C0919F040E94E503EE
:100CD0006B017C018091770481116CC082E080936C
:100CE000770481E0809376048FEF809375041092EF
:100CF0007404D0937304AFE7B4E0E3E5F4E080E07C
:100D0000D8138DC01092520480915204CC0FC82B7E
:100D1000C093520480915104813009F084C0109234
:100D200051040E94E5036B017C0180915204809381
:100D3000BB008091790490917A04A0917B04B091DA
:100D40007C04892B8A2B8B2BA1F00E94E503009158
:100D5000790410917A0420917B0430917C046C1901
:100D60007D098E099F09061717072807390708F418
:100D700042C08091BC0083FDD8CF85EC8093BC003D
:100D80000E94E5036B017C0180917704823009F4B5
:100D90004CC0809175048F3F09F469C0809175043F
:100DA000803209F466C080917504803309F463C011
:100DB00084E026C08091790490917A04A0917B040C
:100DC000B0917C04892B8A2B8B2B09F483CF0E9452
:100DD000E5030091790410917A0420917B0430910D
:100DE0007C046C197D098E099F09061717072807CF
:100DF000390708F06FCF809178040E94350685E0AE
:100E000010927E041092A00410927D04DF91CF9185
:100E10001F910F91FF90EF90DF90CF9008959D91DB
:100E200091938F5F6DCF85EEA9CF809179049091DA
:100E30007A04A0917B04B0917C04892B8A2B8B2BA4
:100E400009F4A2CF0E94E5030091790410917A047D
:100E500020917B0430917C046C197D098E099F09D7
:100E6000061717072807390708F08ECFC4CF80E090
:100E7000C7CF82E0C5CF83E0C3CFCF92DF92EF929E
:100E8000FF920F931F93CF93DF93D82FC62F61321A
:100E900008F098C00E94E5036B017C018091770403
:100EA00081116BC081E080937704809376049FEF7B
:100EB00090937504109274049C0F90937304809324
:100EC000520480915204DD0FD82BD09352048091AC
:100ED0005104813009F078C0109251040E94E5035A
:100EE0006B017C01809152048093BB008091790456
:100EF00090917A04A0917B04B0917C04892B8A2B79
:100F00008B2BA1F00E94E5030091790410917A04E3
:100F100020917B0430917C046C197D098E099F0916
:100F2000061717072807390708F448C08091BC0046
:100F300083FDD8CF85EC8093BC000E94E5036B0154
:100F40007C0180917704813009F440C08091740461
:100F50008C1710F4C0917404E3E5F4E0A1E3B4E06D
:100F600080E08C1355C08C2FDF91CF911F910F9192
:100F7000FF90EF90DF90CF90089580917904909149
:100F80007A04A0917B04B0917C04892B8A2B8B2B53
:100F900009F484CF0E94E5030091790410917A044A
:100FA00020917B0430917C046C197D098E099F0986
:100FB000061717072807390708F070CF80917804C3
:100FC0000E943506C0E0CFCF85EEB5CF8091790481
:100FD00090917A04A0917B04B0917C04892B8A2B98
:100FE0008B2B09F4AECF0E94E50300917904109198
:100FF0007A0420917B0430917C046C197D098E0960
:101000009F09061717072807390708F09ACFD6CF88
:1010100091919D938F5FA5CF0895E09130048091C9
:101020002F04E81730F4F0E0EF5CFB4F808190E094
:1010300008958FEF9FEF08959091300480912F04D1
:101040002FEF3FEF981748F4E92FF0E0EF5CFB4FEC
:10105000208130E09F5F90933004C9010895809112
:101060002F0490913004891B990B0895CF92DF9241
:10107000EF92FF920F931F93CF93DF937C01CB01ED
:101080008A0120917D04222389F0EB016B01C40EBB
:10109000D51ECC15DD0569F06991D701ED91FC9164
:1010A0000190F081E02DC7011995F3CF642F0E94C4
:1010B000F005C801DF91CF911F910F91FF90EF9044
:1010C000DF90CF900895CF93DF931F92CDB7DEB717
:1010D000698320917D042223F9F02091A00420321D
:1010E00058F021E030E0FC013383228390E080E07F
:1010F0000F90DF91CF91089580917E04E82FF0E06A
:10110000E158FB4F998190838F5F80937E04809399
:10111000A00481E090E0ECCF61E0CE0101960E9456
:10112000F005F7CFEF92FF920F931F93CF93DF93CA
:10113000C82F8B01D4E0D80FEE24E39480E5F82E7D
:10114000E0927D04F0929F0410927E041092A0041D
:101150006C2F8EE395E00E946308F80161918F0186
:101160008EE395E00E9463080E94560668EC70E0EA
:1011700080E090E00E940A04CF5FCD13E1CFDF91C1
:10118000CF911F910F91FF90EF900895089590E0F7
:1011900080E00895CF93C62F91E090937D0490E571
:1011A00090939F0410927E041092A004682F8EE307
:1011B00095E00E9463086C2F8EE395E00E9463081F
:1011C0000E94560668EC70E080E090E0CF910C94AD
:1011D0000A0481E080937D0480E580939F0410924F
:1011E0007E041092A00463E68EE395E00E946308FB
:1011F0000E94560661E080E50E943D07109230048F
:1012000080932F048EE395E00E941C080895EF92CE
:10121000FF920F931F93CF93DF93C82F8B01D4E0DE
:10122000D80FEE24E39480E5F82EE0927D04F0924E
:101230009F0410927E041092A0046C2F8EE395E020
:101240000E9463080E94560664E080E50E943D0704
:101250001092300480932F048EE395E00E941C08C6
:10126000F80181938F01CF5FCD13DFCFDF91CF9155
:101270001F910F91FF90EF900895CF93DF93EC01B2
:1012800060E08E810E94730361E08E810E9473038F
:1012900060E08E810E9473038BE891E00197F1F783
:1012A000DF91CF910895CF92DF92EF92FF920F934B
:1012B0001F93CF93DF936C017C0187E0E80EF11C54
:1012C000D0E0C0E0062F10E0B8010C2E02C07595EA
:1012D00067950A94E2F76170F70181917F010E949E
:1012E00073032196C430D10579F7C601DF91CF9100
:1012F0001F910F91FF90EF90DF90CF900C943D09DC
:10130000CF92DF92EF92FF920F931F93CF93DF93D1
:10131000EC01F62E642F8C810E9473038D818F3F28
:1013200019F060E00E9473030F2D10E08F8584FF99
:1013300025C06E0187E0C80ED11CF12CE12CB8014C
:101340000E2C02C0759567950A94E2F76170F6015C
:1013500081916F010E947303FFEFEF1AFF0A88E08B
:10136000E816F10461F7CE01DF91CF911F910F9143
:10137000FF90EF90DF90CF900C943D09B80184E08E
:10138000759567958A95E1F7CE010E9453096F2DF7
:10139000CE01DF91CF911F910F91FF90EF90DF90E1
:1013A000CF900C94530940E0682F88E695E00C94A8
:1013B000800981E00E94D3098BE39FE10197F1F757
:1013C0000895CF93DF93813029F09091770598604D
:1013D0009093770580937B0510927C0580E4809341
:1013E0007D0580E180937E0580E580937F0561E047
:1013F00080916C050E94A50380916D058F3F19F0C7
:1014000061E00E94A50361E080916E050E94A50342
:10141000C8E6D5E09E01285635408091770584FDC9
:101420000BC084E090E021962817390744F461E06E
:101430008E810E94A503EECF88E090E0F4CF8BE38D
:101440009DE00197F1F760E080916C050E947303C5
:1014500060E080916E050E94730380916D058F3F5F
:1014600019F060E00E9473038091770584FD34C019
:1014700063E088E695E00E945309CBE4D6E4CE0110
:101480000197F1F763E088E695E00E945309219700
:10149000F1F763E088E695E00E94530983E592E066
:1014A0000197F1F762E088E695E00E945309809188
:1014B000770580620E94D30984E0809378058CE0F0
:1014C0000E94D3090E94D90982E08093790586E0C1
:1014D000DF91CF910C94D30980620E94D3098BE4F1
:1014E00096E40197F1F78091770580620E94D30915
:1014F00083E592E00197F1F78091770580620E9481
:10150000D309D5CF90917B05891710F08FEF890F04
:10151000E82FF0E0E859FA4F848980680C94D309E9
:1015200041E00E94800981E090E00895FB01019074
:101530000020E9F73197AF01461B570BDC01ED9115
:10154000FC910280F381E02D19948F929F92AF92CB
:10155000BF920F931F93CF93DF93CDB7DEB7A197C1
:101560000FB6F894DEBF0FBECDBF19A2423008F40B
:101570004AE08E010F5D1F4F842E912CB12CA12CBF
:10158000A50194010E947611E62FB901CA01EA3043
:1015900004F5E05DD801EE938D01232B242B252B40
:1015A00079F790E080E0109729F0BD0188E695E09A
:1015B0000E94960AA1960FB6F894DEBF0FBECDBF6B
:1015C000DF91CF911F910F91BF90AF909F908F901F
:1015D0000895E95CDFCF682F70E090E080E04AE09A
:1015E0000C94A50ABC0188E695E00C94960AEF924B
:1015F000FF920F931F93CF93DF938C017C01C0E088
:101600000E94D90980E00E94820A80E692E00E944E
:10161000F20A81E00E94820A86E892E0C23051F02C
:101620008FE892E0C33031F080E792E0C13011F4EE
:1016300089E792E00E94F20A82E00E94820A0E94F8
:10164000EB05D82F41E0682F88E695E00E948009DD
:1016500083E00E94820A87E992E00E94F20A68EE23
:1016600073E080E090E00E940A04D053F701D19328
:101670007F01CF5FC43021F60E94D90980E00E942B
:10168000820A80E792E00E94F20AF80180810E94BB
:10169000EB0A81E00E94820A89E792E00E94F20A46
:1016A000F80181810E94EB0A82E00E94820A86E8AA
:1016B00092E00E94F20AF80182810E94EB0A83E024
:1016C0000E94820A8FE892E00E94F20AF801838168
:1016D0000E94EB0ADF91CF911F910F91FF90EF9045
:1016E0000C94EB053F924F925F926F927F928F9294
:1016F0009F92AF92BF92CF92DF92EF92FF920F93A1
:101700001F93CF93DF930AE415E06C018EE1E82E7E
:1017100082E0F82E312C80E00E94820AF801448198
:1017200055816081718188E695E00E94AC01F601E7
:10173000C1916F010E94D909F7018081F2E0EF0E9B
:10174000F11C61E00E94730380E00E94820AF801AC
:10175000448155816081718188E695E00E94AC01E9
:10176000CF5FD0E0812C912C5401209731F10E9461
:101770003C042B013C01DC01CB0188199909AA0921
:10178000BB09883E9340A105B10570F0219781E027
:101790000E94820ABE010D2E000C880B990B4AE0B4
:1017A0000E94A50A530142010E94A4048B32E9F66B
:1017B000632D82E60E94CA08D8CF0A5F1F4F339478
:1017C00024E03212A8CF0E94D90981E00E94820A47
:1017D0008BE992E00E94F20A82E00E94820A8CEA7F
:1017E00092E00E94F20A409166055091670560916F
:1017F00062057091630581EA94E00E94AC016DEB93
:1018000072E081EA94E00E94960A61E089E10E9418
:10181000730361E088E10E94730361E087E10E9445
:10182000730361E086E10E94730360E082E60E9438
:10183000CA080E94EB0560E089E10E94730360E042
:1018400088E10E94730360E087E10E94730360E017
:1018500086E1DF91CF911F910F91FF90EF90DF9084
:10186000CF90BF90AF909F908F907F906F905F9040
:101870004F903F900C947303EF92FF920F931F933E
:10188000CF93DF93EC017B01198218821B821A82AD
:101890001D821C82FB0101900020E9F731978F0126
:1018A000061B170BB8016F5F7F4F90E080E00E942E
:1018B000C5120097B9F0998388831B830A832C8112
:1018C0003D81232B11F4FC0110821D830C83B70191
:1018D00088819981DF91CF911F910F91FF90EF90B7
:1018E0000C94AF1388819981009711F00E943C12EB
:1018F000198218821D821C821B821A82DF91CF916D
:101900001F910F91FF90EF90089585ED8093BC009B
:101910008091790490917A04A0917B04B0917C0429
:101920000796A11DB11D23E0B695A79597958795BC
:101930002A95D1F72091BC0024FD03C010927704B2
:1019400008954091790450917A0460917B047091DC
:101950007C04452B462B472B69F30097A105B10565
:1019600041F025E32A95F1F700000197A109B1099B
:10197000E1CF809178040C9435061F920F920FB638
:101980000F9211240BB60F922F933F934F935F93B7
:101990006F937F938F939F93AF93BF93EF93FF9337
:1019A00081EA94E00E942002FF91EF91BF91AF91F4
:1019B0009F918F917F916F915F914F913F912F9167
:1019C0000F900BBE0F900FBE0F901F9018951F9297
:1019D0000F920FB60F9211240BB60F922F938F9385
:1019E0009F93EF93FF93E091B104F091B204808153
:1019F000E091B704F091B80482FD1DC09081809100
:101A0000BA048F5F8F732091BB04821741F0E0917D
:101A1000BA04F0E0EF55FB4F958F8093BA04FF9125
:101A2000EF919F918F912F910F900BBE0F900FBE52
:101A30000F901F9018958081F2CF1F920F920FB6D2
:101A40000F9211242F933F938F939F93AF93BF9344
:101A50008091230490912404A0912504B091260440
:101A60003091220423E0230F2D3758F50196A11D54
:101A7000B11D209322048093230490932404A09307
:101A80002504B09326048091270490912804A09106
:101A90002904B0912A040196A11DB11D8093270449
:101AA00090932804A0932904B0932A04BF91AF9186
:101AB0009F918F913F912F910F900FBE0F901F908C
:101AC000189526E8230F0296A11DB11DD2CF1F92B3
:101AD0000F920FB60F9211240BB60F922F933F93D4
:101AE0004F935F936F937F938F939F93AF93BF9326
:101AF000EF93FF938091B900887F803609F44DC041
:101B000008F040C0883209F4A9C028F5803109F4F2
:101B10009DC0C8F4882309F4FBC0883009F496C03E
:101B2000FF91EF91BF91AF919F918F917F916F91B5
:101B30005F914F913F912F910F900BBE0F900FBE71
:101B40000F901F901895883109F488C0803241F7B2
:101B50008093750414C0803409F49DC040F4803330
:101B6000B9F38833E9F68093750485ECB0C080350D
:101B700009F485C0883509F496C0883489F60E9436
:101B8000850CCECF883909F48CC038F5883729F018
:101B900050F4883611F0803719F683E0809377048B
:101BA0001092210457C0883809F47BC0803919F09D
:101BB000803809F0B5CF80912104803208F071C0DF
:101BC000E091210481E08E0F809321048091BB007D
:101BD000F0E0EF5FFB4F80833DC0803B39F0E0F4E5
:101BE000803A09F479C0883A09F09ACF84E080936A
:101BF0007704109200041092FF03E0912D04F091FD
:101C00002E0419958091FF0381110FC081E080930C
:101C1000FF031092DF0309C0803C09F4A6CF883C83
:101C200009F4A3CF883B09F07BCFE091000481E069
:101C30008E0F80930004F0E0E152FC4F808180938E
:101C4000BB00909100048091FF0329C08091520451
:101C50008093BB0085EC8093BC0062CF90917404AC
:101C600080917304981758F5E091740481E08E0F09
:101C700080937404F0E0ED5AFB4F8081E9CFE0914E
:101C8000740481E08E0F809374048091BB00F0E0B7
:101C9000ED5AFB4F808390917404809173049817E0
:101CA000C8F285E8D8CFE091740481E08E0F80936C
:101CB00074048091BB00F0E0ED5AFB4F808380916B
:101CC000760481115CCF81E08093510484EA809393
:101CD000BC001092770424CF85EC8093BC00109256
:101CE000770480912104803230F4E0912104F0E007
:101CF000EF5FFB4F10826091210470E0E0912B04B4
:101D0000F0912C0481E094E019951092210408CF01
:101D10001092750434CF1092A4041092A30488EE9C
:101D200093E0A0E0B0E08093A5049093A604A09374
:101D3000A704B093A8042AE232E03093A2042093CF
:101D4000A10425EC30E03093AE042093AD0424ECE4
:101D500030E03093B0042093AF0420EC30E03093B7
:101D6000B2042093B10421EC30E03093B40420930A
:101D7000B30422EC30E03093B6042093B50426EC93
:101D800030E03093B8042093B7041092BA04109254
:101D9000BB041092BC041092BD0410924105109235
:101DA00040058093420590934305A0934405B0936A
:101DB00045058CE392E090933F0580933E05109299
:101DC00082051092860510928505109287058AE596
:101DD00092E09093810580938005ECE9F5E0108214
:101DE000148213821582369685E0E83DF807B9F72C
:101DF00084E092E09093E3058093E20580E092E036
:101E00009093E5058093E40584E08093E605809354
:101E1000E70588E092E09093E1058093E0058AE091
:101E200090E09093E9058093E80584EF91E090932A
:101E3000EB058093EA051092EE051092ED051092E5
:101E4000DC051092DD051092DE051092DF05109280
:101E5000EC0510926B0510926A058EE492E0909367
:101E60006905809368058EE080936C058FEF809301
:101E70006D058FE080936E0580E180936F0581E1B1
:101E80008093700582E18093710583E180937205F0
:101E900010927305109274051092750510927605D4
:101EA0001092770581E00E94E10960EC72E08AE41B
:101EB00095E00E943C0C68EC72E080E595E00E94A1
:101EC0003C0C67ED72E086E595E00E943C0C62EE0A
:101ED00072E08CE595E00E943C0C69EE72E082E6CF
:101EE00095E00C943C0CCF93DF9300D000D01F9270
:101EF0001F92CDB7DEB7789484B5826084BD84B577
:101F0000816084BD85B5826085BD85B5816085BDF4
:101F100080916E00816080936E00109281008091AC
:101F20008100826080938100809181008160809334
:101F30008100809180008160809380008091B10059
:101F400084608093B1008091B00081608093B00084
:101F500080919100826080939100809191008160D6
:101F60008093910080919000816080939000809197
:101F7000A10082608093A1008091A1008160809384
:101F8000A1008091A00081608093A0008091210138
:101F900082608093210180912101816080932101E1
:101FA0008091200181608093200180917A0084607B
:101FB00080937A0080917A00826080937A00809189
:101FC0007A00816080937A0080917A0080688093A3
:101FD0007A001092C10084E00E94E10981E00E9431
:101FE000820A80EF92E00E94F20A82E00E94820A56
:101FF00081E093E00E94F20A6CED75E080E090E0F1
:102000000E940A040E94D90961E089E10E94A503A7
:1020100061E088E10E94A50361E087E10E94A503D9
:1020200061E086E10E94A5031092300410922F0413
:1020300010927E041092A0040E9417068AEA91E092
:1020400090932E0480932D048BEA91E090932C04BE
:1020500080932B04E091B104F091B20482E080837C
:10206000E091AD04F091AE041082E091AF04F091E4
:10207000B0048FEC80831092B904E091B504F09124
:10208000B60486E08083E091B304F091B4048081CB
:1020900080618083E091B304F091B4048081886012
:1020A0008083E091B304F091B404808180688083E0
:1020B000E091B304F091B40480818F7D80838E0120
:1020C0000F5F1F4F6E0185E0C80ED11C84E0B82E53
:1020D0000E94D90980E00E94820A82E193E00E9476
:1020E000F20A81E00E94820A81E293E00E94F20AF1
:1020F00082E00E94820A8AE293E00E94F20A83E070
:102100000E94820A86E393E00E94F20A0E94EB0595
:102110008E3631F50E94D90981E00E94820A85E459
:1021200093E00E94F20A82E00E94820A86E593E030
:102130000E94F20A81E0898382E08A8383E08B83B4
:10214000BC82B80184E60E94920861E083E60E94A6
:10215000CA08B80184E60E9407090E94AF02B8CFFE
:102160008B3299F40E94E908F82EC8010E94F70A00
:1021700089E18F0DB801880F880F0E94920861E0F5
:102180006F0D83E60E94CA08E8CF8F3209F072C053
:102190000E94D90980E00E94820A87E693E00E94AB
:1021A000F20A81E00E94820A0E94E908A82E88E7CC
:1021B00093E00E94F20A8A2D0E94EB0A0E94EB052E
:1021C000E82E880FFF08C701C097A81619062CF241
:1021D0000E94D90981E00E94820A84E893E00E946B
:1021E000F20A82E00E94820A8DE893E00E94F20ADD
:1021F000F6018B2D11928A95E9F7E8E1EE1AF108C4
:10220000EE0CEE0CB6018E2D0E9407090E94EB0524
:102210008F3221F4C6010E94720B9FCF8A3299F44B
:10222000F8018B2D11928A95E9F70E94D90988E966
:1022300093E00E94F20AC8010E94F70AB8018E2DAD
:102240000E9492088ACF0E94D90981E00E94820AE6
:1022500084EA93E00E94F20A82E00E94820A85EBFF
:1022600093E00E94F20A68EE73E080E090E00E9442
:102270000A0473CF8D3231F4B80184E60E94070955
:10228000C801C9CF8A32F9F60E94E908F82E0E94E7
:10229000D90980E00E94820A86EC93E00E94F20A4B
:1022A00081E00E94820A85ED93E00E94F20A8F2D60
:1022B0000E94EB0A83E00E94820A8CEA92E00E946C
:1022C000F20A0E94EB0549CFCF93DF93C8E6D5E031
:1022D000269788819981009711F00E943C1285E031
:1022E000CA34D807A9F7DF91CF910895A1E21A2E39
:1022F000AA1BBB1BFD010DC0AA1FBB1FEE1FFF1FAA
:10230000A217B307E407F50720F0A21BB30BE40BF9
:10231000F50B661F771F881F991F1A9469F7609540
:102320007095809590959B01AC01BD01CF010895FA
:10233000EE0FFF1F881F8BBF0790F691E02D1994B9
:102340000F931F93CF93DF938230910510F482E0B7
:1023500090E0E091F105F091F20530E020E0B0E08E
:10236000A0E0309799F42115310509F44AC0281BE3
:10237000390B24303105D8F58A819B8161157105AF
:1023800089F1FB0193838283FE0111C04081518159
:102390000281138148175907E0F04817590799F44B
:1023A000109761F012960C93129713961C93329625
:1023B000CF01DF91CF911F910F9108950093F10507
:1023C0001093F205F4CF2115310551F04217530750
:1023D00038F0A901DB019A01BD01DF01F801C1CF8D
:1023E000EF01F9CF9093F2058093F105CDCFFE0177
:1023F000E20FF31F8193919322503109398328838F
:10240000D7CF2091EF053091F005232B41F4209197
:102410001A0230911B023093F0052093EF052091B2
:102420001802309119022115310541F42DB73EB73C
:1024300040911C0250911D02241B350BE091EF05C9
:10244000F091F005E217F307A0F42E1B3F0B2817BD
:10245000390778F0AC014E5F5F4F2417350748F01D
:102460004E0F5F1F5093F0054093EF0581939193BA
:102470009FCFF0E0E0E09CCFCF93DF930097E9F0AF
:10248000FC01329713821282A091F105B091F205FE
:10249000ED0130E020E01097A1F420813181820F1E
:1024A000931F2091EF053091F0052817390709F0A7
:1024B00061C0F093F005E093EF05DF91CF910895AF
:1024C000EA01CE17DF07E8F54A815B819E014115DD
:1024D0005105B1F7E901FB83EA8349915991C40F92
:1024E000D51FEC17FD0761F4808191810296840F5E
:1024F000951FE90199838883828193819B838A83D5
:10250000F0E0E0E012968D919C9113970097B9F559
:102510002D913C911197CD010296820F931F20912E
:10252000EF053091F0052817390739F6309751F546
:102530001092F2051092F105B093F005A093EF050B
:10254000BCCFD383C28340815181840F951FC817AC
:10255000D90761F44E5F5F4F88819981480F591FF9
:10256000518340838A819B81938382832115310526
:1025700009F0B0CFF093F205E093F1059ECFFD0195
:10258000DC01C0CF13821282D7CF4F925F926F923D
:102590007F928F929F92AF92BF92CF92DF92EF92F3
:1025A000FF920F931F93CF93DF938C01009799F4C1
:1025B000CB01DF91CF911F910F91FF90EF90DF90B2
:1025C000CF90BF90AF909F908F907F906F905F90D3
:1025D0004F900C94A011FC01E60FF71F9C012250B4
:1025E0003109E217F30708F4AEC0D901CD91DC91AF
:1025F0001197C617D70720F1C530D10578F0CE0165
:1026000004978617970750F0C61BD70B2297C193E4
:10261000D1936D937C93CF010E943C12C801DF914E
:10262000CF911F910F91FF90EF90DF90CF90BF90CF
:10263000AF909F908F907F906F905F904F90089594
:102640005B01AC1ABD0A4C018C0E9D1EA091F105D8
:10265000B091F205512C412CF12CE12C109731F561
:102660008091EF059091F0058815990509F05CC0FF
:102670004616570608F058C080911802909119022A
:10268000009741F48DB79EB740911C0250911D02F6
:10269000841B950BE817F90708F055C0F093F00577
:1026A000E093EF05F90171836083B8CF8D919C9120
:1026B000119712966C90129713967C901397A81509
:1026C000B90559F56C0142E0C40ED11CCA14DB04F3
:1026D00020F1AC014A195B09DA011296159780F0D6
:1026E0006282738251834083D9016D937C93E1149C
:1026F000F10471F0D7011396FC93EE9312978ECFED
:1027000022968C0F9D1FF90191838083F301EFCFF7
:10271000F093F205E093F10581CF4816590608F4CD
:102720002C017D01D3019ACFCB010E94A0117C0125
:10273000009749F0AE01B8010E94A613C8010E949B
:102740003C1287016BCF10E000E068CFFB01DC0199
:1027500002C001900D9241505040D8F70895FB01FE
:10276000DC0101900D920020E1F7089511E0C3E52E
:10277000D1E000E006C0802FFE010E949811219652
:10278000011DC435D10780E00807A9F7F894FFCFF1
:1027900003020100070605043738392F3435362A7D
:1027A0003132332D6E303D2B0000F30580001900CF
:1027B000180017001600000000004202AC01D90109
:1027C0008F020A02E801FC010000000063083608DD
:1027D000C7080C082F081C080D0800000000900A0C
:1027E000AC01C708C60800000000E103A1037003A4
:1027F000456E7465722053657474696E67733A0030
:10280000507265576173683A004465746572676514
:102810006E74572E3A005761746572572E3A004411
:102820007279696E673A002E2E2E002020202066D5
:10283000696E6973686564202020200020707265CD
:10284000737320616E79206B65792E20000D0A006C
:102850005052455741534800444554455247454E10
:102860005420574153480057415445522057415333
:102870004800445259494E470046494E4953480082
:102880002020412E416C6962616B68736869202069
:10289000002057617368696E674D616368696E6592
:1028A00020006E3A52455345542C783A494E464FD3
:1028B000002B3A414444204D2E002F3A53454C45BD
:1028C0004354204D2E002D3A44454641554C54204A
:1028D0005741534800202020202053455420544F76
:1028E0002020202020002020202044454641554C17
:1028F00054212020202000202053454C45435420C3
:10290000204D4F4445202000202023206D6F64651A
:1029100073203D002F203A20574153480078203A39
:10292000204348414E4745006368616E6765206DEE
:102930006F646500202020504C454153452054527F
:1029400059202020002020202020414741494E21AD
:102950002020202020002023206F66206D6F6465DA
:0E29600073203A20002020202020202000009C
:00000001FF
