:100000000C942F010C9460010C9460010C9460011D
:100010000C9460010C9460010C9460010C946001DC
:100020000C9460010C9460010C9460010C946001CC
:100030000C9460010C9460010C9460010C946001BC
:100040000C9460010C9460010C9460010C946001AC
:100050000C9460010C9460010C9460010C942804D1
:100060000C9460010C9460010C9460010C9460018C
:100070000C9460010C9460010C9460010C9460017C
:100080000C9460010C9460010C9460010C9460016C
:100090000C9460010C9460010C9460010C9460015C
:1000A0000C9460010C9460010C9460010C9460014C
:1000B0000C9460010C9460010C9460010C9460013C
:1000C0000C9460010C9460010C9460010C9460012C
:1000D0000C9460010C9460010C9460010C9460011C
:1000E0000C9460010C94C8010C94E8010C94F2018A
:1000F0000C94BB010C94D6010C94ED010C94AD0151
:100100000C94BF010C94DA010C94D2010C94E00120
:100110000C9434050C9462010C94B3010C94E4012A
:100120000C9422040C94D9020C94DA020C94B701BA
:100130000C94CC010C94EE010C94C201000021003F
:10014000240027002A002D003000330001010000A8
:10015000040107010A0100002200250028002B00ED
:100160002E003100340002010000050108010B01DE
:10017000000020002300260029002C002F00320060
:100180000001000003010601090105050505070539
:1001900008080808020202020A0A08080404040403
:1001A000010101010101010103030303030303032F
:1001B000040707070C0C0C0C0C0C0C0C02020202BE
:1001C00006060606060606060B0B0B0B0B0B0B0BA7
:1001D0000102102020080810204010204080020159
:1001E000020108040201010204081020408080403E
:1001F000201008040201800402018040201008043D
:1002000002010804020101020408102040800102DA
:1002100004081020408000000A0B02090C0D0E0893
:1002200007030401000000000000000000000000BF
:1002300000000000000000000000000000000000BE
:10024000000012111000000000000000000000007B
:100250000000000000000000000000003405112430
:100260001FBECFEFD1E2DEBFCDBF00E00CBF12E07A
:10027000A0E0B2E0E8EBFAE000E00BBF02C00790BC
:100280000D92AC31B107D9F722E0ACE1B2E001C088
:100290001D92AD33B207E1F711E0CFE2D1E000E00B
:1002A00006C021970109802FFE010E945205CE321F
:1002B000D10780E00807A9F70E9472040C945A0540
:1002C0000C940000AF92BF92CF92DF92EF92FF9218
:1002D0000F931F93CF93DF936C017B018B01040F6E
:1002E000151FEB015E01AE18BF08C017D10759F00A
:1002F0006991D601ED91FC910190F081E02DC6014C
:100300001995892B79F7C501DF91CF911F910F9135
:10031000FF90EF90DF90CF90BF90AF900895815005
:10032000823108F05AC0E82FF0E08827E556FE4FEA
:100330008F4F0C945205BB01BF01AD01B301B70152
:10034000ED01C201C801CC01D201D601DA01E00100
:10035000E401ED01E801EE01F201809180008F7768
:10036000809380000895809180008F7DF9CF8091E7
:100370008000877FF5CF84B58F7784BD089584B5DD
:100380008F7DFBCF8091B0008F778093B000089570
:100390008091B0008F7DF9CF809190008F7780930E
:1003A00090000895809190008F7DF9CF809190000A
:1003B000877FF5CF8091A0008F778093A00008956C
:1003C0008091A0008F7DF9CF8091A000877FF5CF2D
:1003D000809120018F7780932001089580912001E2
:1003E0008F7DF9CF80912001877FF5CFCF93DF9369
:1003F000282F30E0F901EA5EFD4F8491F901E053C6
:10040000FE4FD491F901E657FE4FC491CC23A1F0E1
:1004100081110E948F01EC2FF0E0EE0FFF1FE059D9
:10042000FE4FA591B491EC91ED2381E090E009F4A9
:1004300080E0DF91CF91089580E090E0FACF1F93A4
:10044000CF93DF93282F30E0F901EA5EFD4F8491CE
:10045000F901E053FE4FD491F901E657FE4FC491E4
:10046000CC23A9F0162F81110E948F01EC2FF0E010
:10047000EE0FFF1FEA5AFE4FA591B4918FB7F89483
:10048000EC91111108C0D095DE23DC938FBFDF9172
:10049000CF911F910895DE2BF8CFCF93DF9390E09B
:1004A000FC01E053FE4F249186579E4FFC0184913E
:1004B0008823D1F090E0880F991FFC01E45CFE4F87
:1004C000A591B491FC01EA5AFE4FC591D4916111F6
:1004D0000EC09FB7F8948C91E22FE0958E238C93F9
:1004E0002881E223E8839FBFDF91CF9108958FB7E2
:1004F000F894EC91E22BEC938FBFF6CF3FB7F894D2
:100500008091210290912202A0912302B0912402B5
:1005100026B5A89B05C02F3F19F00196A11DB11D5E
:100520003FBFBA2FA92F982F8827BC01CD01620F9A
:10053000711D811D911D42E0660F771F881F991F55
:100540004A95D1F708958F929F92AF92BF92CF9222
:10055000DF92EF92FF920E947E024B015C0184EFDA
:10056000C82EDD24D394E12CF12C0E947E02681960
:1005700079098A099B09683E734081059105A8F3B2
:1005800021E0C21AD108E108F10888EE880E83E064
:10059000981EA11CB11CC114D104E104F10429F777
:1005A000FF90EF90DF90CF90BF90AF909F908F9093
:1005B0000895089590E080E00895CF93DF93EC01D3
:1005C00060E08E810E941F0261E08E810E941F0206
:1005D00060E08E810E941F028BE891E00197F1F7A5
:1005E000DF91CF910895CF92DF92EF92FF920F9318
:1005F0001F93CF93DF936C017C0187E0E80EF11C21
:10060000D0E0C0E0062F10E0B8010C2E02C07595B6
:1006100067950A94E2F76170F70181917F010E946A
:100620001F022196C430D10579F7C601DF91CF9121
:100630001F910F91FF90EF90DF90CF900C94DD020F
:10064000CF92DF92EF92FF920F931F93CF93DF939E
:10065000EC01F62E642F8C810E941F028D818F3F4A
:1006600019F060E00E941F020F2D10E08F8584FFBB
:1006700025C06E0187E0C80ED11CF12CE12CB80119
:100680000E2C02C0759567950A94E2F76170F60129
:1006900081916F010E941F02FFEFEF1AFF0A88E0AD
:1006A000E816F10461F7CE01DF91CF911F910F9110
:1006B000FF90EF90DF90CF900C94DD02B80184E0C2
:1006C000759567958A95E1F7CE010E94F3026F2D2B
:1006D000CE01DF91CF911F910F91FF90EF90DF90AE
:1006E000CF900C94F30240E0682F85E292E00C94E6
:1006F000200381E00E9473038BE39FE10197F1F7F0
:100700000895CF93DF93823029F49091340298605A
:1007100090933402809338021092390280E48093DF
:100720003A0280E180933B0280E580933C0261E0E5
:10073000809129020E944D0280912A028F3F19F078
:1007400061E00E944D0261E080912B020E944D0207
:10075000C5E2D2E09E01255232408091340284FDF0
:100760000BC084E090E021962817390744F461E03B
:100770008E810E944D02EECF88E090E0F4CF8BE3B3
:100780009DE00197F1F760E0809129020E941F022D
:1007900060E080912B020E941F0280912A028F3F0D
:1007A00019F060E00E941F028091340284FD34C081
:1007B00063E085E292E00E94F302CBE4D6E4CE014E
:1007C0000197F1F763E085E292E00E94F30221973E
:1007D000F1F763E085E292E00E94F30283E592E0A4
:1007E0000197F1F762E085E292E00E94F3028091C6
:1007F000340280620E94730384E0809335028CE0AF
:100800000E9473030E94790382E08093360286E09F
:10081000DF91CF910C94730380620E9473038BE489
:1008200096E40197F1F78091340280620E9473038D
:1008300083E592E00197F1F78091340280620E9493
:100840007303D5CF41E00E94200381E090E008953A
:100850001F920F920FB60F9211242F933F938F93F5
:100860009F93AF93BF9380911D0290911E02A09120
:100870001F02B091200230911C0223E0230F2D377C
:1008800058F50196A11DB11D20931C0280931D02F5
:1008900090931E02A0931F02B09320028091210228
:1008A00090912202A0912302B09124020196A11DF1
:1008B000B11D8093210290932202A0932302B09352
:1008C0002402BF91AF919F918F913F912F910F90F3
:1008D0000FBE0F901F90189526E8230F0296A11DBA
:1008E000B11DD2CF789484B5826084BD84B5816017
:1008F00084BD85B5826085BD85B5816085BD8091EB
:100900006E00816080936E00109281008091810062
:10091000826080938100809181008160809381005A
:10092000809180008160809380008091B10084601C
:100930008093B1008091B00081608093B00080917D
:1009400091008260809391008091910081608093FA
:100950009100809190008160809390008091A1002F
:1009600082608093A1008091A10081608093A100AA
:100970008091A00081608093A0008091210182601D
:1009800080932101809121018160809321018091D8
:10099000200181608093200180917A00846080939F
:1009A0007A0080917A00826080937A0080917A0048
:1009B000816080937A0080917A00806880937A00C9
:1009C0001092C10082E00E948103E1E08091380230
:1009D0008111E0E0E195F0E0EB5DFD4F84898068F6
:1009E0000E9473030E9479034AE050E060E172E0E4
:1009F00085E292E00E94620160E088E00E944D0280
:100A000060E089E00E944D0260E08AE00E944D02B1
:100A100080E0E82E80E0F82E88E00E94F601EC01EC
:100A2000909303028093020289E00E94F6018C01F8
:100A300090930102809300028AE00E94F601892BC4
:100A400051F40E9479030E94A302E114F10421F3FE
:100A50000E940000E1CF88E1012B19F0CD2BA9F70E
:100A60008CE10E947303EFCFE5E2F2E01382128281
:100A700088E092E0918380838CE084838FEF85838C
:100A80008BE0868385E0878384E0808783E08187AD
:100A900082E082871386148615861686178681E083
:100AA0000C948103EE0FFF1F881F8BBF0790F691F8
:080AB000E02D1994F894FFCF2A
:100AB800010001000000000022046201DA02D902EC
:0C0AC8004E6567696E2F416D6972000079
:00000001FF
