:100000000C9429010C945A010C945A010C945A0135
:100010000C945A010C945A010C945A010C945A01F4
:100020000C945A010C945A010C945A010C945A01E4
:100030000C945A010C9406030C945A010C945A0126
:100040000C945A010C945A010C945A010C945A01C4
:100050000C945A010C945A010C945A010C94860485
:100060000C945A010C9450040C9426040C945A01DC
:100070000C945A010C945A010C945A010C945A0194
:100080000C945A010C945A010C945A010C945A0184
:100090000C945A010C945A010C945A010C945A0174
:1000A0000C945A010C945A010C945A010C945A0164
:1000B0000C945A010C945A010C945A010C945A0154
:1000C0000C945A010C945A010C945A010C945A0144
:1000D0000C945A010C945A010C945A010C945A0134
:1000E0000C945A010C94F2010C941E040C94AC0173
:1000F0000C94BA010C94FC030C9498010C94E70343
:100100000C940A040C9422040C94EF030C943F0208
:100110000C9489010C9410040C9402040C945C015E
:100120000C94F2030C9418040C94CE030C94060463
:100130000C94F8030C94D3030C94EB030C94C109B6
:100140000C9414040C94E30300000A0B02090C0D38
:100150000E0807030401000000000000000000007A
:10016000000000000000000000000000000000008F
:10017000000000001211100000000000000000004C
:10018000000000000000000000000000000000006F
:100190002100240027002A002D0030003300010137
:1001A0000000040107010A010102102020080810C4
:1001B00020401020408002010201080402010102D7
:1001C00004081020408080402010080402018004B0
:1001D000020180402010080402010804020101020B
:1001E0000408102040800102040810204080000014
:1001F0002200250028002B002E00310034000201CF
:100200000000050108010B010505050507050808A3
:100210000808020202020A0A080804040404010190
:1002200001010101010103030303030303030407A5
:1002300007070C0C0C0C0C0C0C0C0202020206063C
:100240000606060606060B0B0B0B0B0B0B0B020030
:10025000C10911241FBECFEFD1E2DEBFCDBF00E048
:100260000CBF12E0A0E0B2E0E0E9F8E100E00BBF73
:1002700002C007900D92A23DB107D9F723E0A2ED8D
:10028000B2E001C01D92AC39B207E1F711E0C9E25A
:10029000D1E000E006C021970109802FFE010E94F5
:1002A000140CC832D10780E00807A9F70E94D004D7
:1002B0000C94460C0C940000AF92BF92CF92DF9248
:1002C000EF92FF920F931F93CF93DF936C017B010B
:1002D0008B01040F151FEB015E01AE18BF08C0179C
:1002E000D10759F06991D601ED91FC910190F0810F
:1002F000E02DC6011995892B79F7C501DF91CF91C2
:100300001F910F91FF90EF90DF90CF90BF90AF9033
:100310000895FC01538D448D252F30E0842F90E00B
:10032000821B930B541710F0CF96089501970895F0
:10033000FC01918D828D981761F0A28DAE0FBF2FB9
:10034000B11D5D968C91928D9F5F9F73928F90E00F
:1003500008958FEF9FEF0895FC01918D828D98177E
:1003600031F0828DE80FF11D858D90E008958FEFBB
:100370009FEF0895FC01918D228D892F90E0805C84
:100380009F4F821B91098F73992708958FEF92E0F9
:100390000E94BA0121E0892B09F420E0822F089500
:1003A000FC01A48DA80FB92FB11DA35ABF4F2C91EA
:1003B000848D90E001968F739927848FA689B789E1
:1003C0002C93A089B1898C91837080648C93938DD8
:1003D000848D981306C00288F389E02D80818F7D7B
:1003E00080830895EF92FF920F931F93CF93DF9333
:1003F000EC0181E0888F9B8D8C8D98131AC0E88961
:10040000F989808185FF15C09FB7F894EE89FF892F
:100410006083E889F98980818370806480839FBFCD
:1004200081E090E0DF91CF911F910F91FF90EF90CD
:100430000895F62E0B8D10E00F5F1F4F0F731127DD
:10044000E02E8C8D8E110CC00FB607FCFACFE88918
:10045000F989808185FFF5CFCE010E94D001F1CFCF
:10046000EB8DEC0FFD2FF11DE35AFF4FF0829FB78C
:10047000F8940B8FEA89FB8980818062CFCFCF937C
:10048000DF93EC01888D8823B9F0AA89BB89E889BC
:10049000F9898C9185FD03C0808186FD0DC00FB662
:1004A00007FCF7CF8C9185FFF2CF808185FFEDCFE0
:1004B000CE010E94D001E9CFDF91CF91089580E075
:1004C00090E0892B29F00E94C60181110E94000052
:1004D00080E090E0892B49F080E090E0892B29F0C2
:1004E0000E94000081110E94000080E090E0892BB2
:1004F00049F080E090E0892B29F00E9400008111F2
:100500000E94000080E090E0892B49F080E090E0BC
:10051000892B29F00E94000081110C94000008959D
:100520003FB7F8948091D7029091D802A091D90258
:10053000B091DA0226B5A89B05C02F3F19F00196AD
:10054000A11DB11D3FBFBA2FA92F982F8827BC012D
:10055000CD01620F711D811D911D42E0660F771F55
:10056000881F991F4A95D1F70895FC01019000203A
:10057000E9F73197AF01481B590BBC018FEF92E0AF
:100580000C945C018F929F92AF92BF920F931F9336
:10059000CF93DF93CDB7DEB7A1970FB6F894DEBF48
:1005A0000FBECDBF19A2423008F44AE08E010F5DA4
:1005B0001F4F842E912CB12CA12CA50194010E94D7
:1005C000D30BE62FB901CA01EA30F4F4E05DD8019B
:1005D000EE938D01232B242B252B79F790E080E0DF
:1005E000109719F0CD010E94B502A1960FB6F894AC
:1005F000DEBF0FBECDBFDF91CF911F910F91BF9096
:10060000AF909F908F900895E95CE1CF1F920F9279
:100610000FB60F9211240BB60F922F933F938F9327
:100620009F93AF93BF93EF93FF938091EF029091CD
:10063000F002A091F102B091F202892B8A2B8B2B50
:10064000C1F19091DE02E091DF02F091E002808141
:10065000892780838091EF029091F002A091F102AE
:10066000B091F202181619061A061B069CF4809126
:10067000EF029091F002A091F102B091F202019785
:10068000A109B1098093EF029093F002A093F102C7
:10069000B093F202FF91EF91BF91AF919F918F9133
:1006A0003F912F910F900BBE0F900FBE0F901F9098
:1006B000189520910002EEE4F2E0E4918FEF809330
:1006C0000002E23009F44DC008F036C0EE2309F410
:1006D0003FC0E13009F43FC030E0F901E85BFE4F74
:1006E0008491F901E855FE4F9491285F3D4FF9013F
:1006F0002491222379F2882309F455C08150823154
:1007000008F051C0E82FF0E08827E657FC4F8F4FE4
:100710000C94140CEB03EF03CE03E303E703D303C2
:10072000F203F803FC03020406040A041004140490
:10073000D30318041E042204E43051F118F1E5300B
:1007400009F0CACF809173008D7F80937300C4CF6E
:1007500010926E00C1CF80916F008D7F80936F00EB
:10076000BBCF809170008D7F8093700081E080937B
:10077000B0008091B100887F84608093B1001092B6
:10078000B300AACF809171008D7F80937100A4CFB8
:10079000809172008D7F809372009ECF8091800047
:1007A0008F7780938000E22FF0E0EE0FFF1FE25181
:1007B000FE4FA591B4918FB7F894EC9190959E233C
:1007C0009C938FBF67CF809180008F7DEACF80910F
:1007D0008000877FE6CF84B58F7784BDE4CF84B572
:1007E0008F7DFBCF8091B0008F778093B000DBCFFF
:1007F0008091B0008F7DF9CF809190008F778093AA
:100800009000D1CF809190008F7DF9CF80919000A2
:10081000877FF5CF8091A0008F778093A000C3CF12
:100820008091A0008F7DF9CF8091A000877FF5CFC8
:10083000809120018F7780932001B5CF8091200196
:100840008F7DF9CF80912001877FF5CF1F920F9286
:100850000FB60F9211240BB60F922F933F934F9325
:100860005F936F937F938F939F93AF93BF93EF9318
:10087000FF938FEF92E00E94D001FF91EF91BF9123
:10088000AF919F918F917F916F915F914F913F9128
:100890002F910F900BBE0F900FBE0F901F901895C9
:1008A0001F920F920FB60F9211240BB60F922F9337
:1008B0008F939F93EF93FF93E0910F03F0911003B9
:1008C0008081E0911503F091160382FD1DC0908197
:1008D000809118038F5F8F7320911903821741F065
:1008E000E0911803F0E0E150FD4F958F80931803DD
:1008F000FF91EF919F918F912F910F900BBE0F90D1
:100900000FBE0F901F9018958081F2CF1F920F920B
:100910000FB60F9211242F933F938F939F93AF9312
:10092000BF938091D3029091D402A091D502B0914F
:10093000D6023091D20223E0230F2D3758F50196CD
:10094000A11DB11D2093D2028093D3029093D402B3
:10095000A093D502B093D6028091D7029091D8028D
:10096000A091D902B091DA020196A11DB11D809328
:10097000D7029093D802A093D902B093DA02BF9124
:10098000AF919F918F913F912F910F900FBE0F903C
:100990001F90189526E8230F0296A11DB11DD2CFF6
:1009A000CF93DF93CDB7DEB72F970FB6F894DEBFA6
:1009B0000FBECDBF789484B5826084BD84B581605C
:1009C00084BD85B5826085BD85B5816085BD80911A
:1009D0006E00816080936E00109281008091810092
:1009E000826080938100809181008160809381008A
:1009F000809180008160809380008091B10084604C
:100A00008093B1008091B00081608093B0008091AC
:100A10009100826080939100809191008160809329
:100A20009100809190008160809390008091A1005E
:100A300082608093A1008091A10081608093A100D9
:100A40008091A00081608093A0008091210182604C
:100A50008093210180912101816080932101809107
:100A6000200181608093200180917A0084608093CE
:100A70007A0080917A00826080937A0080917A0077
:100A8000816080937A0080917A00806880937A00F8
:100A90001092C100E0910F03F091100382E0808377
:100AA000E0910B03F0910C0381E08083E0910D0352
:100AB000F0910E0380EA808310921703E0911303F4
:100AC000F091140386E08083E0911103F09112030A
:100AD000808180618083E0911103F0911203808115
:100AE00088608083E0911103F09112038081806817
:100AF0008083E0911103F091120380818F7D8083C8
:100B00002BE632E03A83298383E192E098878F8352
:100B10000DED11E04DE3242E42E0342EE3ECF2E043
:100B200029813A81E217F30709F428C480917B00F8
:100B3000886080937B0037E430937C0080917A005A
:100B4000806480937A0080917A0086FDFCCF80914A
:100B5000780060917900762F682F072E000C880BA3
:100B6000990B0E94980A20E030E040E05BE30E948D
:100B70004D0B6B017C014B015C01C092FB02D092DA
:100B8000FC02E092FD02F092FE02AC019B010E9489
:100B9000BA0B882309F44FC083EC92E00E94B5029F
:100BA0008FEC92E00E94B502E981FA816191719126
:100BB000FA83E98388EE93E00E94BF0B7A87698706
:100BC000EF81F88561917191F887EF83C090FB0206
:100BD000D090FC02E090FD02F090FE0280910002B5
:100BE00029853A852901330F66087708853309F08E
:100BF000B6C0EEE4F2E0F491FF87FF85F7FF1FC176
:100C0000C301B2010E94980A2AE939E949E95FE380
:100C10000E944D0B0E94600A6B01770FEE08FF08DF
:100C20000E9490024B015C01C114D104E104F10463
:100C300009F098C373CF26013701E89477F82FEFB6
:100C40003FEF4FE75FE7C301B2010E94BA0B81118A
:100C50000DC02FEF3FEF4FE75FE7C301B2010E94E6
:100C60005B0A18161CF487EC92E098CF2FEF3FEF49
:100C70004FE75FE4C701B6010E94480B18161CF449
:100C80008BEC92E08BCF2FEF3FEF4FE75FECC7018C
:100C9000B6010E945B0A87FDF3CF20E030E0A90196
:100CA000C701B6010E945B0A87FF0BC06DE28FEFA0
:100CB00092E00E94F20146015701B7FAB094B7F8EA
:100CC000B0942AE037ED43EA5BE3C501B4010E942A
:100CD000EF094B015C010E94670A6B017C010E94D5
:100CE000960A9B01AC01C501B4010E94EE094B01BB
:100CF0005C014AE0C701B6010E94C2026EE28FEFBA
:100D000092E00E94F20120E030E040E251E4C501AF
:100D1000B4010E944D0B4B015C010E94670A6B01FC
:100D2000F12CE12C4AE0C701B6010E94C202C701C2
:100D3000B6010E94960A9B01AC01C501B4010E9454
:100D4000EE0920E030E040E251E40E944D0B0E94A9
:100D5000670A90E080E04AE00E94C20221CF8F3F04
:100D600009F04ECF85E380930002EEE4F2E0F491C7
:100D7000FF87FF3F09F444CFF23009F43EC118F574
:100D8000FF2309F446C0F13009F037CF10928000FC
:100D90001092810080918100886080938100809111
:100DA0008100816080938100F1018491E82FF0E05F
:100DB000EE0FFF1FE251FE4F85919491F80184914F
:100DC0008093E1023CC02F85243009F456C108F419
:100DD00035C1253009F011CF109220011092210168
:100DE000809121018860809321018091210181609F
:100DF00080932101F1018491E82FF0E0EE0FFF1FB5
:100E0000E251FE4F85919491F80184918093DB0229
:100E100016C014BC15BC84B5826084BD85B58160E4
:100E200085BDF1018491E82FF0E0EE0FFF1FE25144
:100E3000FE4F85919491F80184918093E202F8012C
:100E40004491F1018491882399F090E0880F991FD3
:100E5000FC01E257FE4FA591B491FC01E251FE4F17
:100E6000259134918FB7F8949C91492B4C938FBF67
:100E7000072E000C880B990B0E94980AA701960177
:100E80000E944D0B0E94600A6B877C878D879E872E
:100E90002B853C854901B12CA12C60E072E18AE7E9
:100EA00090E0A5010E94F50B2B833C834D835E836C
:100EB00069017A0131E0C31AD108E108F1088F8590
:100EC0008D7F09F074C18FEFC816D104E104F104DD
:100ED00009F00CF43BC160E472E48FE090E0A501FE
:100EE00094010E94F50B69017A0191E0C91AD108B9
:100EF000E108F108EF85E23009F0DCC082E0FFEFA5
:100F0000CF16D104E104F10409F00CF46FC060E9DC
:100F100070ED83E090E0A50194010E94F50B69015A
:100F20007A0181E0C81AD108E108F10883E09FEF57
:100F3000C916D104E104F10409F00CF457C068E4C7
:100F400078EE81E090E0A50194010E94F50B690123
:100F50007A0191E0C91AD108E108F10884E0EFEFC5
:100F6000CE16D104E104F10409F00CF43FC064E2B0
:100F700074EF80E090E0A50194010E94F50B6901F7
:100F80007A0181E0C81AD108E108F10885E09FEFF5
:100F9000C916D104E104F10449F140F162E17AE7B4
:100FA00080E090E0A50194010E94F50B69017A01AF
:100FB000F1E0CF1AD108E108F10886E02FEFC21660
:100FC000D104E104F10491F088F0CB80DC80ED8065
:100FD000FE808AE0F594E794D794C7948A95D1F778
:100FE00081E0C81AD108E108F10887E09091B100CA
:100FF000987F892B8093B100B1C01092B0001092FD
:10100000B1008091B00082608093B0008091B10007
:1010100081608093B100F1018491E82FF0E0EE0F40
:10102000FF1FE251FE4F859194919093E0028093CF
:10103000DF02F80184918093DE0201CF10929000CC
:10104000109291008091910088608093910080912E
:101050009100816080939100F1018491E82FF0E08C
:10106000EE0FFF1FE251FE4F85919491F80184919C
:101070008093DD02F3E0FF87E2CE1092A000109291
:10108000A1008091A10088608093A1008091A100BF
:1010900081608093A100F1018491E82FF0E0EE0FD0
:1010A000FF1FE251FE4F85919491F8018491809346
:1010B000DC02C5CEEFEFCE16D104E104F10409F055
:1010C0000CF473C068E478EE81E090E0A50194012F
:1010D0000E94F50B69017A01F1E0CF1AD108E1080D
:1010E000F1082F8584E0211152CF83E03FEFC31632
:1010F000D104E104F10471F16CF162E17AE780E07E
:1011000090E0A50194010E94F50B69017A0191E03C
:10111000C91AD108E108F10884E0EFEFCE16D10436
:10112000E104F104B9F0B0F0CB80DC80ED80FE800A
:101130009AE0F594E794D794C7949A95D1F731E063
:10114000C31AD108E108F10885E004C081E0FF85F9
:10115000F1114CCF95B5987F892B85BD2FEF3FEFCF
:10116000A901411451046104710409F048C08F853C
:10117000823009F4D6C00CF0BDC0882309F4C2C087
:10118000813009F03DCDD0928900C0928800209333
:10119000F3023093F4024093F5025093F6028091EB
:1011A0006F00826080936F002BCD82E0D0CF91E002
:1011B000C114D10421E0E206F10484F068E478EE81
:1011C00081E090E0A50194010E94F50B69017A018C
:1011D00081E0C81AD108E108F10893E0EF85E13019
:1011E000E9F480918100887F892B809381002FEF23
:1011F0003FEFA901411451046104710421F22B85D0
:101200003C85220F331FA985BA850E941C0C28EE4D
:1012100033E040E050E00E94D30BA9CFFF85F330CC
:1012200001F580919100887F892B809391002FEFA9
:101230003FEFA901411451046104710401F7D092F8
:101240009900C09298002093EB023093EC024093F7
:10125000ED025093EE0280917100826080937100E4
:10126000CFCC2F85243009F58091A100887F892B70
:101270008093A1002FEF3FEFA901411451046104B5
:10128000710409F0BCCFD092A900C092A8002093AD
:10129000E7023093E8024093E9025093EA0280911A
:1012A0007200826080937200ABCC3F85353009F0CC
:1012B00055CF80912101887F892B809321012FEFC9
:1012C0003FEFA901411451046104710409F097CF63
:1012D000D0922901C09228012093E3023093E402C6
:1012E0004093E5025093E602809173008260809300
:1012F000730086CC9F85943031F20CF4A0CF9530EA
:1013000039F37ECCC7BC2093F7023093F8024093A8
:10131000F9025093FA0280916E00826080936E0011
:101320006FCCC092B3002093EF023093F002409351
:10133000F1025093F20280917000826080937000FD
:101340005FCCE1E0CE1AD108E108F108F8EE8F0E8B
:10135000F3E09F1EA11CB11CC114D104E104F104EF
:1013600009F462CC0E949002681979098A099B09E4
:10137000683E73408105910520F756CC0E945F02BC
:10138000BFCBEFEFF2E01382128288EE93E0A0E091
:10139000B0E084839583A683B78385E092E0918350
:1013A000808385EC90E09587848784EC90E0978734
:1013B000868780EC90E0918B808B81EC90E0938B22
:1013C000828B82EC90E0958B848B86EC90E0978BFF
:1013D000868B118E128E138E148E08955058BB2753
:1013E000AA270E94060A0C940E0B0E94000B38F0EC
:1013F0000E94070B20F039F49F3F19F426F40C9457
:10140000FD0A0EF4E095E7FB0C94F70AE92F0E9421
:101410001F0B58F3BA17620773078407950720F06C
:1014200079F4A6F50C94410B0EF4E0950B2EBA2F2F
:10143000A02D0B01B90190010C01CA01A0011124DA
:10144000FF27591B99F0593F50F4503E68F11A1686
:10145000F040A22F232F342F4427585FF3CF469517
:1014600037952795A795F0405395C9F77EF41F1639
:10147000BA0B620B730B840BBAF09150A1F0FF0F03
:10148000BB1F661F771F881FC2F70EC0BA0F621FEF
:10149000731F841F48F4879577956795B795F795DF
:1014A0009E3F08F0B0CF9395880F08F09927EE0F74
:1014B0009795879508950E94D30A08F481E00895CE
:1014C0000E94670A6894B1110C94420B08950E941F
:1014D000270B88F09F5798F0B92F9927B751B0F094
:1014E000E1F0660F771F881F991F1AF0BA95C9F7A8
:1014F00014C0B13091F00E94410BB1E008950C94FA
:10150000410B672F782F8827B85F39F0B93FCCF3AC
:10151000869577956795B395D9F73EF49095809524
:10152000709561957F4F8F4F9F4F0895E89409C044
:1015300097FB3EF490958095709561957F4F8F4F06
:101540009F4F9923A9F0F92F96E9BB279395F6951C
:10155000879577956795B795F111F8CFFAF4BB0F9A
:1015600011F460FF1BC06F5F7F4F8F4F9F4F16C0FE
:10157000882311F096E911C0772321F09EE8872F88
:10158000762F05C0662371F096E8862F70E060E044
:101590002AF09A95660F771F881FDAF7880F9695BD
:1015A000879597F90895990F0008550FAA0BE0E861
:1015B000FEEF16161706E807F907C0F01216130615
:1015C000E407F50798F0621B730B840B950B39F455
:1015D0000A2661F0232B242B252B21F408950A26BB
:1015E00009F4A140A6958FEF811D811D089597F9FB
:1015F0009F6780E870E060E008959FEF80EC0895B9
:1016000000240A94161617061806090608950024E1
:101610000A9412161306140605060895092E03945B
:10162000000C11F4882352F0BB0F40F4BF2B11F4CF
:1016300060FF04C06F5F7F4F8F4F9F4F089557FD2E
:101640009058440F551F59F05F3F71F04795880F30
:1016500097FB991F61F09F3F79F0879508951216C7
:1016600013061406551FF2CF4695F1DF08C0161673
:1016700017061806991FF1CF869571056105089424
:101680000895E894BB2766277727CB0197F908953B
:101690000E94D30A08F48FEF08950E94600B0C9407
:1016A0000E0B0E94000B38F00E94070B20F09523D0
:1016B00011F00C94F70A0C94FD0A11240C94420BBF
:1016C0000E941F0B70F3959FC1F3950F50E0551FBB
:1016D000629FF001729FBB27F00DB11D639FAA2787
:1016E000F00DB11DAA1F649F6627B00DA11D661FD6
:1016F000829F2227B00DA11D621F739FB00DA11DF7
:10170000621F839FA00D611D221F749F3327A00DB0
:10171000611D231F849F600D211D822F762F6A2F4C
:1017200011249F5750409AF0F1F088234AF0EE0FB1
:10173000FF1FBB1F661F771F881F91505040A9F7DE
:101740009E3F510580F00C94F70A0C94420B5F3FCA
:10175000E4F3983ED4F3869577956795B795F7951A
:10176000E7959F5FC1F7FE2B880F911D9695879592
:1017700097F908950E94D30A880B990B089597FB57
:10178000072E16F4009407D077FD09D00E94230C91
:1017900007FC05D03EF4909581959F4F0895709574
:1017A00061957F4F0895A1E21A2EAA1BBB1BFD0174
:1017B0000DC0AA1FBB1FEE1FFF1FA217B307E40730
:1017C000F50720F0A21BB30BE40BF50B661F771F88
:1017D000881F991F1A9469F7609570958095909568
:1017E0009B01AC01BD01CF010895052E97FB1EF4AE
:1017F00000940E940C0C57FD07D00E94D30B07FCED
:1018000003D04EF40C940C0C5095409530952195D6
:101810003F4F4F4F5F4F089590958095709561951C
:101820007F4F8F4F9F4F0895EE0FFF1F881F8BBF75
:101830000790F691E02D19940E94370CB7FF089598
:10184000821B930B0895AA1BBB1B51E107C0AA1F63
:10185000BB1FA617B70710F0A61BB70B881F991F51
:101860005A95A9F780959095BC01CD010895A29F46
:10187000B001B39FC001A39F700D811D1124911D64
:10188000B29F700D811D1124911D0895F894FFCF12
:10189000FF00000000F2015C0189013F02BA0198DB
:1018A00001AC018801880188014A01D20188014AFE
:1018B00001D20188014B024B024B026E02D201722F
:1018C000014A01D20188011003880188011003E454
:1018D00002BA0293026E02930200009F012A020BD9
:1018E00002EE01D201B801D20100004A0172014AA0
:1018F000018801D2018801D2014B020600060006D0
:101900000008001800060008001800030006000682
:101910000006000800180006000800180003000672
:101920000008001800060008001800180018000C35
:10193000000C000C00060008001800180018000C2D
:10194000000C000C00060008001800060008001833
:101950000003006E616E00696E66006F7666000DB2
:021960000A007B
:00000001FF
