:020000040000FA
:100000000C945D000C947A000C947A000C947A00A5
:100010000C947A000C947A000C947A000C94C6002C
:100020000C947A000C947A000C947A000C947A0068
:100030000C947A000C947A000C947A000C947A0058
:100040000C947C000C947A000C947A000C947A0046
:100050000C947A000C947A000C947A000C947A0038
:100060000C947A000C947A00000000080002010051
:100070000003040700000000000000000000000072
:10008000240027002A0001020408102040800102F9
:1000900004081020010204081020000000002500C0
:1000A00028002B00040404040404040402020202D5
:1000B0000202030303030303020011241FBECFEF58
:1000C000D8E0DEBFCDBF11E0A0E0B1E0EAE7F5E0A7
:1000D00002C005900D92A230B107D9F721E0A2E04D
:1000E000B1E001C01D92AC31B207E1F70E94890175
:1000F0000C94BB020C9400001F920F920FB60F924B
:1001000011242F933F938F939F93AF93BF9380912D
:10011000180190911901A0911A01B0911B01309121
:10012000170123E0230F2D3758F50196A11DB11DAE
:10013000209317018093180190931901A0931A013D
:10014000B0931B018091130190911401A0911501AE
:10015000B09116010196A11DB11D809313019093DA
:100160001401A0931501B0931601BF91AF919F9117
:100170008F913F912F910F900FBE0F901F90189568
:1001800026E8230F0296A11DB11DD2CF1F920F9218
:100190000FB60F9211242F933F938F939F93AF939A
:1001A000BF93EF93FF938091070190910801A09175
:1001B0000901B0910A01892B8A2B8B2BB1F1909107
:1001C0000201E0910301F09104018081892780837D
:1001D0008091070190910801A0910901B0910A0155
:1001E000181619061A061B069CF4809107019091B7
:1001F0000801A0910901B0910A010197A109B10973
:100200008093070190930801A0930901B0930A011C
:10021000FF91EF91BF91AF919F918F913F912F915E
:100220000F900FBE0F901F90189580910001E8EB82
:10023000F0E0E4919FEF90930001E13009F431C0C8
:1002400068F1E23009F433C090E0FC01E859FF4F57
:100250002491FC01EA57FF4F3491FC01EC55FF4F0C
:10026000E491EE23A9F2222351F0233009F43AC09D
:1002700078F5213009F43CC0223009F43DC0F0E0AB
:10028000EE0FFF1FE656FF4FA591B4918FB7F8947C
:10029000EC9130953E233C938FBFBACF10926E0005
:1002A000D3CF90916F009D7F90936F00CDCF9091B1
:1002B00070009D7F9093700091E09093B0009091BA
:1002C000B100987F94609093B1001092B300BCCFBE
:1002D0002730A9F02830C9F0243089F680918000B9
:1002E0008F7D03C0809180008F7780938000C7CF7F
:1002F00084B58F7784BDC3CF84B58F7DFBCF8091CC
:10030000B0008F778093B000BACF8091B0008F7D1E
:10031000F9CF789484B5826084BD84B5816084BD52
:1003200085B5826085BD85B5816085BD80916E0093
:10033000816080936E0010928100809181008260C4
:100340008093810080918100816080938100809101
:1003500080008160809380008091B10084608093F0
:10036000B1008091B00081608093B00080917A00EC
:10037000846080937A0080917A00826080937A0012
:1003800080917A00816080937A0080917A00806801
:1003900080937A001092C10080910001853349F06A
:1003A0008F3F69F0C0E0D0E02097F1F30E94000099
:1003B000FBCFE8EBF0E0849187FDF4CF48C085E304
:1003C00080930001E8EBF0E084918F3F59F3813096
:1003D00009F47EC020F1823079F71092B0001092BB
:1003E000B1009091B00092609093B0009091B100F4
:1003F00091609093B100E9EDF0E0E491F0E0EE0F50
:10040000FF1FE656FF4F259134913093040120934E
:100410000301EBEBF0E0E491E093020118C014BC9F
:1004200015BC84B5826084BD85B5816085BDE9ED6C
:10043000F0E0E491F0E0EE0FFF1FE656FF4F8591EC
:100440009491EBEBF0E0E491E093060180E0EBEBBC
:10045000F0E09491E9EDF0E02491222399F030E06E
:10046000220F331FF901E458FF4FA591B491F90110
:10047000E656FF4F259134912FB7F894EC91E92B74
:10048000EC932FBF882309F458C0823009F46CC064
:10049000813009F03BC080918100887F8360809328
:1004A000810081EE94E090938900809388008FEF23
:1004B0009FEFDC0180930B0190930C01A0930D0141
:1004C000B0930E0180916F00826080936F006ACFBD
:1004D000109280001092810090918100986090931A
:1004E000810090918100916090938100E9EDF0E0AE
:1004F000E491F0E0EE0FFF1FE656FF4F2591349197
:10050000EBEBF0E0E491E0930501A1CF823009F03C
:1005100049CF81EE8093B3008FEF9FEFDC01809392
:10052000070190930801A0930901B0930A018091FB
:10053000700082608093700035CF85B5887F8560BC
:1005400085BD8DE487BD8FEF9FEFDC0180930F01A8
:1005500090931001A0931101B093120180916E004D
:10056000826080936E001ECF8091B100876080937F
:0C057000B1008DE4CFCFF894FFCFFF0066
:107E0000112484B714BE81FFF0D085E080938100F7
:107E100082E08093C00088E18093C10086E0809377
:107E2000C20080E18093C4008EE0C9D0259A86E02C
:107E300020E33CEF91E0309385002093840096BBD3
:107E4000B09BFECF1D9AA8958150A9F7CC24DD24C4
:107E500088248394B5E0AB2EA1E19A2EF3E0BF2EE7
:107E6000A2D0813461F49FD0082FAFD0023811F036
:107E7000013811F484E001C083E08DD089C08234E0
:107E800011F484E103C0853419F485E0A6D080C0E4
:107E9000853579F488D0E82EFF2485D0082F10E0AE
:107EA000102F00270E291F29000F111F8ED06801E7
:107EB0006FC0863521F484E090D080E0DECF843638
:107EC00009F040C070D06FD0082F6DD080E0C81688
:107ED00080E7D80618F4F601B7BEE895C0E0D1E017
:107EE00062D089930C17E1F7F0E0CF16F0E7DF06D8
:107EF00018F0F601B7BEE89568D007B600FCFDCFD4
:107F0000A601A0E0B1E02C9130E011968C91119780
:107F100090E0982F8827822B932B1296FA010C0160
:107F200087BEE89511244E5F5F4FF1E0A038BF0790
:107F300051F7F601A7BEE89507B600FCFDCF97BE46
:107F4000E89526C08437B1F42ED02DD0F82E2BD052
:107F50003CD0F601EF2C8F010F5F1F4F84911BD097
:107F6000EA94F801C1F70894C11CD11CFA94CF0C13
:107F7000D11C0EC0853739F428D08EE10CD085E9AC
:107F80000AD08FE07ACF813511F488E018D01DD067
:107F900080E101D065CF982F8091C00085FFFCCF94
:107FA0009093C60008958091C00087FFFCCF809118
:107FB000C00084FD01C0A8958091C6000895E0E648
:107FC000F0E098E1908380830895EDDF803219F02E
:107FD00088E0F5DFFFCF84E1DECF1F93182FE3DFCA
:107FE0001150E9F7F2DF1F91089580E0E8DFEE27F6
:047FF000FF270994CA
:027FFE00040479
:00000001FF
