:100000000C942B010C945C010C945C010C945C012D
:100010000C945C010C945C010C945C010C945C01EC
:100020000C945C010C945C010C945C010C945C01DC
:100030000C945C010C945C010C945C010C945C01CC
:100040000C945C010C945C010C945C010C945C01BC
:100050000C945C010C945C010C945C010C945E05A6
:100060000C945C010C9428050C94FE040C945C0127
:100070000C945C010C945C010C945C010C945C018C
:100080000C945C010C945C010C945C010C945C017C
:100090000C945C010C945C010C945C010C945C016C
:1000A0000C945C010C945C010C945C010C945C015C
:1000B0000C945C010C945C010C945C010C945C014C
:1000C0000C945C010C945C010C945C010C945C013C
:1000D0000C945C010C945C010C945C010C945C012C
:1000E0000C945C010C9400030C94F7020C94C00176
:1000F0000C94D4020C9453020C94AC010C94EF02B7
:100100000C9412030C942A030C94F3020C9426030F
:100110000C949D010C940E030C940A030C941C0384
:100120000C94CE010C94C8070C9470010C94FA0244
:100130000C94A8050C9418030C94D9020C94040395
:100140000C9420030C94EB020C9406020000220095
:10015000250028002B002E00310034000201000091
:10016000050108010B0100000A0B02090C0D0E0825
:100170000703040100000000000000000000000070
:10018000000000000000000000000000000000006F
:10019000000012111000000000000000000000002C
:1001A000000000000000000000000000000021002E
:1001B000240027002A002D00300033000101000038
:1001C000040107010A010102102020080810204044
:1001D000102040800201020108040201010204080B
:1001E0001020408080402010080402018004020199
:1001F00080402010080402010804020101020408E2
:1002000010204080010204081020408005050505EB
:10021000070508080808020202020A0A080804047E
:1002200004040101010101010101030303030303AC
:100230000303040707070C0C0C0C0C0C0C0C02023B
:10024000020206060606060606060B0B0B0B0B0B38
:100250000B0BA805C80711241FBECFEFD1E2DEBFEC
:10026000CDBF00E00CBF12E0A0E0B2E0E8E1F5E1B4
:1002700000E00BBF02C007900D92A235B107D9F77D
:1002800023E0A2E5B2E001C01D92AA30B207E1F777
:1002900011E0CAE2D1E000E006C021970109802FF9
:1002A000FE010E945508C932D10780E00807A9F76E
:1002B0000E94F2050C947A0A0C940000FC0124813F
:1002C00035816217730720F480819181009729F4AA
:1002D00010925B028BE592E00895860F971F0895B8
:1002E000AF92BF92CF92DF92EF92FF920F931F9344
:1002F000CF93DF936C017B018B01040F151FEB0182
:100300005E01AE18BF08C017D10759F06991D60138
:10031000ED91FC910190F081E02DC6011995892B9A
:1003200079F7C501DF91CF911F910F91FF90EF9069
:10033000DF90CF90BF90AF900895FC01538D448D16
:10034000252F30E0842F90E0821B930B541710F080
:10035000CF96089501970895FC01918D828D98178D
:1003600061F0A28DAE0FBF2FB11D5D968C91928D65
:100370009F5F9F73928F90E008958FEF9FEF089596
:10038000FC01918D828D981731F0828DE80FF11D5F
:10039000858D90E008958FEF9FEF0895FC01918D7A
:1003A000228D892F90E0805C9F4F821B91098F7373
:1003B000992708958DE592E00E94CE0121E0892BD6
:1003C00009F420E0822F0895FC01A48DA80FB92F15
:1003D000B11DA35ABF4F2C91848D90E001968F736D
:1003E0009927848FA689B7892C93A089B1898C918C
:1003F000837080648C93938D848D981306C00288DB
:10040000F389E02D80818F7D80830895EF92FF92A4
:100410000F931F93CF93DF93EC0181E0888F9B8D27
:100420008C8D98131AC0E889F989808185FF15C0E1
:100430009FB7F894EE89FF896083E889F989808104
:100440008370806480839FBF81E090E0DF91CF91D3
:100450001F910F91FF90EF900895F62E0B8D10E0F5
:100460000F5F1F4F0F731127E02E8C8D8E110CC064
:100470000FB607FCFACFE889F989808185FFF5CFAF
:10048000CE010E94E401F1CFEB8DEC0FFD2FF11DA9
:10049000E35AFF4FF0829FB7F8940B8FEA89FB89EC
:1004A00080818062CFCFCF93DF93EC01888D88234A
:1004B000B9F0AA89BB89E889F9898C9185FD03C0C7
:1004C000808186FD0DC00FB607FCF7CF8C9185FFAC
:1004D000F2CF808185FFEDCFCE010E94E401E9CF0C
:1004E000DF91CF91089580E090E0892B29F00E9460
:1004F000DA0181110E94000080E090E0892B49F030
:1005000080E090E0892B29F00E94000081110E9478
:10051000000080E090E0892B49F080E090E0892B9A
:1005200029F00E94000081110E94000080E090E00C
:10053000892B49F080E090E0892B29F00E9400008F
:1005400081110C9400000895282F30E0F901EA5938
:10055000FE4F9491F901EA53FE4F4491245F3D4FC1
:10056000F9012491222309F435C0992311F1915006
:100570009231F8F4E92FF0E08827EE53FD4F8F4FCA
:100580000C945508F302F702D402EB02EF02D902F1
:10059000FA02000304030A030E03120318031C03E8
:1005A000D902200326032A03809180008F7780934D
:1005B0008000E22FF0E0EE0FFF1FE45BFE4FA591FD
:1005C000B4918FB7F894EC91611148C040954E23D7
:1005D0004C938FBF0895809180008F7DE8CF8091EC
:1005E0008000877FE4CF84B58F7784BDE2CF84B568
:1005F0008F7DFBCF8091B0008F778093B000D9CFF3
:100600008091B0008F7DF9CF809190008F7780939B
:100610009000CFCF809190008F7DF9CF8091900096
:10062000877FF5CF8091A0008F778093A000C1CF06
:100630008091A0008F7DF9CF8091A000877FF5CFBA
:10064000809120018F7780932001B3CF809120018A
:100650008F7DF9CF80912001877FF5CF4E2BB8CFCA
:10066000CF93DF9390E0FC01EA53FE4F2491845F27
:100670009D4FFC0184918823D1F090E0880F991F51
:10068000FC01E455FE4FA591B491FC01E45BFE4FE3
:10069000C591D49161110EC09FB7F8948C91E22F4F
:1006A000E0958E238C932881E223E8839FBFDF911E
:1006B000CF9108958FB7F894EC91E22BEC938FBF14
:1006C000F6CF90917B00977F90937B008653806458
:1006D00080937C0080917A00806480937A0080917E
:1006E0007A0086FDFCCF8091780090917900089582
:1006F0003FB7F8948091570290915802A091590207
:10070000B0915A0226B5A89B05C02F3F19F001965B
:10071000A11DB11D3FBFBA2FA92F982F8827BC015B
:10072000CD01620F711D811D911D42E0660F771F83
:10073000881F991F4A95D1F708958F929F92AF9283
:10074000BF92CF92DF92EF92FF924B015C010E9429
:1007500078036B017C010E9478036C197D098E0976
:100760009F09683E734081059105A8F321E0821A34
:100770009108A108B10888EEC80E83E0D81EE11CDC
:10078000F11C81149104A104B10429F7FF90EF90AA
:10079000DF90CF90BF90AF909F908F9008958EBDC7
:1007A00000000DB407FEFDCF8EB50895FC01019049
:1007B0000020E9F73197AF01481B590BBC018DE5CB
:1007C00092E00C9470010F931F93CF93DF938C01F1
:1007D000C19769F588E192E00E94D603C1E060E02C
:1007E000802F0E94A402D0E0CC2339F1C0E0C630B3
:1007F000D10509F442C0BE0180E093E00E945E0191
:10080000FC0180810E94CF03BE0180E093E00E9442
:100810005E01FC0160818DE592E00E94060261E0CC
:1008200070E080E090E00E949D032196E0CF85E299
:1008300092E00E94D603C0E0D2CFC0E0C630D1051E
:10084000E1F0BE018AEF92E00E945E01FC0180812E
:100850000E94CF03BE018AEF92E00E945E01FC017C
:1008600060818DE592E00E94060261E070E080E028
:1008700090E00E949D032196E1CF8DE00E94CF037E
:1008800061E0802F0E94A40282E392E0DF91CF9189
:100890001F910F910C94D6030F931F93CF93DF9367
:1008A000EC0188819981009759F02A813B812617B4
:1008B000370730F081E0DF91CF911F910F910895BC
:1008C0008B016F5F7F4F0E948909009759F09983D0
:1008D00088831B830A832C813D81232B59F7FC01DC
:1008E0001082E8CF80E0E7CFCF93DF93EC018881DF
:1008F0009981009711F00E940009198218821D82C7
:100900001C821B821A82DF91CF910895EF92FF9291
:100910000F931F93CF93DF93EC017B018A01BA0100
:100920000E944C0481110BC0CE010E947404CE01C0
:10093000DF91CF911F910F91FF90EF9008951D834C
:100940000C83B701888199810E94730AF0CFEF92DE
:10095000FF920F931F93CF93DF93CDB7DEB76297CC
:100960000FB6F894DEBF0FBECDBF8C01CB01F801EE
:100970001182108213821282158214824AE09E0133
:100980002F5F3F4F7901B9010E94D007F701019015
:100990000020E9F73197AF014E195F09B701C8018F
:1009A0000E94860462960FB6F894DEBF0FBECDBFDC
:1009B000DF91CF911F910F91FF90EF900895CF930A
:1009C000DF93EC01FB018617970749F06081718185
:1009D0006115710541F0448155810E948604CE0164
:1009E000DF91CF9108950E947404F9CFFC018081BA
:1009F0009181009711F00C94000908951F920F92B5
:100A00000FB60F9211240BB60F922F933F934F9373
:100A10005F936F937F938F939F93AF93BF93EF9366
:100A2000FF938DE592E00E94E401FF91EF91BF9169
:100A3000AF919F918F917F916F915F914F913F9176
:100A40002F910F900BBE0F900FBE0F901F90189517
:100A50001F920F920FB60F9211240BB60F922F9385
:100A60008F939F93EF93FF93E0916D02F0916E024D
:100A70008081E0917302F091740282FD1DC090812B
:100A8000809176028F5F8F7320917702821741F0F9
:100A9000E0917602F0E0E35AFD4F958F8093760265
:100AA000FF91EF919F918F912F910F900BBE0F901F
:100AB0000FBE0F901F9018958081F2CF1F920F925A
:100AC0000FB60F9211242F933F938F939F93AF9361
:100AD000BF938091530290915402A0915502B0911E
:100AE00056023091520223E0230F2D3758F501961C
:100AF000A11DB11D20935202809353029093540282
:100B0000A0935502B09356028091570290915802DB
:100B1000A0915902B0915A020196A11DB11D809376
:100B2000570290935802A0935902B0935A02BF9172
:100B3000AF919F918F913F912F910F900FBE0F908A
:100B40001F90189526E8230F0296A11DB11DD2CF44
:100B5000EDE5F2E01382128288EE93E0A0E0B0E0CF
:100B600084839583A683B7838AE092E09183808310
:100B700085EC90E09587848784EC90E09787868762
:100B800080EC90E0918B808B81EC90E0938B828B5A
:100B900082EC90E0958B848B86EC90E0978B868B33
:100BA000118E128E138E148EE0E0F3E0118210820B
:100BB000138212821582148250E040E064E372E0F6
:100BC000CF010E948604EAEFF2E0118210821382C4
:100BD00012821582148250E040E064E372E0CF019B
:100BE0000C948604CF93DF93CDB7DEB72E970FB664
:100BF000F894DEBF0FBECDBF789484B5826084BD0B
:100C000084B5816084BD85B5826085BD85B5816010
:100C100085BD80916E00816080936E00109281008E
:100C20008091810082608093810080918100816049
:100C3000809381008091800081608093800080910A
:100C4000B10084608093B1008091B0008160809396
:100C5000B00080919100826080939100809191001A
:100C600081608093910080919000816080939000DA
:100C70008091A10082608093A1008091A100816099
:100C80008093A1008091A00081608093A00080915A
:100C900021018260809321018091210181608093F4
:100CA00021018091200181608093200180917A0050
:100CB000846080937A0080917A00826080937A00C9
:100CC00080917A00816080937A0080917A008068B8
:100CD00080937A001092C10060E087E30E943003A5
:100CE00060E086E30E94300361E081E30E9430030C
:100CF00061E080E30E943003E0916D02F0916E02AA
:100D000082E08083E0916902F0916A021082E091B2
:100D10006B02F0916C028FEC808310927502E0916F
:100D20007102F091720286E08083E0916F02F0918F
:100D30007002808180618083E0916F02F091700287
:100D4000808188608083E0916F02F09170028081E1
:100D500080688083E0916F02F091700280818F7DC6
:100D6000808361E081E30E94A40261E080E30E944D
:100D7000A4021FB7F89480915C02811127C0E1E4BE
:100D8000F2E08491EBEFF1E09491E82FF0E0EE0FC8
:100D9000FF1FE455FE4FA591B491EC91E92321F496
:100DA00061E085E30E94A40261E085E30E943003D4
:100DB0008CB580618CBD8CB580648CBD61E084E3B2
:100DC0000E94300361E083E30E94300380915C0263
:100DD0008F5F80935C021FBF8CB58C7F81608CBD60
:100DE0008DB581608DBD64E670E080E090E00E948A
:100DF0009D0385E392E00E94D60382E392E00E9485
:100E0000D60388248A9483E0982EA12CB12C95E2F5
:100E1000792E87E30E9461037C0186E30E946103CF
:100E20008C0124E630E0D7010E945D08A501940101
:100E30000E94050819012DEC30E0D8010E945D08E0
:100E4000A50194010E94050869017A0187E3C81A87
:100E5000D108E108F108B101CE0107960E94A7046C
:100E60001A8219821C821B821E821D82BE01695F4A
:100E70007F4FCE0101960E94DF047D861E860D8184
:100E80001E810F5F1F4FB801CE0101960E944C04D6
:100E9000882309F46BC029813A818D819E81BE012E
:100EA000635F7F4F820F931F0E94730A1E830D831F
:100EB000BE016F5F7F4F8AEF92E00E94DF04CE0198
:100EC00001960E94F604CE0107960E94F604B60130
:100ED000CE0107960E94A7041A8219821C821B82E7
:100EE0001E821D82BE01695F7F4FCE0101960E9466
:100EF000DF040D811E810F5F1F4FB801CE010196E7
:100F00000E944C04811137C0CE0101960E947404E6
:100F1000BE016F5F7F4F80E093E00E94DF04CE014F
:100F200001960E94F604CE0107960E94F60481E322
:100F300090E00E94E30364EF71E080E090E00E94A3
:100F40009D0380E390E00E94E30364EF71E080E0A2
:100F500090E00E949D0382E492E00E94D60382E327
:100F600092E00E94D6030E94730253CFCE010196F5
:100F70000E9474049DCF29813A818D819E8160E415
:100F800072E0820F931F0E94730A1E830D83C0CFED
:100F90008AEF92E00E94F60480E093E00C94F6045D
:100FA000BB274A3031F4992322F4BDE29095819514
:100FB0009F4F0C94DC07BB27FB015527AA27880FFE
:100FC000991FAA1FA41710F0A41B83955051B9F7BD
:100FD000A05DAA3308F0A95DA193009779F7B1113C
:100FE000B1931192CB010C94F507DC01FC01672F42
:100FF00071917723E1F7329704C07C916D937083F0
:101000006291AE17BF07C8F30895052E97FB1EF433
:1010100000940E941C0857FD07D00E94240807FC7A
:1010200003D04EF40C941C085095409530952195B2
:101030003F4F4F4F5F4F0895909580957095619504
:101040007F4F8F4F9F4F0895A1E21A2EAA1BBB1B03
:10105000FD010DC0AA1FBB1FEE1FFF1FA217B30784
:10106000E407F50720F0A21BB30BE40BF50B661F9A
:10107000771F881F991F1A9469F76095709580955E
:1010800090959B01AC01BD01CF010895A29FB001D5
:10109000B39FC001A39F700D811D1124911DB29FAC
:1010A000700D811D1124911D0895EE0FFF1F881FE3
:1010B0008BBF0790F691E02D19940E944608B7FF68
:1010C0000895821B930B08950F931F93CF93DF9383
:1010D0008230910510F482E090E0E0910803F091F5
:1010E000090330E020E0B0E0A0E0309799F421154A
:1010F000310509F44AC0281B390B24303105D8F5D5
:101100008A819B816115710589F1FB01938382833B
:10111000FE0111C040815181028113814817590796
:10112000E0F04817590799F4109761F012960C9364
:10113000129713961C933296CF01DF91CF911F9196
:101140000F9108950093080310930903F4CF21151C
:10115000310551F04217530738F0A901DB019A011C
:10116000BD01DF01F801C1CFEF01F9CF9093090371
:1011700080930803CDCFFE01E20FF31F819391937B
:101180002250310939832883D7CF2091060330912B
:101190000703232B41F42091020230910302309384
:1011A00007032093060320910002309101022115CC
:1011B000310541F42DB73EB740910402509105022C
:1011C000241B350BE0910603F0910703E217F307A8
:1011D000A0F42E1B3F0B2817390778F0AC014E5FA7
:1011E0005F4F2417350748F04E0F5F1F50930703DA
:1011F00040930603819391939FCFF0E0E0E09CCF72
:10120000CF93DF930097E9F0FC01329713821282AB
:10121000A0910803B0910903ED0130E020E01097A0
:10122000A1F420813181820F931F20910603309118
:1012300007032817390709F061C0F0930703E0930B
:101240000603DF91CF910895EA01CE17DF07E8F595
:101250004A815B819E0141155105B1F7E901FB838C
:10126000EA8349915991C40FD51FEC17FD0761F42A
:10127000808191810296840F951FE901998388836B
:10128000828193819B838A83F0E0E0E012968D91C6
:101290009C9113970097B9F52D913C911197CD0131
:1012A0000296820F931F209106033091070328179F
:1012B000390739F6309751F5109209031092080357
:1012C000B0930703A0930603BCCFD383C2834081AE
:1012D0005181840F951FC817D90761F44E5F5F4F86
:1012E00088819981480F591F518340838A819B814E
:1012F000938382832115310509F0B0CFF093090360
:10130000E09308039ECFFD01DC01C0CF138212825F
:10131000D7CF4F925F926F927F928F929F92AF92B0
:10132000BF92CF92DF92EF92FF920F931F93CF93D2
:10133000DF938C01009799F4CB01DF91CF911F913E
:101340000F91FF90EF90DF90CF90BF90AF909F9064
:101350008F907F906F905F904F900C946408FC0189
:10136000E60FF71F9C0122503109E217F30708F43A
:10137000AEC0D901CD91DC911197C617D70720F1E6
:10138000C530D10578F0CE0104978617970750F045
:10139000C61BD70B2297C193D1936D937C93CF013A
:1013A0000E940009C801DF91CF911F910F91FF901A
:1013B000EF90DF90CF90BF90AF909F908F907F90F5
:1013C0006F905F904F9008955B01AC1ABD0A4C017D
:1013D0008C0E9D1EA0910803B0910903512C412C45
:1013E000F12CE12C109731F58091060390910703C1
:1013F0008815990509F05CC04616570608F058C0D4
:101400008091000290910102009741F48DB79EB740
:101410004091040250910502841B950BE817F907CF
:1014200008F055C0F0930703E0930603F9017183B8
:101430006083B8CF8D919C91119712966C90129702
:1014400013967C901397A815B90559F56C0142E0E5
:10145000C40ED11CCA14DB0420F1AC014A195B098B
:10146000DA011296159780F062827382518340836D
:10147000D9016D937C93E114F10471F0D7011396B7
:10148000FC93EE9312978ECF22968C0F9D1FF9013D
:1014900091838083F301EFCFF0930903E093080376
:1014A00081CF4816590608F42C017D01D3019ACF4B
:1014B000CB010E9464087C01009749F0AE01B8019D
:1014C0000E946A0AC8010E94000987016BCF10E0E0
:1014D00000E068CFFB01DC0102C001900D92415099
:1014E0005040D8F70895FB01DC0101900D920020D7
:1014F000E1F7089511E0CAE2D1E000E006C0802FD4
:10150000FE010E9455082196011DCB32D10780E0D3
:081510000807A9F7F894FFCFCA
:1015180000000A03800000000000060270019D011F
:101528005302CE01AC01C00154454D5052455455AB
:1015380052453A20004C494748543A202020202060
:1015480020000D0A003C204D4153544552203E00D6
:1015580063002D2D2D2D2D2D2D2D2D2D2D2D2D2DAA
:021568002D0054
:00000001FF
