:100000000C9483000C94B4000C94B4000C94B400D1
:100010000C94B4000C94B4000C94B4000C94B40090
:100020000C94B4000C94B4000C94B4000C94B40080
:100030000C94B4000C94B4000C94B4000C94B40070
:100040000C94B4000C94B4000C94B4000C94B40060
:100050000C94B4000C94B4000C94B4000C947C0286
:100060000C94C6020C9446020C941C020C94B4002E
:100070000C94B4000C94B4000C94B4000C94B40030
:100080000C94B4000C94B4000C94B4000C94B40020
:100090000C94B4000C94B4000C94B4000C94B40010
:1000A0000C94B4000C94B4000C94B4000C94B40000
:1000B0000C94B4000C94B4000C94B4000C94B400F0
:1000C0000C94B4000C94B4000C94B4000C94B400E0
:1000D0000C94B4000C94B4000C94B4000C94B400D0
:1000E0000C94B4000C9414010C94E3000C94FB03E6
:1000F0000C9499010C944C010C94F2000C94B600F1
:100100000C940601FB0311241FBECFEFD1E2DEBF2A
:10011000CDBF00E00CBF12E0A0E0B2E0E4E6F8E002
:1001200000E00BBF02C007900D92A033B107D9F7D2
:1001300022E0A0E3B2E001C01D92A93DB207E1F7C1
:1001400010E0C3E8D0E000E006C021970109802F4D
:10015000FE010E942804C238D10780E00807A9F7F1
:100160000E9412030C9430040C940000AF92BF92D2
:10017000CF92DF92EF92FF920F931F93CF93DF9373
:100180006C017B018B01040F151FEB015E01AE18A2
:10019000BF08C017D10759F06991D601ED91FC91C4
:1001A0000190F081E02DC6011995892B79F7C501E1
:1001B000DF91CF911F910F91FF90EF90DF90CF9043
:1001C000BF90AF900895FC01538D448D252F30E0F2
:1001D000842F90E0821B930B541710F0CF96089554
:1001E00001970895FC01918D828D981761F0A28D81
:1001F000AE0FBF2FB11D5D968C91928D9F5F9F7347
:10020000928F90E008958FEF9FEF0895FC01918DFC
:10021000828D981731F0828DE80FF11D858D90E069
:1002200008958FEF9FEF0895FC01918D228D892F06
:1002300090E0805C9F4F821B91098F7399270895EE
:100240008CE392E00E94140121E0892B09F420E064
:10025000822F0895FC01A48DA80FB92FB11DA35AB8
:10026000BF4F2C91848D90E001968F739927848FD6
:10027000A689B7892C93A089B1898C9183708064F9
:100280008C93938D848D981306C00288F389E02D9A
:1002900080818F7D80830895EF92FF920F931F934B
:1002A000CF93DF93EC0181E0888F9B8D8C8D981329
:1002B0001AC0E889F989808185FF15C09FB7F89435
:1002C000EE89FF896083E889F98980818370806481
:1002D00080839FBF81E090E0DF91CF911F910F91CC
:1002E000FF90EF900895F62E0B8D10E00F5F1F4FDB
:1002F0000F731127E02E8C8D8E110CC00FB607FCEA
:10030000FACFE889F989808185FFF5CFCE010E9477
:100310002A01F1CFEB8DEC0FFD2FF11DE35AFF4FBA
:10032000F0829FB7F8940B8FEA89FB898081806205
:10033000CFCFCF93DF93EC01888D8823B9F0AA89C2
:10034000BB89E889F9898C9185FD03C0808186FD90
:100350000DC00FB607FCF7CF8C9185FFF2CF8081DF
:1003600085FFEDCFCE010E942A01E9CFDF91CF9129
:10037000089580E090E0892B29F00E9420018111EE
:100380000E94000080E090E0892B49F080E090E03E
:10039000892B29F00E94000081110E94000080E05A
:1003A00090E0892B49F080E090E0892B29F00E94B1
:1003B000000081110E94000080E090E0892B49F04C
:1003C00080E090E0892B29F00E94000081110C94BC
:1003D000000008953FB7F89480913502909136025D
:1003E000A0913702B091380226B5A89B05C02F3FD7
:1003F00019F00196A11DB11D3FBFBA2FA92F982F4B
:100400008827BC01CD01620F711D811D911D42E045
:10041000660F771F881F991F4A95D1F70895FC0131
:1004200001900020E9F73197AF01481B590BBC013F
:100430008CE392E00C94B6001F920F920FB60F92CD
:1004400011240BB60F922F933F934F935F936F93AB
:100450007F938F939F93AF93BF93EF93FF938CE31F
:1004600092E00E942A01FF91EF91BF91AF919F917D
:100470008F917F916F915F914F913F912F910F904D
:100480000BBE0F900FBE0F901F9018951F920F92EA
:100490000FB60F9211240BB60F922F938F939F9349
:1004A000EF93FF93E0914C02F0914D028081E09137
:1004B0005202F091530282FD1DC09081809155023D
:1004C0008F5F8F7320915602821741F0E0915502A1
:1004D000F0E0E45CFD4F958F80935502FF91EF9122
:1004E0009F918F912F910F900BBE0F900FBE0F9089
:1004F0001F9018958081F2CF1F920F920FB60F9226
:1005000011242F933F938F939F93AF93BF93809129
:10051000310290913202A0913302B09134023091B5
:10052000300223E0230F2D3758F50196A11DB11D90
:10053000209330028093310290933202A0933302D1
:10054000B09334028091350290913602A091370227
:10055000B09138020196A11DB11D80933502909390
:100560003602A0933702B0933802BF91AF919F91AA
:100570008F913F912F910F900FBE0F901F90189564
:1005800026E8230F0296A11DB11DD2CF1F920F9214
:100590000FB60F9211240BB60F922F933F934F93E8
:1005A0005F936F937F938F939F93AF93BF93EF93DB
:1005B000FF9310923B0280913902882331F08FE142
:1005C00092E00E940F02109239026EB580913A02B9
:1005D000843658F480913A028F5F80933A026D30EE
:1005E000B9F08CE392E00E944C01FF91EF91BF9132
:1005F000AF919F918F917F916F915F914F913F91BB
:100600002F910F900BBE0F900FBE0F901F9018955B
:1006100081E080933B02809339028CE192E00E945A
:100620000F02E3CF789484B5826084BD84B5816085
:1006300084BD85B5826085BD85B5816085BD8091AD
:100640006E00816080936E00109281008091810025
:10065000826080938100809181008160809381001D
:10066000809180008160809380008091B1008460DF
:100670008093B1008091B00081608093B000809140
:1006800091008260809391008091910081608093BD
:100690009100809190008160809390008091A100F2
:1006A00082608093A1008091A10081608093A1006D
:1006B0008091A00081608093A000809121018260E0
:1006C000809321018091210181608093210180919B
:1006D000200181608093200180917A008460809362
:1006E0007A0080917A00826080937A0080917A000B
:1006F000816080937A0080917A00806880937A008C
:100700001092C100E0914C02F0914D0282E0808392
:10071000E0914802F09149021082E0914A02F09182
:100720004B028FEC808310925402E0915002F091C2
:10073000510286E08083E0914E02F0914F02808169
:1007400080618083E0914E02F0914F028081886049
:100750008083E0914E02F0914F0280818068808317
:10076000E0914E02F0914F0280818F7D80838CB5A5
:1007700080648CBD10923A0210923B0281E080931B
:1007800039028CB580688CBD82E192E00E940F0234
:100790008CE192E00E940F0280913B02882321F0BD
:1007A00010923B0210923A020E94EA014B015C0156
:1007B00085E0C82ED12CE12CF12C0E94EA016819A9
:1007C00079098A099B09683E734081059105A8F360
:1007D00021E0C21AD108E108F10888EE880E83E012
:1007E000981EA11CB11CC114D104E104F10429F725
:1007F0000E94B901D1CFECE3F2E01382128288EEBD
:1008000093E0A0E0B0E084839583A683B78384E07F
:1008100092E09183808385EC90E09587848784ECD7
:1008200090E09787868780EC90E0918B808B81ECBD
:1008300090E0938B828B82EC90E0958B848B86EC9E
:1008400090E0978B868B118E128E138E148E0895E6
:10085000EE0FFF1F881F8BBF0790F691E02D1994B4
:04086000F894FFCF3A
:10086400000000004C01B600E30099011401F200FD
:1008740006013C20534C415645203E000D0A0072AF
:100884006563696576656420646174613A2000007B
:00000001FF
