:100000000C9439010C946A010C946A010C946A01F5
:100010000C946A010C946A010C946A010C946A01B4
:100020000C946A010C946A010C946A010C946A01A4
:100030000C946A010C946A010C946A010C946A0194
:100040000C946A010C941E0D0C946A010C946A01C4
:100050000C946A010C946A010C946A010C944A0C89
:100060000C946A010C946A010C946A010C946A0164
:100070000C946A010C946A010C946A010C946A0154
:100080000C94F00C0C946A010C946A010C946A01B3
:100090000C946A010C946A010C946A010C946A0134
:1000A0000C946A010C946A010C94C20C0C946A01C1
:1000B0000C946A010C946A010C946A010C94940CDF
:1000C0000C946A010C946A010C946A010C946A0104
:1000D0000C946A010C946A010C946A010C946A01F4
:1000E0000C946A010C948B020C9445030C94E20A64
:1000F0000C949D020C9495020C9410100C948102A7
:100100000C9468020C94A2020C949F060C94D402E6
:100110000C948F0A0C94BF070C9499020C9405035D
:100120000C947D020C946C020C9470020C949E064C
:100130000C9477020C94A7020C94A3020C94740202
:100140000C9487020C9417020C9462020C948F0298
:1001500000002100240027002A002D003000330079
:1001600001010000040107010A010000220025002E
:1001700028002B002E003100340002010000050190
:1001800008010B01000020002300260029002C009C
:100190002F003200000100000301060109010505DE
:1001A0000505070508080808020202020A0A0808ED
:1001B000040404040101010101010101030303031B
:1001C00003030303040707070C0C0C0C0C0C0C0CAA
:1001D0000202020206060606060606060B0B0B0BBB
:1001E0000B0B0B0B010210202008081020401020E0
:1001F00040800201020108040201010204081020EB
:1002000040808040201008040201800402018040E8
:100210002010080402010804020101020408102051
:100220004080010204081020408000000A0B0209EF
:100230000C0D0E0807030401000000000000000080
:1002400000000000000000000000000000000000AE
:10025000000000000000121110000000000000006B
:10026000000000000000000000000000000000008E
:10027000101011241FBECFEFD1E2DEBFCDBF00E0D2
:100280000CBF15E0A0E0B2E0E0EEFAE200E00BBF48
:1002900002C007900D92A431B107D9F727E0A4E17D
:1002A000B5E001C01D92A336B207E1F711E0C9E342
:1002B000D1E000E006C021970109802FFE010E94D5
:1002C0005013C833D10780E00807A9F70E94670DD3
:1002D0000C946E150C940000CF93DF93009789F077
:1002E000EC01E0914307F0914407309731F06091C1
:1002F000410770914207CE011995D0934207C093F0
:100300004107DF91CF91089596E0899FD001112494
:10031000AB53B94F90967C936E935F9791E0919613
:100320009C939197E0913207F091330790913107B8
:10033000992339F0309751F0811108C08091E1067E
:100340001994309719F05C968C91FACF0895CF925A
:10035000DF92EF92FF920F931F9396E0899FF00137
:100360001124EB53F94F11A2278D30A12130310513
:1003700051F178F02230310509F451C023303105B4
:1003800009F452C01F910F91FF90EF90DF90CF9032
:1003900008956623B9F361E070E00E9484012FB7ED
:1003A000F8948091C1069091C206A091C306B091C5
:1003B000C4062FBF80931D0790931E07A0931F07AD
:1003C000B0932007DFCF9FB7F894C090C106D090BC
:1003D000C206E090C306F090C4069FBF00911D07BF
:1003E00010911E0720911F0730912007C01AD10AD3
:1003F000E20AF30A00912F071091300730E020E065
:100400000C151D052E053F0550F462E070E01F91AC
:100410000F91FF90EF90DF90CF900C9484016111C9
:10042000B1CF63E070E0F3CF70E060E0F0CFAF9267
:10043000BF92CF92DF92EF92FF920F931F93CF93D1
:10044000DF936C017B018B01040F151FEB015E0133
:10045000AE18BF08C017D10759F06991D601ED91C8
:10046000FC910190F081E02DC6011995892B79F757
:10047000C501DF91CF911F910F91FF90EF90DF9019
:10048000CF90BF90AF9008958150823108F05AC04C
:10049000E82FF0E08827E05BFD4F8F4F0C9450135E
:1004A00070027402620268026C02A20277027D028C
:1004B000810287028B028F0295029902A2029D029D
:1004C000A302A702809180008F7780938000089517
:1004D000809180008F7DF9CF80918000877FF5CF5C
:1004E00084B58F7784BD089584B58F7DFBCF8091CF
:1004F000B0008F778093B00008958091B0008F7D19
:10050000F9CF809190008F7780939000089580912B
:1005100090008F7DF9CF80919000877FF5CF8091FB
:10052000A0008F778093A00008958091A0008F7D18
:10053000F9CF8091A000877FF5CF809120018F7740
:10054000809320010895809120018F7DF9CF8091C3
:100550002001877FF5CFCF93DF93282F30E0F9017B
:10056000E65DFD4F8491F901EC51FE4FD491F90104
:10057000E256FE4FC491CC23A1F081110E944402A7
:10058000EC2FF0E0EE0FFF1FEC57FE4FA591B4915A
:10059000EC91ED2381E090E009F480E0DF91CF91D0
:1005A000089580E090E0FACF862F0C94AB021F9361
:1005B000CF93DF93282F30E0F901E65DFD4F849162
:1005C000F901EC51FE4FD491F901E256FE4FC4916E
:1005D000CC23A9F0162F81110E944402EC2FF0E0E9
:1005E000EE0FFF1FE659FE4FA591B4918FB7F89417
:1005F000EC91111108C0D095DE23DC938FBFDF9101
:10060000CF911F910895DE2BF8CF862F642F0C9485
:10061000D702CF93DF9390E0FC01EC51FE4F249181
:1006200082569E4FFC0184918823C9F090E0880F88
:10063000991FFC01E05BFE4FA591B491FC01E659C6
:10064000FE4FC591D49161110DC09FB7F8948C9164
:10065000209582238C938881282328839FBFDF9154
:10066000CF910895623051F49FB7F8943C91822F56
:10067000809583238C93E8812E2BEFCF8FB7F8944E
:10068000EC912E2B2C938FBFEACF862F642F0C94E6
:1006900009036F927F928F929F92AF92BF92CF92F7
:1006A000DF92EF92FF920F931F93CF93DF9381E03E
:1006B000809331078FB7F8944091C1065091C206DC
:1006C0006091C3067091C4068FBF809121079091FD
:1006D0002207A0912307B0912407481B590B6A0BEE
:1006E0007B0B80912D0790912E07B0E0A0E084173E
:1006F0009507A607B70708F01DC1C0E080912B073A
:10070000C81760F4E0912707F0912807EC0FF11D5E
:1007100062E080810E940903CF5FF0CF712C812CB1
:10072000912C5401839480912C07781608F05FC0B7
:10073000072D10E0E0912907F0912A07E00FF11F43
:1007400061E080810E940903E0912907F0912A0766
:10075000E00FF11F60E080810E94D702D501C40143
:10076000072C04C0880F991FAA1FBB1F0A94D2F739
:100770006C017C01E094F094612C80912B07681649
:10078000F8F4C62DD0E0E0912707F0912807EC0F90
:10079000FD1F80810E94AB022496CC0FDD1FCB533E
:1007A000D94F892B41F4888199818C299D2999837E
:1007B00088836394E2CF888199818E219F21F7CF2E
:1007C000E0912907F0912A07E00FF11F61E0808195
:1007D0000E94D7028091290790912A07080F191FBC
:1007E00060E0F80180810E94090373949CCFC5ECFE
:1007F000D6E0FE018FEF9FEF278D30A1232B21F450
:10080000148E968F858F11A2369627E0E130F2077D
:1008100099F7F12C96E0D92E80912B07F81608F065
:1008200050C0E12C0F2D10E0000F111F0353194F82
:1008300020912C07E21608F042C0F8016081718116
:100840000E2C02C0769567950A94E2F7F29E90010D
:1008500011242E0D311DE5ECF6E080E0458D568D1E
:100860002417350709F46AC08F5F36968A30B1F7CE
:1008700060FF23C0E5ECF6E090E080E0448D41119C
:1008800017C0E0912507F0912607E20FF31F408182
:10089000D89EF001D99EF00D1124EB53F94F448FEF
:1008A000368F258F10A2178E61E00E94A70105C028
:1008B000019636968A30910509F7E394B9CFF394FF
:1008C000ABCF80E099A19111892F2696F7E0C13036
:1008D000DF07C1F79FB7F8944091C1065091C20657
:1008E0006091C3067091C4069FBF40932107509347
:1008F000220760932307709324078823D9F08091FF
:10090000E6068823B9F08091E4069091E506019708
:1009100089F48091E106DF91CF911F910F91FF90B3
:10092000EF90DF90CF90BF90AF909F908F907F908F
:100930006F9008951092310780E0EDCF6170B5CFD0
:100940001F93CF93DF93EC01162F8881803308F03B
:1009500050C061E0812F0E9409038881282F30E078
:10096000F901EE0FFF1FE20FF31FEF5CF94F1F734A
:100970006081607C612B60839EE8998394E69A8312
:100980002CE0622F0E944413829FB001112430E0BA
:1009900020E0AB01420F531FFA01EE0FFF1FE40FDF
:1009A000F51FEF5CF94F908196FD16C02F5F3F4F0A
:1009B0002C30310571F7813009F51092800082E00A
:1009C000809381001092850010928400B19A8091EA
:1009D0006F00826080936F00E8818E2F90E0FC01B1
:1009E000EE0FFF1FE80FF91FEF5CF94F8081806465
:1009F00080838881DF91CF911F910895823061F4C7
:100A000010929000809391001092950010929400A3
:100A100088BB80937100E0CF833069F41092A0000E
:100A200082E08093A1001092A5001092A40089BBDF
:100A300080937200D1CF8111CFCF1092200182E03C
:100A40008093210110922501109224018ABB80938A
:100A50007300C2CF3FB7F89480911F059091200595
:100A6000A0912105B091220526B5A89B05C02F3F76
:100A700019F00196A11DB11D3FBFBA2FA92F982FC4
:100A80008827BC01CD01620F711D811D911D42E0BF
:100A9000660F771F881F991F4A95D1F708958F9287
:100AA0009F92AF92BF92CF92DF92EF92FF924B0153
:100AB0005C010E942A056B017C010E942A056C19C9
:100AC0007D098E099F09683E734081059105A8F351
:100AD00021E0821A9108A108B10888EEC80E83E0CF
:100AE000D81EE11CF11C81149104A104B10429F762
:100AF000FF90EF90DF90CF90BF90AF909F908F903E
:100B000008958F929F92AF92BF92FF920F931F937F
:100B1000CF93DF93FC01F0808FE28F1508F44AC079
:100B2000828108E512E0081B110987FD1395000F6B
:100B3000111F000F111F8181C8E8D0E0C81BD10927
:100B400087FDD395CC0FDD1FCC0FDD1F4E010D2E81
:100B5000000CAA08BB089801012E000C440B550B91
:100B6000281939094A095B09DB010E94FB1224EBB1
:100B700030E040E050E00E94D112820E931EA41E8D
:100B8000B51E8C169D062CF0E801801691060CF41B
:100B9000E4012297CC0FDD1F2FB7F8948F2D90E042
:100BA000FC01EE0FFF1FE80FF91FEF5CF94FD28336
:100BB000C1832FBFDF91CF911F910F91FF90BF9005
:100BC000AF909F908F900895AF92BF92CF92DF9297
:100BD000EF92FF920F931F93CF93DF936B017A01F4
:100BE000EC01C75EDA4F28813CE0389F8001399FD5
:100BF000100D1124A0901D05B12C27FF1FC0FB0173
:100C00001182108288818F5F888388819801280FE4
:100C1000311D87FD3A95F6012A153B051CF48881A4
:100C20008C30C4F180819181049680349C4908F411
:100C300073C0F60180819181049670C0888198010B
:100C4000280F311D87FD3A952A153B05DCF6888172
:100C5000A801480F511D87FD5A95FA01EE0FFF1F9D
:100C6000E40FF51FEF5CF94F808186FFCBCF8881C1
:100C7000F801E80FF11D87FDFA95CF01EE0FFF1F78
:100C8000E80FF91FEF5CF94F808160E08F730E94DD
:100C9000D702B8CF808191812881A801420F511DD0
:100CA00027FD5A959A01FA01EE0FFF1FE20FF31F7D
:100CB000EF5CF94F21813281820F931FF7019183FD
:100CC000808388819801280F311D87FD3A95F901AD
:100CD000EE0FFF1FE20FF31FEF5CF94F808186FFDD
:100CE00022C08881080F111D87FD1A95F801EE0FAB
:100CF000FF1FE00FF11FEF5CF94F808161E08F7300
:100D0000DF91CF911F910F91FF90EF90DF90CF90E7
:100D1000BF90AF900C94D70280E49CE9F7019183D7
:100D200080838FEF8883DF91CF911F910F91FF9088
:100D3000EF90DF90CF90BF90AF900895089590E02E
:100D400080E00895FB0192878187DC0116967C93F1
:100D50006E93159723853485232B29F41B968D914B
:100D60009C9194878387CF0108958F929F92AF9231
:100D7000BF920F931F93CF93DF93CDB7DEB7A197A9
:100D80000FB6F894DEBF0FBECDBF19A2423008F4F3
:100D90004AE08E010F5D1F4F842E912CB12CA12CA7
:100DA000A50194010E940313E62FB901CA01EA309C
:100DB00044F5E05DD801EE938D01232B242B252BE8
:100DC00079F790E080E0109769F0FD010190002034
:100DD000E9F73197AF014A1B5B0BBD0187E497E050
:100DE0000E941702A1960FB6F894DEBF0FBECDBFCA
:100DF000DF91CF911F910F91BF90AF909F908F90F7
:100E00000895E95CD7CF009769F0FC0101900020BC
:100E1000E9F73197AF01481B590BBC0187E497E014
:100E20000C94170290E080E00895CF93DF93EC01DB
:100E300060E08E810E94D70261E08E810E94D7021D
:100E400060E08E810E94D7028BE891E00197F1F774
:100E5000DF91CF910895CF92DF92EF92FF920F939F
:100E60001F93CF93DF936C017C0187E0E80EF11CA8
:100E7000D0E0C0E0062F10E0B8010C2E02C075953E
:100E800067950A94E2F76170F70181917F010E94F2
:100E9000D7022196C430D10579F7C601DF91CF91F1
:100EA0001F910F91FF90EF90DF90CF900C9415075A
:100EB000CF92DF92EF92FF920F931F93CF93DF9326
:100EC000EC01F62E642F8C810E94D7028D818F3F1A
:100ED00019F060E00E94D7020F2D10E08F8584FF8B
:100EE00025C06E0187E0C80ED11CF12CE12CB801A1
:100EF0000E2C02C0759567950A94E2F76170F601B1
:100F000081916F010E94D702FFEFEF1AFF0A88E07C
:100F1000E816F10461F7CE01DF91CF911F910F9197
:100F2000FF90EF90DF90CF900C941507B80184E00C
:100F3000759567958A95E1F7CE010E942B076F2D75
:100F4000CE01DF91CF911F910F91FF90EF90DF9035
:100F5000CF900C942B0740E0682F87E497E00C9427
:100F6000580790915A07891710F08FEF890FE82FD3
:100F7000F0E0E95BF84F848980680C94AB07FC01D2
:100F800080819181DC01E0913407F09135072D914A
:100F9000222309F40DC231912317C9F323E08E31C6
:100FA000920771F480E00E94B10784E692E00E940B
:100FB000030781E00E94B10785E792E00C940307E4
:100FC00022E08638920769F480E00E94B10785E943
:100FD00092E00E94030781E00E94B10786EA92E056
:100FE000EDCF22E0873B9207F9F480912E06909195
:100FF0002F06A09130068093160590931705A093B5
:1010000018058DE090E0909315058093140580E01D
:101010000E94B1078EEB92E00E94030781E00E94DC
:10102000B1078FEC92E0CACF22E0803E9207F9F43C
:1010300080912B0690912C06A0912D068093160589
:1010400090931705A09318058CE090E090931505F8
:101050008093140580E00E94B1078EEB92E00E941D
:10106000030781E00E94B1078AEE92E0A7CF22E059
:101070008B3F9207F9F48091280690912906A09160
:101080002A068093160590931705A09318058BE008
:1010900090E0909315058093140580E00E94B107BD
:1010A0008EEB92E00E94030781E00E94B10788E086
:1010B00093E084CF23E08931920769F480E00E94B5
:1010C000B10785E992E00E94030781E00E94B10721
:1010D00089E293E073CF23E08A339207F9F4809199
:1010E000250690912606A0912706809316059093D9
:1010F0001705A09318058AE090E09093150580935A
:10110000140580E00E94B10783E493E00E94030786
:1011100081E00E94B10784E593E050CF23E085365B
:101120009207F9F48091220690912306A09124065B
:101130008093160590931705A093180589E090E019
:10114000909315058093140580E00E94B10783E415
:1011500093E00E94030781E00E94B10781E793E0DA
:101160002DCF23E082389207F9F480911F069091E9
:101170002006A09121068093160590931705A09351
:10118000180588E090E0909315058093140580E0A1
:101190000E94B10783E493E00E94030781E00E946C
:1011A000B1078BE893E00ACF24E08B33920769F410
:1011B00080E00E94B10784E692E00E94030781E08C
:1011C0000E94B1078CE993E0F9CE23E08D3A9207B3
:1011D00069F480E00E94B1078BEB93E00E94030763
:1011E00081E00E94B1078CEC93E0E8CE23E08D3DD6
:1011F0009207F9F480911C0690911D06A0911E069D
:101200008093160590931705A093180587E090E04A
:10121000909315058093140580E00E94B10785EE38
:1012200093E00E94030781E00E94B10786EF93E0FC
:10123000C5CE24E087309207F9F480911906909189
:101240001A06A0911B068093160590931705A0938C
:10125000180586E090E0909315058093140580E0D2
:101260000E94B10785EE93E00E94030781E00E948F
:10127000B1078EE094E0A2CE24E08F319207F9F41A
:101280008091160690911706A09118068093160576
:1012900090931705A093180585E090E090931505AD
:1012A0008093140580E00E94B10785EE93E00E94D0
:1012B000030781E00E94B10783E294E07FCE24E03F
:1012C0008633920769F480E00E94B1078BEB93E0CC
:1012D0000E94030781E00E94B10784E394E06ECE90
:1012E00024E085349207F9F4809113069091140656
:1012F000A09115068093160590931705A0931805E5
:1013000084E090E0909315058093140580E00E949E
:10131000B10782E594E00E94030781E00E94B107D3
:1013200083E694E04BCE24E084379207F9F4809171
:10133000100690911106A0911206809316059093C5
:101340001705A093180583E090E09093150580930E
:10135000140580E00E94B10782E594E00E94030733
:1013600081E00E94B10781E894E028CE8259944040
:1013700061F580910D0690910E06A0910F06809365
:10138000160590931705A093180582E090E09093BE
:1013900015058093140580E00E94B10782E594E072
:1013A0000E94030781E00E94B1078EE994E006CE17
:1013B00080E00E94B1078FEA94E00E94030781E079
:1013C0000E94B10780EC94E0F9CD089581E00E947D
:1013D000AB078BE39FE10197F1F70895CF93DF937C
:1013E000823029F490915607986090935607809325
:1013F0005A0710925B0780E480935C0780E180933A
:101400005D0780E580935E0761E080914B070E9455
:10141000090380914C078F3F19F061E00E94090396
:1014200061E080914D070E940903C7E4D7E09E0167
:10143000275437408091560784FD0BC084E090E02C
:1014400021962817390744F461E08E810E94090330
:10145000EECF88E090E0F4CF8BE39DE00197F1F7C9
:1014600060E080914B070E94D70260E080914D07B9
:101470000E94D70280914C078F3F19F060E00E94D4
:10148000D7028091560784FD34C063E087E497E07B
:101490000E942B07CBE4D6E4CE010197F1F763E07D
:1014A00087E497E00E942B072197F1F763E087E438
:1014B00097E00E942B0783E592E00197F1F762E045
:1014C00087E497E00E942B078091560780620E9474
:1014D000AB0784E0809357078CE00E94AB070E9423
:1014E000E60982E08093580786E0DF91CF910C9463
:1014F000AB0780620E94AB078BE496E40197F1F79B
:101500008091560780620E94AB0783E592E00197C5
:10151000F1F78091560780620E94AB07D5CF41E07A
:101520000E94580781E090E00895CF92DF92EF92F9
:10153000FF9297FF18C06B017C0141E06DE287E4E8
:1015400097E00E94580766277727CB016C197D0921
:101550008E099F094AE00E94B5060196FF90EF9020
:10156000DF90CF9008954AE0FF90EF90DF90CF900A
:101570000C94B5060F931F93CF93DF93EC018881F2
:101580009981009759F02A813B812617370730F05F
:1015900081E0DF91CF911F910F9108958B016F5FD3
:1015A0007F4F0E947D14009759F0998388831B8395
:1015B0000A832C813D81232B59F7FC011082E8CF4F
:1015C00080E0E7CF2F923F924F925F926F927F928F
:1015D0008F929F92AF92BF92CF92DF92EF92FF9243
:1015E0000F931F93CF93DF9300D000D000D0CDB7DF
:1015F000DEB78C010E94E60980E00E94B10781ED10
:1016000094E00E940307F801808191810E94030702
:1016100081E00E94B10784ED94E00E9403071A82E2
:1016200019821C821B821E821D8270E060E0CE0146
:1016300001960E94BA0A29813A8181113AC0211586
:10164000310519F0C9010E94F4131A8219821E8211
:101650001D821C821B820E944903182F8823D9F304
:101660001D3379F11F831886ED80FE80FFEFEF1A9E
:10167000FF0AB701CE0101960E94BA0A882369F0D9
:1016800029813A818D819E81BE01695F7F4F820FE2
:10169000931F0E946715FE82ED8241E0612F87E46F
:1016A00097E00E9458070E944903182F8823D9F316
:1016B000D7CF1E821D8263E374E0C9010E946715C3
:1016C000CACF89819A81412C512C3201009719F09F
:1016D0000E9495122B011201809116059091170519
:1016E000A09118058F839887A9870E94E60980E05A
:1016F0000E94B107052C000C66087708C301B201EF
:101700000E94950A81EE94E00E9403070DE010E02C
:101710008091140590911505F801E81BF90BEE0F67
:10172000FF1FEE0FFF1FE25EFD4F6081718182811E
:1017300093810E94950A8091140590911505F801F6
:10174000E81BF90BEE0FFF1FEE0FFF1FE25EFD4FD0
:101750006081718182819381A30192010E9434137F
:101760004B015C0183EE94E00E94030781E00E943C
:10177000B107C501B4010E94950A85EE94E00E946C
:101780000307C301B2010E94950A64EF71E080E093
:1017900090E00E944F057301620110E000E081E0DB
:1017A000C81AD108E108F108021513050CF04FC062
:1017B00064EB70E0CE0107960E9481050E94E60965
:1017C00080E00E94B107C301B2010E94950A81EE38
:1017D00094E00E9403078091140590911505EDE0B7
:1017E000F0E0E81BF90BEE0FFF1FEE0FFF1FE25EAC
:1017F000FD4F60817181828193810E94950A83EE01
:1018000094E00E94030781E00E94B107C501B40182
:101810000E94950A85EE94E00E940307C701B60175
:101820000E94950A64EF71E080E090E00E944F050D
:1018300070E060E0CE0107960E94810568EE73E0DB
:1018400080E090E00E944F050F5F1F4FA8CF84E318
:1018500097E00E946C0189819A81009711F00E94A3
:10186000F41329960FB6F894DEBF0FBECDBFDF91FB
:10187000CF911F910F91FF90EF90DF90CF90BF908D
:10188000AF909F908F907F906F905F904F903F9020
:101890002F9008951F920F920FB60F9211242F933D
:1018A0003F938F939F93AF93BF938091C106909185
:1018B000C206A091C306B091C40630911E0523E074
:1018C000230F2D3758F50196A11DB11D20931E053C
:1018D0008093C1069093C206A093C306B093C4063A
:1018E00080911F0590912005A0912105B0912205BE
:1018F0000196A11DB11D80931F0590932005A09313
:101900002105B0932205BF91AF919F918F913F9197
:101910002F910F900FBE0F901F90189526E8230F60
:101920000296A11DB11DD2CF1F920F920FB60F923A
:1019300011240BB60F922F933F934F935F936F93A6
:101940007F938F939F93AF93BF93EF93FF9348E25F
:1019500051E064E271E090E080E00E94E405FF91D4
:10196000EF91BF91AF919F918F917F916F915F9117
:101970004F913F912F910F900BBE0F900FBE0F9084
:101980001F9018951F920F920FB60F9211240BB64D
:101990000F922F933F934F935F936F937F938F9308
:1019A0009F93AF93BF93EF93FF9348EA50E064EAAD
:1019B00070E083E090E00E94E405FF91EF91BF9119
:1019C000AF919F918F917F916F915F914F913F91D7
:1019D0002F910F900BBE0F900FBE0F901F90189578
:1019E0001F920F920FB60F9211240BB60F922F93E6
:1019F0003F934F935F936F937F938F939F93AF9397
:101A0000BF93EF93FF9348E950E064E970E082E010
:101A100090E00E94E405FF91EF91BF91AF919F91FB
:101A20008F917F916F915F914F913F912F910F9087
:101A30000BBE0F900FBE0F901F9018951F920F9224
:101A40000FB60F9211240BB60F922F933F934F9323
:101A50005F936F937F938F939F93AF93BF93EF9316
:101A6000FF9348E850E064E870E081E090E00E9475
:101A7000E405FF91EF91BF91AF919F918F917F917D
:101A80006F915F914F913F912F910F900BBE0F90EF
:101A90000FBE0F901F901895FC0190911D0590337B
:101AA00098F481E0890F80931D059083892F90E041
:101AB000FC01EE0FFF1FE80FF91FEF5CF94F88EBF9
:101AC0009BE09283818308958FEF80830895CF9365
:101AD000DF93CDB7DEB72D970FB6F894DEBF0FBEFC
:101AE000CDBF789484B5826084BD84B5816084BDA7
:101AF00085B5826085BD85B5816085BD80916E00AC
:101B0000816080936E0010928100809181008260DC
:101B10008093810080918100816080938100809119
:101B200080008160809380008091B1008460809308
:101B3000B1008091B00081608093B00080919100ED
:101B400082608093910080919100816080939100E8
:101B5000809190008160809390008091A1008260CC
:101B60008093A1008091A10081608093A100809169
:101B7000A00081608093A000809121018260809309
:101B800021018091210181608093210180912001B8
:101B900081608093200180917A00846080937A0034
:101BA00080917A00826080937A0080917A008160CF
:101BB00080937A0080917A00806880937A001092F6
:101BC000C10061E08DE00E94090361E08CE00E94A9
:101BD000090361E08BE00E94090361E08AE00E9452
:101BE000090361E089E00E94090361E088E00E9446
:101BF000090361E087E00E94090361E086E00E943A
:101C0000090361E085E00E94090361E084E00E942D
:101C1000090361E083E00E94090361E082E00E9421
:101C200009036DE070E08EE296E00E94A0046CE093
:101C300070E08BE296E00E94A0046BE070E088E226
:101C400096E00E94A0046AE070E085E296E00E94BF
:101C5000A00469E070E082E296E00E94A00468E0DF
:101C600070E08FE196E00E94A00467E070E08CE1F4
:101C700096E00E94A00466E070E089E196E00E9490
:101C8000A00465E070E086E196E00E94A00464E0B4
:101C900070E083E196E00E94A00463E070E080E1E0
:101CA00096E00E94A00462E070E08DE096E00E9461
:101CB000A00470E060E08EE296E00E94810570E092
:101CC00060E08BE296E00E94810570E060E088E2CF
:101CD00096E00E94810570E060E085E296E00E9457
:101CE000810570E060E082E296E00E94810570E08C
:101CF00060E08FE196E00E94810570E060E08CE199
:101D000096E00E94810570E060E089E196E00E9423
:101D1000810570E060E086E196E00E94810570E058
:101D200060E083E196E00E94810570E060E080E180
:101D300096E00E94810570E060E08DE096E00E94F0
:101D4000810584E397E0909304068093030680E086
:101D500096E090933C0780933B0780910B0690910F
:101D60000C06892B41F480913F0790914007909396
:101D70000C0680930B0663EF75E080E096E00E940E
:101D8000A20680E096E09093EA058093E90586EE4E
:101D900095E090930806809307068091F105909155
:101DA000F205892B41F480910B0690910C069093DB
:101DB000F2058093F10569ED75E086EE95E00E94ED
:101DC000A20686EE95E09093D0058093CF058CEC2B
:101DD00095E09093EE058093ED058091D705909165
:101DE000D805892B41F48091F1059091F2059093EB
:101DF000D8058093D7056FEB75E08CEC95E00E94D9
:101E0000A20662EB75E00E94A20689ED95E0909330
:101E1000A9058093A80585EA95E09093E105809354
:101E2000E0058091B0059091B105892B41F4809136
:101E3000E4059091E5059093B1058093B00568E9BC
:101E400075E085EA95E00E94A2066BE875E00E94C5
:101E5000A20683EF95E090938205809381058EE73B
:101E600095E09093FB058093FA0580918905909108
:101E70008A05892B41F48091FE059091FF0590938E
:101E80008A058093890561E775E08EE795E00E94F9
:101E9000A2068EE795E0909368058093670584E637
:101EA00095E0909386058093850580916F059091CC
:101EB0007005892B41F48091890590918A05909352
:101EC000700580936F0567E575E084E695E00E94F4
:101ED000A2066AE475E00E94A20681E795E090936D
:101EE0004105809340058DE395E0909379058093BB
:101EF00078058091480590914905892B41F480919E
:101F00007C0590917D05909349058093480560E399
:101F100075E08DE395E00E94A20663E275E00E9401
:101F2000A20684E397E00E946C0182E00E94EE0921
:101F300089EE94E00E94030781E00E94B1078AEFD6
:101F400094E00E94030768EE73E080E090E00E9456
:101F50004F050E94E60980E00E94B1078FEA94E0F5
:101F60000E94030781E00E94B10780EC94E00E9488
:101F700003078E010F5F1F4F80E0E82E80E0F82EF0
:101F80000E9449038823E1F32091410730914207E1
:101F90009DE0F901D80101900D929A95E1F78D32FB
:101FA00091F144F48B3221F1E114F10449F30E94E0
:101FB0000000E6CF8D3329F08235B1F784E397E056
:101FC0000EC0E885F985309711F114870387E091F9
:101FD0004107F091420787819085009719F40E948C
:101FE0006C01E2CFDC011C96FC93EE931B97F7CFBC
:101FF000F90185819681009791F3DC011C963C9351
:102000002E931B97ECCFF90181859285F4CFE09157
:102010004507F0914607309739F2C9011995C4CFA9
:102020001092C7061092CB061092CA061092CC06E8
:102030008EE592E09093C6068093C506E1EEF6E049
:102040001082148213821582369687E0ED31F807EC
:10205000B9F784E092E0909328078093270780E007
:1020600092E090932A078093290784E080932B07BE
:1020700080932C0788E092E09093260780932507B1
:102080008AE090E090932E0780932D0784EF91E0F3
:102090009093300780932F071092330710923207E6
:1020A0001092210710922207109223071092240702
:1020B0001092310710924A071092490782E592E088
:1020C000909348078093470780E180934B078FEFF9
:1020D00080934C0781E180934D0782E180934E0706
:1020E00083E180934F0784E18093500785E18093DB
:1020F00051071092520710925307109254071092F2
:1021000055071092560781E00E94EE098EE296E094
:102110000E944C0D8BE296E00E944C0D88E296E006
:102120000E944C0D85E296E00E944C0D82E296E002
:102130000E944C0D8FE196E00E944C0D8CE196E0E0
:102140000E944C0D89E196E00E944C0D86E196E0DC
:102150000E944C0D83E196E00E944C0D80E196E0D8
:102160000E944C0D8DE096E00E944C0D86E195E0BA
:102170000E944C0D8BE095E09093350780933407D7
:102180001092360710923E0710923D0710923C07BE
:1021900010923B0710923A071092390710923807B5
:1021A0001092370784E397E09093420780934107AA
:1021B0008FEB97E0909344078093430782EE9AE079
:1021C00090934607809345078EE193E09093010634
:1021D000809300061092020610920A0610920906D9
:1021E0001092080610920706109206061092050635
:1021F000109204061092030686E892E09093E70599
:102200008093E6051092E8051092F0051092EF0514
:102210001092EE051092ED051092EC051092EB0570
:102220001092EA051092E90587EB92E09093CD05B4
:102230008093CC051092CE051092D6051092D5054C
:102240001092D4051092D3051092D2051092D105A8
:102250001092D0051092CF0580EE92E09093C005C9
:102260008093BF051092C1051092C9051092C80550
:102270001092C7051092C6051092C5051092C405AC
:102280001092C3051092C2058BEF92E09093B305B4
:102290008093B2051092B4051092BC051092BB0554
:1022A0001092BA051092B9051092B8051092B705B0
:1022B0001092B6051092B50589E193E09093DA0586
:1022C0008093D9051092DB051092E3051092E20588
:1022D0001092E1051092E0051092DF051092DE05E4
:1022E0001092DD051092DC058AE393E09093A60539
:1022F0008093A5051092A7051092AF051092AE0528
:102300001092AD051092AC051092AB051092AA0583
:102310001092A9051092A80585E693E0909399057F
:102320008093980510929A051092A2051092A1052B
:102330001092A00510929F0510929E0510929D0587
:1023400010929C0510929B0582E893E090938C0577
:1023500080938B0510928D0510929505109294052F
:10236000109293051092920510929105109290058B
:1023700010928F0510928E058BE394E09093F405F4
:102380008093F3051092F5051092FD051092FC055F
:102390001092FB051092FA051092F9051092F805BB
:1023A0001092F7051092F6058DEA93E090937F0561
:1023B00080937E0510928005109288051092870503
:1023C000109286051092850510928405109283055F
:1023D00010928205109281058DED93E09093650532
:1023E000809364051092660510926E0510926D053B
:1023F00010926C0510926B0510926A051092690597
:10240000109268051092670587E094E09093580554
:10241000809357051092590510926105109260053E
:1024200010925F0510925E0510925D0510925C059A
:1024300010925B0510925A058FE194E090934B0542
:1024400080934A0510924C05109254051092530542
:1024500010925205109251051092500510924F059E
:1024600010924E0510924D0586E394E0909372050C
:10247000809371051092730510927B0510927A0576
:1024800010927905109278051092770510927605D2
:10249000109275051092740585E494E090933E05C2
:1024A00080933D0510923F05109247051092460516
:1024B0001092450510924405109243051092420572
:1024C000109241051092400584E794E09093310505
:1024D000809330051092320510923A05109239051A
:1024E0001092380510923705109236051092350576
:1024F000109234051092330582E994E090932405FC
:10250000809323051092250510922D0510922C051D
:1025100010922B0510922A05109229051092280579
:10252000109227051092260508951F93FC01992704
:102530008827BC01E89411911032E9F3193010F0AA
:102540001E30C8F31B3251F01D3249F4689406C0A6
:102550000E94BC12610F711D811D911D11911053BC
:102560001A30B0F33EF490958095709561957F4F49
:102570008F4F9F4F1F910895592F482F372F262F88
:10258000660F771F881F991F660F771F881F991F77
:10259000620F731F841F951F660F771F881F991F77
:1025A0000895052E97FB1EF400940E94E81257FD33
:1025B00007D00E94031307FC03D04EF40C94E812DA
:1025C00050954095309521953F4F4F4F5F4F08955F
:1025D00090958095709561957F4F8F4F9F4F08958F
:1025E0000E942513A59F900DB49F900DA49F800D70
:1025F000911D11240895B7FF0C94F0120E94F0125F
:10260000821B930B0895A1E21A2EAA1BBB1BFD018E
:102610000DC0AA1FBB1FEE1FFF1FA217B307E407C1
:10262000F50720F0A21BB30BE40BF50B661F771F19
:10263000881F991F1A9469F76095709580959095F9
:102640009B01AC01BD01CF010895A29FB001B39FD2
:10265000C001A39F700D811D1124911DB29F700DAB
:10266000811D1124911D0895DB018F939F930E947A
:10267000F012BF91AF91A29F800D911DA39F900D6D
:10268000B29F900D11240895991B79E004C0991F01
:10269000961708F0961B881F7A95C9F780950895BC
:1026A000EE0FFF1F881F8BBF0790F691E02D199446
:1026B0000F931F93CF93DF938230910510F482E044
:1026C00090E0E0916107F091620730E020E0B0E037
:1026D000A0E0309799F42115310509F44AC0281B70
:1026E000390B24303105D8F58A819B81611571053C
:1026F00089F1FB0193838283FE0111C040815181E6
:102700000281138148175907E0F04817590799F4D7
:10271000109761F012960C93129713961C933296B1
:10272000CF01DF91CF911F910F9108950093610721
:1027300010936207F4CF2115310551F0421753076A
:1027400038F0A901DB019A01BD01DF01F801C1CF19
:10275000EF01F9CF9093620780936107CDCFFE011F
:10276000E20FF31F8193919322503109398328831B
:10277000D7CF20915F0730916007232B41F4209140
:102780001A0230911B023093600720935F0720915B
:102790001802309119022115310541F42DB73EB7C9
:1027A00040911C0250911D02241B350BE0915F07E4
:1027B000F0916007E217F307A0F42E1B3F0B2817D8
:1027C000390778F0AC014E5F5F4F2417350748F0AA
:1027D0004E0F5F1F5093600740935F078193919363
:1027E0009FCFF0E0E0E09CCFCF93DF930097E9F03C
:1027F000FC01329713821282A0916107B0916207A7
:10280000ED0130E020E01097A1F420813181820FAA
:10281000931F20915F07309160072817390709F04F
:1028200061C0F0936007E0935F07DF91CF91089557
:10283000EA01CE17DF07E8F54A815B819E01411569
:102840005105B1F7E901FB83EA8349915991C40F1E
:10285000D51FEC17FD0761F4808191810296840FEA
:10286000951FE90199838883828193819B838A8361
:10287000F0E0E0E012968D919C9113970097B9F5E6
:102880002D913C911197CD010296820F931F2091BB
:102890005F07309160072817390739F6309751F5EF
:1028A0001092620710926107B0936007A0935F07D0
:1028B000BCCFD383C28340815181840F951FC81739
:1028C000D90761F44E5F5F4F88819981480F591F86
:1028D000518340838A819B819383828321153105B3
:1028E00009F0B0CFF0936207E09361079ECFFD013E
:1028F000DC01C0CF13821282D7CF4F925F926F92CA
:102900007F928F929F92AF92BF92CF92DF92EF927F
:10291000FF920F931F93CF93DF938C01009799F44D
:10292000CB01DF91CF911F910F91FF90EF90DF903E
:10293000CF90BF90AF909F908F907F906F905F905F
:102940004F900C945813FC01E60FF71F9C01225086
:102950003109E217F30708F4AEC0D901CD91DC913B
:102960001197C617D70720F1C530D10578F0CE01F1
:1029700004978617970750F0C61BD70B2297C19371
:10298000D1936D937C93CF010E94F413C801DF9122
:10299000CF911F910F91FF90EF90DF90CF90BF905C
:1029A000AF909F908F907F906F905F904F90089521
:1029B0005B01AC1ABD0A4C018C0E9D1EA0916107F3
:1029C000B0916207512C412CF12CE12C109731F57C
:1029D00080915F07909160078815990509F05CC0A8
:1029E0004616570608F058C08091180290911902B7
:1029F000009741F48DB79EB740911C0250911D0283
:102A0000841B950BE817F90708F055C0F093600791
:102A1000E0935F07F90171836083B8CF8D919C913A
:102A2000119712966C90129713967C901397A81595
:102A3000B90559F56C0142E0C40ED11CCA14DB047F
:102A400020F1AC014A195B09DA011296159780F062
:102A50006282738251834083D9016D937C93E11428
:102A6000F10471F0D7011396FC93EE9312978ECF79
:102A700022968C0F9D1FF90191838083F301EFCF84
:102A8000F0936207E093610781CF4816590608F476
:102A90002C017D01D3019ACFCB010E9458137C01F8
:102AA000009749F0AE01B8010E945E15C8010E946E
:102AB000F41387016BCF10E000E068CFFB01DC016D
:102AC00002C001900D9241505040D8F70895FB018B
:102AD000DC0101900D920020E1F70895F894FFCFFA
:102AE000191817161D1C1B1A3738392F3435362A7A
:102AF0003132332D52303D2B000063078000204ED1
:102B00000000A861000030750000983A0000983A73
:102B10000000C832000088130000A00F0000AC0DB8
:102B20000000A00F0000A00F0000A00F0000000098
:102B300000008F0A17029F069E0600000000450352
:102B40000503D4023C20202020204D656E752020F6
:102B50002020203E0020202073616E647769636826
:102B6000657320202B00686F742073616E64776931
:102B700063686573003C202073616E6477696368E5
:102B8000657320203E0020686F742073616E647747
:102B900069636865732B00686F74646F67003C68D5
:102BA0006F742073616E647769636865733E00209B
:102BB00020202020686F74646F67202020202B0065
:102BC00068616D627572676572002D2020206861F2
:102BD0006D62757267657220202B0063686565738E
:102BE00065627572676572002D206368656573653F
:102BF000627572676572202000636F6C6420736178
:102C00006E64776963686573002D636F6C645361EC
:102C10006E6477696368657320006D656174206810
:102C2000616D003C636F6C6453616E6477696368C7
:102C300065733E00202020206D6561742068616D01
:102C40002020202B00636869636B656E2068616DCE
:102C5000002D20636869636B656E2068616D2020BC
:102C60002B006F6C6F7669796568002D2020206FCE
:102C70006C6F766979656820202020002D20202047
:102C800062657665726167657320202000686F74E5
:102C900020626576657261676573003C2020206262
:102CA000657665726167657320203E0020686F74E9
:102CB00020626576657261676573202B006E6573AF
:102CC00063616665003C686F74202062657665729A
:102CD000616765733E00202020206E657363616626
:102CE00065202020202B00636F66666565002D201F
:102CF000202020636F66666565202020202B0074ED
:102D00006561002D20202020202074656120202076
:102D1000202020002D20636F6C6420626576657230
:102D20006167657300636865727279206A756963AB
:102D300065003C636F6C64206265766572616765EF
:102D4000733E002020636865727279206A7569633A
:102D500065202B006F72616E6765206A7569636517
:102D6000002D206F72616E6765206A75696365204A
:102D70002B006170706C65206A75696365002D2099
:102D8000206170706C65206A756963652020003C65
:102D900020204D61696E20204D656E7520203E001B
:102DA0005072657373203D20746F20737461727468
:102DB000003E20003E20486F77206D616E793F20F5
:102DC000002A003D00203A20002020412E416C695D
:102DD00062616B6873686920200020594147484F41
:102DE0004F422D42415247484920004D656E755271
:042DF0006F6F74008D
:00000001FF
